:020000041004E6
:1000000000600020257D0410AF700410855404109A
:10001000AA5555AA45554C420000000000000000BA
:100020000000000000000000000000000D96041019
:10003000000000000000000011760410D99B04109D
:10004000653A04107D7104100000000000000000FB
:10005000D99F0410199504105D1E04103DA10410D1
:100060000000000000000000000000000000000090
:1000700000000000E70A041089540410875404109B
:10008000000000002F6C0410316C0410336C04105D
:10009000356C0410457D041097710410D9230410A9
:1000A0000000000000000000000000000000000050
:1000B0000000000000000000000000000000000040
:1000C000EFF31482EFF309811C4880F31488BFF327
:1000D0006F8FF0B543464C4655465E466746F8B4CA
:1000E000174CEFF30883236006B4164C2068164CB7
:1000F0002060164C2068164C2060164C2068164C68
:100100002060164C276800202060BFF34F8F30BF5F
:1001100027600B4C246884F3088882B003BCF8BCC9
:100120009846A146AA46B346BC46F0BC04BC80F340
:10013000098881F31488BFF36F8F10470000000017
:100140000800002004ED00E0D802002024ED00E0CB
:10015000DC02002000E200E0E00200200800204075
:100160000348854600F020FC00480047D5F60410FF
:100170000060002030B50B460146002020220124FB
:1001800009E00D46D5409D4205D31D469540491BCB
:100190002546954040191546521E002DF1DC30BD14
:1001A00010B5441A0346944209D28318891803E013
:1001B000491E0C785B1E1C70521EF9D210BD0C46F5
:1001C0000443A40703D009E010C9121F10C3042A76
:1001D000FAD203E00C781C70491C5B1C521EF9D249
:1001E00010BDD2B201E00270401C491EFBD2704724
:1001F0000022F6E710B513460A4604461946FFF7F3
:10020000F0FF204610BD10B5002200E0521C835CB8
:100210008C5CA34201D1002BF8D1D8B2E1B2401AD4
:1002200010BD30B504460020034600E05B1C93423D
:1002300003D2E05CCD5C401BF8D030BD0321001D33
:10024000401E037812021A43491EF9D51046704722
:10025000F8B502464A40D40F42004B0052085B08F2
:100260009A4202D20246084611464A0023D0C30DE4
:100270004A00DDB2120EAD1A202D35DA49020126F0
:10028000490AF6058A19002C00D0524220214F1B42
:100290001146B9402A411018C20D9A4221D0002CB3
:1002A00017D0012D08DCDA05801AD20F8019D20789
:1002B000DBB200F0CCFAF8BDDA05801A0123400069
:1002C0001B06C01880185A428018CA0F10434900F4
:1002D00007E04908C2071143DA05801A801940086F
:1002E000801800F0ACFAF8BD61000122511A001B21
:1002F000F7E70122D2075140AAE70122D207504076
:10030000A6E7024670B54A40D30FDB0740002DD068
:100310004A002AD0010E140E000212020919400AE6
:10032000520A8418E50104465443000A120A2E04B6
:100330005043A4194219200CC543AA18120C0125D8
:10034000AD03521C521912047F39240400D0521CF0
:10035000104301D44000491EC2B20C06C009201847
:10036000401C4008802A02D003E0002070BD4008F5
:100370004000002900DA0020184370BDF0B50746A0
:100380000846584087B0C00F049048000E465900F8
:1003900040084908BC1A884105D2384631461E46F5
:1003A00017460B4602465800400810434CD0300D0B
:1003B000039040055900400D490D0590401A0290E8
:1003C000402872DA18030121000B09050843019047
:1003D00004980092002805D00199524200208841DB
:1003E00000920190029840210A1A0199009800F0A9
:1003F00003FA05460C466B4607CB00F00DFAC01910
:100400007141039A0E0D0023D71756401A467A40C1
:10041000164344D0049A002A2DD0029A012A039A46
:1004200015DC1205C01A914101263605001C7141E8
:10043000D20F059ED2070093019202962A462346C8
:1004400000F04BFA07B0F0BD38463146FAE7160522
:10045000224A0F46B218C01AB74101210905001CF3
:100460004F4100187F41114618187941E20F10439F
:100470006D19644113E0E2076D0815436408C20773
:100480001443039A01261205C01A91413605001C37
:100490007141CE07400830434908C01851412A46EF
:1004A000234600F00DFACDE7FFE704980122400053
:1004B000C117121A00238B4104983146C417381A09
:1004C000A141EEE730B40124E407634030BC55E7B6
:1004D00030B40124E407614030BC4FE70000E0FF86
:1004E000F0B51FB488B00B990998002448400999C9
:1004F000C00F490049080991C0070B9900904900B5
:1005000049080B9109990898A64608431CD00B99F5
:100510000A98084318D0099801244000420D480069
:10052000410D099824050003000B204309900B9806
:100530000003000B20430B9050181C494018002268
:1005400001901446104605E0002001460DB0F0BDB4
:10055000032801DA034600E003239C46C11A0AAED1
:100560000AE05F0008ADED5B4F00F75B7D430027BD
:10057000AA187C41491C5B1E6145F2DD410004ABB9
:100580005A522104120C0A43240C401C0828DFDBB9
:10059000019802900099704601910090059B049A81
:1005A0000799069800F099F9D0E700000DFCFFFFCD
:1005B000F0B50C465C4085B0E40FE40703944C00B2
:1005C00000266408590094464908024602962243D0
:1005D00021D062460A431ED06200570D4A000E0326
:1005E0002303550D012402462C492405781B1B0BBF
:1005F000360B401823432643614600901C46501A90
:10060000B44103D30098401C009002E09218009877
:100610005B41002803DA0020014605B0F0BD002050
:10062000012109050746864611E064461D46141B54
:10063000B54106D36546521BB341744607430C438C
:10064000A646CD0740084908284392185B41054655
:100650000D43EAD11046184313D060461946504066
:100660007140084306D06046101AB34106D20122F9
:10067000002306E000220123DB0702E00122D2432F
:100680005310009874460105381C6141029C039D7B
:100690000019694100F014F9BFE70000FD030000F4
:1006A00070B54B005B0803430BD04B005C0D00267C
:1006B00033466542B341D417AD1AA34102DB002093
:1006C000014670BD12053018514170BD0EB5C217FC
:1006D000C10F5040CA0740180021054B02930192F8
:1006E00000910A460B4600F0F8F803B000BD000088
:1006F000330400000EB505490291002100910A461D
:100700000B46019100F0E9F803B000BD330400008E
:10071000410040020122400AD205090E80187F29BB
:1007200001DA00207047962903DC9622511AC8404E
:100730007047963988407047C20FD2074000400882
:100740000BD0C10D0723DB01C91840020905400A7F
:100750001143C2084007114370470020014670470B
:10076000CB0FDB07490010B5490802460A4307D002
:100770000A0D07240903E401090B121B002A01DCFE
:10078000002010BDC900440F0C43C100E018D20581
:10079000801800F054F810BDF0B51FB406460020D4
:1007A00082B005464024019100901BE00199224649
:1007B0000F46304600F00AF9049A059B801A9941C9
:1007C00010D310461946224600F016F8361A8F410B
:1007D0000197224601200021009F00F00DF83818F3
:1007E0004D4100902046641E0028DFDC019B0098EC
:1007F0002946324607B0F0BD10B5202A04DB014679
:10080000203A9140002010BD914020239C1A0346BD
:10081000E3401943904010BD10B5202A06DBCB17EA
:100820000846203A1041C1170B4306E00B4613411E
:10083000D0402024A21A91400843194610BD002937
:1008400004DA401C490001D140084000704770B4F0
:100850000024050C05D11024000402D1002921D068
:100860001124050E01D100020834050F01D1000149
:10087000241D850F01D18000A41C002801DB40004D
:10088000641C002908D020252E1B0D46F540A140F0
:1008900000D001212943084301061B1B000ADB1D70
:1008A00002D5002070BC7047DB051818801800299D
:1008B000F8DA401C4900F5D170BC40084000704790
:1008C00010B5002B08DA0024401C614192185B41EE
:1008D0001A4301D14008400010BDF0B51FB482B0EA
:1008E00005460C0003D0084609F0F8FE02E009F0C6
:1008F000F5FE20300246009021462846FFF77CFF97
:10090000049B059A04460F4618431143084314D02C
:10091000184610431BD0009840210A1A1846059922
:1009200000F054F805460E46009A05990498FFF722
:1009300063FF084305D0012004E02046394607B094
:10094000F0BD0020C11705430E432C4337430099E7
:100950000E986305401A7905E40A00220C43FD0A4B
:100960000A3002D500200146E9E701051019694166
:100970000C9C0D9D00196941FFF7A2FFDFE7000005
:1009800010B5002904DB0124E40740428C412146D4
:10099000002B04DB1C460123DB075242A341994292
:1009A00000D1904210BD0000064C0125064E05E026
:1009B000E36807CC2B430C3C98471034B442F7D380
:1009C000FFF7D2FBB8290510582A051010B5202AC8
:1009D00004DB0846203AD040002110BD0B46D3402E
:1009E000D0402024A21A91400843194610BDFEB5FC
:1009F00000231A461B1A8A4103DB0020014603B07C
:100A0000F0BD4A000D0301212D0B0905520D0D43C8
:100A1000D10702D100186D41521E5110FF31FF3134
:100A20000131002704463E463846009701910246B0
:100A3000012100200905FFF7C9FFC3197141F8180A
:100A4000324684468E464A4161462846611A9041A4
:100A500004D36046241A954176461F46241900980F
:100A60006D41401C00903428E1DDF9193046704199
:100A7000091BA84103D20022D243134601E0002201
:100A8000134601980105381C7141FFF719FFB6E7BD
:100A900070B58C180578401C6B075B0F01D103788B
:100AA000401C2A1106D10278401C03E006780E7023
:100AB000401C491C5B1EF9D12B0705D40023521E94
:100AC0000DD40B70491CFAE70378401CCB1A921C1A
:100AD00003E01D780D70491C5B1C521EF9D5A14224
:100AE000D8D3002070BD70477FB5054698680122B5
:100AF00002739A681C4651739868022202A90E304C
:100B000006F041FBA16805200D74E0807FBD70B543
:100B1000064608881D460C46001D81B21346022277
:100B2000304606F099FC21882B46891C2180091D3E
:100B300089B20222304606F08FFC2088801C20807B
:100B400070BDFEB500240E462746056845E02868BE
:100B50000290A968022230460D3106F014FB30885D
:100B6000B84209D087B2384603F03EFC014601AADC
:100B7000384604F0CBFA019CA968022268460F317E
:100B800006F001FBE888401F81B22220005D0028AA
:100B900006D001280BD0002811D0012814D01BE06A
:100BA000E08B6A461288401E904206D307E0208CF4
:100BB0006A461288401E904206D20720FEBD684653
:100BC00000880818E18B03E0684600880818218C2B
:100BD000884201D90D20FEBD029D002DB7D1002015
:100BE0003080FEBDFFB5C8880025401E83B00E468C
:100BF00087B2012427E0B068022208300119684654
:100C0000091D06F0C0FA6846008803F0EDFB0100FC
:100C10001DD068460A8D0088824212D001AA04F0D5
:100C200075FA00280DD101992620405C400708D5AF
:100C300006986A00101802221C3106F0A4FA6D1CF6
:100C4000ADB2A41CA4B2BC42D5D30C98058007B0A9
:100C5000F0BDFFB5074683B0002000900D9803F06B
:100C6000C3FB069905460C310191002826D00837B0
:100C7000BD4223D0288D0E9988421FD80D998842F5
:100C800013D30E99884210D8294602222A3101989E
:100C900006F079FA10220C99069806F070FA0028EE
:100CA00009D0298D0E98814208D02E462C6A203614
:100CB000B4423FD140E005980021018007B0F0BD6B
:100CC000A18B0D98814234D30E98814234D82046AE
:100CD00020300290C078012808D020460830102229
:100CE0000C9906F04CFA002808D022E02146022296
:100CF0000831019806F047FA0698F0E702988079E3
:100D0000400716D50098002801D1E08B0090E18BB8
:100D1000814211D1059802220088410004980818E8
:100D200021461C3106F02FFA059805990088401CD1
:100D300008802468B442C3D12D6899E70648002191
:100D4000026849204001101801724172032181722A
:100D5000C1720020704700007C03002070B50D4D6B
:100D6000044601232868D902401890261A46406993
:100D700031460AF0A7F9010003D030464C600AF072
:100D80008DF94920296840010918087A401C087229
:100D900070BD00007C03002010B5044600202082B6
:100DA000A074A168A16161612060204605F04AFB42
:100DB000452801D0412010BDA08803210CF0DCFBA8
:100DC00004460DF073F9002813D072B60A480122C8
:100DD00001680920000209184878A24010434870B1
:100DE00062B600200FF028FF002802D000200BF090
:100DF00033F9002010BD00007C03002070B5C17CD9
:100E00000E4D4906490EC174044601232868D902D3
:100E1000401890260022406931460AF053F901003B
:100E200003D030464C600AF039F949202968400166
:100E30000918487A401C487270BD00007C030020ED
:100E4000F0B52BA00FC893B006AC0FC42CA00FC8F0
:100E50000FC42FA00FC80FC4102206A9304806F0F7
:100E600092F9304C062301222D49022000940AF009
:100E7000A4FA00282FD12A4810220AA9103006F01F
:100E800082F910260027A01C0125254A009603960A
:100E900002970197049505901423103202212088AF
:100EA0000AF06CFA002816D11D4810220EA9103045
:100EB00006F069F9201D05900C20194A0295039649
:100EC00004950197009014231032022120880AF023
:100ED00055FA002805D014A009F0F0FB472013B004
:100EE000F0BDA288618819A009F0E8FB0020F6E7B0
:100EF000669A0C200008969EE2119EB1E0F273D92A
:100F0000669A0C200008969EE2119EB1E1F273D918
:100F1000669A0C200008969EE2119EB1E2F273D907
:100F2000300400202A0300204572726F7220776817
:100F3000696C6520616464696E6720436861742030
:100F4000736572766963652E0A00000043686174F8
:100F500020536572766963652061646465642E0A56
:100F6000545820436861722048616E646C65202586
:100F70003034582C20525820436861722048616EEA
:100F8000646C6520253034580A00000010B508F064
:100F90003EFB002803D108F044FB002801D00020CC
:100FA00010BD032010BDF8B516460D4607460024B7
:100FB00008F078F8002806D032462946384601F075
:100FC00097F9044604E020356879002802D00E2401
:100FD0002046F8BD2879C10701D1012E09D081072B
:100FE00001D4022E03D04007F2D4042EF0D1032402
:100FF000EEE70224ECE70000F0B5064687B01446A1
:101000000D46084609F092FC02908E488088401CEC
:10101000864207D1002003E00299225C0A54401C5A
:10102000A842F9DB87490020891D225C0A54401C34
:101030000328FADB834884A1801DFFF7E4F8002829
:101040000DD1002609218148FFF7D2F803207F49FE
:1010500003E0225C8A55401C761CA842F9DB7948E3
:101060007BA1801DFFF7CFF800280DD100260921B4
:101070007848FFF7BDF80320764903E0225C8A55E3
:10108000401C761CA842F9DB6E4873A1801DFFF757
:10109000BAF800280DD1002609217048FFF7A8F8FA
:1010A00003206E4903E0225C8A55401C761CA8424E
:1010B000F9DB64486AA1801DFFF7A5F800280DD16F
:1010C000002609216748FFF793F80320654903E0EC
:1010D000225C8A55401C761CA842F9DB594862A163
:1010E000801DFFF790F800282FD1002604215F48CB
:1010F000FFF77EF803206F4603E0215CB955401CE2
:10110000761CA842F9DB00221146B85C02F096F882
:101110000601B818407802F091F806435348921C33
:101120004654491C0429F0DB06463178052011F0AD
:1011300061F87178062011F05DF8B178072011F0A0
:1011400059F8F178082011F055F83E4848A1801D63
:10115000FFF759F8002870D100212E2084460F4651
:10116000009103206A46019103E0235C5354401C24
:10117000491CA842F9DB052003900020135C63455D
:1011800000D10646401C0528F8D30398851B00248F
:1011900048E0B44221DA2846FFF798FA02460B46A7
:1011A000002034490EF09CFC049005916846005DD7
:1011B0000007000FFFF79EFA059B049AFFF790F9CE
:1011C000049005913846FFF7B7FA059B049AFFF79C
:1011D000D5F8FFF7C5FA07466D1EB44221DD284653
:1011E000FFF774FA02460B46002022490EF078FC05
:1011F000049005916846005D0007000FFFF77AFA3A
:10120000059B049AFFF76CF9049005913846FFF7A7
:1012100093FA059B049AFFF7B1F8FFF7A1FA074686
:101220006D1E641C03988442B3DB38460BF0CCFF80
:101230001149087000210FF0D3FB029809F096FACB
:1012400007B0F0BD2A03002062743100F0020020D4
:1012500062743200F902002062743300020300203D
:10126000627434000B03002061647200EC02002001
:101270006672710000002440E40200207EB504463E
:1012800016460D46684604F029F868460378237030
:10129000407828706846807830707EBD70B5002137
:1012A0000C4A03E0535C491C5918C9B2535C002B2B
:1012B000F8D1CE1C02243525202E04D254545118C6
:1012C0004D708870CB7004490C704D708870CB7075
:1012D00070BD0000F00300201C00002070B508F075
:1012E00047FD1D4C01252068ED02411909790029AF
:1012F00009D1A0300079C00727D00CF05DFB01F0C8
:101300005DF801F00DFB00F0DFFC20680146403184
:101310000A78C9798A4317D13E21095C002913D183
:101320000E490A8812070FD50922D2061269497A96
:10133000836A4019006FC900801A00025918001210
:10134000814201DA0AF0DCFD70BD02F095FA03F08B
:10135000A5F807F097FCD2E77C030020C00000202E
:10136000F3B5FFB090B0044601A803F0B7FFFE4804
:10137000007A0590FD4880880890FD4800685290EA
:10138000FC4E002081008B191B68401C53AAC0B280
:1013900053500828F6D3F848006A5190F748006A7D
:1013A00050900120800701684F9141684E918168FB
:1013B0004D91C1684C9101694B9141694A91816994
:1013C0004991C1690491C16A4891016B4791406B91
:1013D0004590EB48008B4490E948203040684690A7
:1013E000E848C1684391017F4291E64920318988EC
:1013F0004191E4492031097A4091E2492031097B49
:101400003F91006B3E90DF482030007D3D90DD48ED
:101410002030008B3C90DB484030017A3B91017CCE
:101420003A91017D3991017E3891007F3790D548FE
:10143000603000783690D448016835914168349125
:10144000017C3391017D3291CF4920310A7931926B
:101450000A893092C06A2F90088A00222E90CB48C9
:1014600011050818056891007BAB5D5045687DABA0
:101470005D50858B7FAB5D50058C81AB5D50858C5D
:1014800083AB5D50058D85AB5D50C56A87AB5D5004
:101490004C231D5A89AB5D50056D8BAB5D50836D40
:1014A000521C8DA8D2B24350022AD8D30B20000779
:1014B00000682D90B64841682A9181682991018A77
:1014C0002891818A279181692691017F2591B049D0
:1014D0002031098A2491416B2391816B2291C06B49
:1014E0002190AB4840300168209141681F9180688D
:1014F0001E90A84881881D9101891C91017C1B9137
:10150000017D1A91018B1991007F1890A248818862
:10151000179101891691017C1591017D1491018B20
:101520001391007F12909D4801692C9140692B9086
:101530009B4801681191007A10909A480068002831
:101540002ED00020009000201421974A4143891892
:101550004D68820063AB9D500D685BAB9D508D68FC
:101560006BAB9D50CB68401C73A9C0B28B50082850
:10157000EAD38120C00541680E91017B0D91418B1A
:101580000B91018B0C91416A0A91816A0991008843
:101590000F900320800780680790032C02D008E09A
:1015A0008248CFE70920C006416803221207114391
:1015B00041607F49002009687E4D503906917E4F79
:1015C000296004C98300401CFA50C0B22960142865
:1015D000F7D3654908790978012292071268520AFF
:1015E0004A4090437ED16946487989790001084391
:1015F000122804D371490020086007F07DFA092001
:10160000C00641686E480160012008F043FBFEF708
:1016100057FD002008F03EFB6A48007800287DD086
:1016200069480121018300218181016108460699F1
:10163000296081007A58296804C1401CC0B2296021
:101640001428F6D349490898888049495298086077
:10165000002053AA8100535889190B60401CC0B266
:101660000828F7D3444951980862444950980862C1
:101670008B024F9818604E9858604D9898604C981F
:10168000D860499898614A9858614B9818610498B5
:1016900098620498D8614898D8624798186345982A
:1016A000586337494498088335484699203041604B
:1016B00034494398C860429808773248419A2030AC
:1016C0008280409A02723F9A02733E9A0A633D9961
:1016D00001753C9901832B483B99403001723A993E
:1016E000017400E048E1399901753899017637991C
:1016F0000177244936986031087023483599016094
:101700003499416033990174329901751E49319AB7
:1017100020310A71309A0A812F9A00E0DBE0C26220
:101720002E98088200227BAD1848110508189100F8
:101730006E5806607DAE765846607FAE765A8683D8
:1017400081AE765A068483AE765A868485AE765A02
:10175000068587AE7658C66289AE765A4C273E52C9
:101760008BAE7658066531E0000020400000104046
:1017700000E100E000E400E000ED00E00000904047
:101780002000004000003040000040400000A04029
:101790000000F0400000D0400000E04000E000E029
:1017A00000007040000C7040080000A051E5CC1A09
:1017B00000000410CC020020A00300201400002030
:1017C000180000200C000020000010488DAE715859
:1017D0008165521CD2B2022AA6D30B2000072D9994
:1017E000016097482B994161002181612C99016129
:1017F00094482A9941602999816028990182279902
:1018000081822699816125990177239941632299E3
:1018100081632199C1638B482099403001601F99F1
:1018200041601E998160874924982031088286484A
:101830001D9981801C9901811B9901741A99017568
:10184000824A1999114001831899017780481799A4
:101850008180169901811599017414990175139964
:1018600011400183129901777A481199016010990A
:101870000172794900980860784F002063AD142107
:101880004143C9198200AE584E605BAEB6580E6037
:101890006BAEB6588E6073AEB258CA60401CC0B210
:1018A0000828ECD38120C0050E9941600D99017381
:1018B0000B9941830C9901830A99416209998162CC
:1018C0000F99018003218907079888606448007A8E
:1018D000002854D07DE0634B1868400637D419685F
:1018E0006148624A0068556A4140614E3668B542B7
:1018F0001AD11B68834203D05E480068084213D1A6
:101900005D48012100680907034655680B400D40FA
:10191000AB4209D18910526808400A40904216D063
:1019200047480069800712D50921C9060869534B49
:101930000209D01C984204D80A6912098242FBD3DA
:1019400005E04F4810180A6912098242FBD1694626
:101950004879897900010843122805D3012007F04E
:10196000CBF8494847490160032C05D10920C0063E
:10197000426821078A4342607FB012B0F0BD909860
:10198000002826D0414802890921914302D1D96912
:1019900089051BD402891121914302D1D9694905D6
:1019A00014D402892121914302D1D96909050DD4AA
:1019B00002894121914302D1D969C90406D4018920
:1019C0008120884305D1D869800402D525480121AA
:1019D0000160032C05D10920C006426821078A4313
:1019E00042602B4905980872032C26D00021002064
:1019F00000F0FEFC0598C007BED008F095F86946D7
:101A000008800888400514D422480088000710D5B3
:101A10000921C9060869204A1268101A000200123A
:101A200000D54042202804DC08692D300A69824232
:101A3000FCD91A49152008709EE70121D7E700005C
:101A400000E000E00000F0400000D040BFFF0000D8
:101A50000000E04000007040000C7040080000A052
:101A60000000904000E200E0E002002000ED00E015
:101A7000DC02002000E100E0D8020020FFFF0F00A0
:101A80000400F0FFCCBCECFC140000200000104867
:101A900000002040C0000020180000200000C040CE
:101AA000F7B50746EFF3108472B6002018490870A6
:101AB00000F06CF90646384603F062FC05463846ED
:101AC000FFF764FAB84200D33846854200D2284670
:101AD000864200D230460F4A810053585B1C535057
:101AE000002809D001280BD00B49029A0A70019AEC
:101AF0000A710199FFF734FC84F310880020FEBDC1
:101B00000648017A0022027230BF0172F4E7000039
:101B10000C000020900300200000204000007040D6
:101B200010B5837F0122002492024168082B03D95B
:101B30004224914202D310E0914201D242240CE0AF
:101B400001463422064805F01EFB00F07FF800280D
:101B500001DA482401E008F00BFD204610BD00002A
:101B6000500400203EB5174D15482968827F08466D
:101B7000A0310A7300246030047644768476E12232
:101B8000C2768022027702224277302008704C70A1
:101B900002AA01A96846FFF771FB68460078A222F5
:101BA00001016846007A891C0002014368460079F9
:101BB0000003014328681152A03004713EBD0000AB
:101BC000500400207C03002070B508F0B7F804F042
:101BD0005FFB05F0B3FBFFF7B1F803F0D5FD184C40
:101BE00018492068184D4018811009202A68000201
:101BF00010184167616889088167A1688908C16711
:101C000007F022F80F202968C001228B0818828172
:101C1000628BC281A28BC280628C028122462032FA
:101C2000127882723B22520100208918087501F057
:101C300083FC03F0C3FB0AF055FD00F0F7FE70BD16
:101C4000500400200000FCEF7C03002070B500254C
:101C5000ED430BF031FB01282FD00023184903225C
:101C6000888BFF24401E10438A7F513462438218C0
:101C7000088B282460431218488B302460431218C4
:101C80000846203040782C24604310180D4A18185C
:101C900084184869A0420ED11320C00184420AD999
:101CA0000D690BF009FBC1B2284600F0FFFC00F003
:101CB0002FFE401B251A284670BDFF23B533CDE704
:101CC0005004002051190000F8B52C4F3C68206EDC
:101CD0005C34401C002814D0002529480023C07B18
:101CE00000283ED00926F6062648002D1CD00021EB
:101CF0000A460B464169521C994204D1002902D080
:101D000004E00125E9E7204B9A42F2D32160006903
:101D100060603069A1680002090E000A09060143EB
:101D2000A16000F08DF81DE03169A2680902090A7E
:101D3000150E08D0018BC90712D0416921600069D6
:101D40006060E37210E0881A00027D2300121B031A
:101D5000984205DD100E00060843A06000F070F800
:101D6000F8BD6360002DFBD003CC0EF00BFFFA2012
:101D70000DF0A0FC39688862F8BD00007C030020EB
:101D8000700400200000104888130000F8B5294DA9
:101D9000002029680A4640321378D279934347D10C
:101DA0004A6E120E44D13E22525C002A40D1431E9C
:101DB00021488D6A467A1A460024F600AD19092694
:101DC000F606376900887D1907070120002F06DA1B
:101DD000C302CB181C6F631B1B021B1228D40727DE
:101DE0003F02C919496ACF0103D54A1B12021212D8
:101DF0001ED401252D07002B06DA002A0ADA7560A9
:101E00000E48856003200AE0112000060443746038
:101E1000002A03DB2943084607F04AFD0220054952
:101E2000096840314A78002A02D000204870032017
:101E3000F8BD00007C030020C000002040000048E6
:101E40000449002008610448012100686030C17124
:101E500070470000000010487C03002010B505F01A
:101E600055FE10BD70B5234A00211068044640306D
:101E70004176017609231B02E01841700F253620B8
:101E8000055508461468E418E46C21541468E418F5
:101E9000E56C0446303429551468E418E56C0446B2
:101EA000603429551468E418E56C04469034401CED
:101EB000C0B229552D28E5D31268D318D86C5862C2
:101EC000044630341C629030D8610B4814464834C4
:101ED00001800921417105238371C171037242811F
:101EE00000F00CF8FF2020706070A070E0701F20E0
:101EF000207170BD7C030020C000002010B5064892
:101F000001680648406A002803D020220BF06CF9D3
:101F100010BD0020087010BD7C030020500400207C
:101F2000F8B5069C1F4615460646002C13D0A0683F
:101F300002220D3005F027F9E81E82B23B46072148
:101F4000204605F089FAE580A068012E05D01D2104
:101F500001730020F8BD4720F8BD1B21F8E770B5DC
:101F600015460646FFF71FF80446082D0BD1052C31
:101F700009D1304607F096F8002804D000894004C3
:101F8000800F00D00024204670BD2423184204D0C6
:101F9000C81F092803D82032D17100207047422081
:101FA00070470000F1B5FFB001248BB060020590CE
:101FB0000027CC4807970168CB48C94D0818039003
:101FC0008A980AAA0005000D05A906F077FD06907B
:101FD000002872D104260AA805994218203AD27F17
:101FE0000B2A23D00026002004900AA8811902227F
:101FF00001A8029105F0C7F86846818809AB08AAD4
:10200000039803F065F8012817D002287ED06846AF
:102010008088854200D30546844200D92046044684
:1020200002988078012872D013363CE1491E761E52
:1020300036040591360CCFD1D5E708980090002FD3
:1020400066D1009902222831029805F098F80028FC
:102050001ED100982030017B02988078814217D1F0
:10206000012808D10098029902220830C91C05F005
:1020700086F8002815D002988078022808D10098A8
:10208000029910220830C91C05F079F8002808D000
:102090000098008DA84200D80546A04200D22046F4
:1020A000044602990AA88978012907D013360599B0
:1020B000B6B28E4204D3012707E006E1761DF6E7AB
:1020C0008119022201A805F05EF8039900980831F1
:1020D0008E462FE084466946026A8B8820300DE0E8
:1020E000918B994203D3012F7ED199427CD9A94289
:1020F00000D80D46A14200D30C4612688242EFD1AF
:102100000498002804D16046006802E015E0BFE0B2
:102110008AE070450ED0018D994203D3012F09D179
:10212000994207D98D4200D30D468C4200D80C4607
:10213000012F59D17045CDD1BAE008980090002FF9
:1021400072D1009902221C31029805F018F800287B
:102150001ED100982030C17802988078814217D132
:10216000012808D10098029902220830C91C05F004
:1021700006F800281AD002988078022808D1009822
:10218000029910220830C91C04F0F9FF00280DD074
:102190000098808BA84200D80546A04200D2204675
:1021A000044602988078012826D003E002988078BF
:1021B000012805D013360798B6B201281ED021E0B9
:1021C00000984A490089884216D18A9800F0F6FEA4
:1021D0000146009800F0D2FD0099098C484300990F
:1021E00089694018022200E038E00299491D04F094
:1021F000CAFF01200790D4E7761DDCE7B61C00205B
:10220000B6B207900598864201D3012705E00AA8D7
:102210008119022201A804F0B6FF039A009908323E
:1022200009980968944630E01AE086466A46938821
:1022300020300DE08A8B9A4203D3012F0ED19A42AF
:102240000CD9AA4200D81546A24200D31446096808
:102250008142EFD1049800282AD102E001200490A5
:1022600026E07046006860450FD0028D016A9A42F0
:1022700003D3012F09D19A4207D9954200D31546BD
:10228000944200D81446012FE8D16045CDD10FE02B
:102290000298C078022805D102980079292801D136
:1022A000B61CB6B2761D0598B6B2864200D3012799
:1022B0000598811B042902D3864200D293E6049834
:1022C0000028FBD1A54203D906987FB00CB0F0BD21
:1022D000224629468A9803F06DF90690F5E700003A
:1022E000FFFF00007C0300202C07000002290000F3
:1022F00070B515460C46064606F0BCFE20346179E2
:10230000012D09D00A0702D54207920F0FD0CA0645
:1023100025D5020709D522E0CA0702D04207920F4D
:1023200005D08A0705D5020703D4082070BD052013
:1023300070BD490707D5C00709D0E179304606F0DE
:102340000DFE5F2805D02079C00704D005E00F20DE
:1023500070BD0C2070BD022070BD002070BD8906CC
:1023600007D5C007F3D0E179304606F0F7FD5F28C6
:10237000EFD02079810701D4022D07D0410701D485
:10238000042D03D00007E8D4082DE6D1032070BD4A
:1023900010B508480649416107490723CA69120276
:1023A000120A44042243CA6100218161036110BD05
:1023B000FE7C000000E000E004ED00E010B505F058
:1023C00023F904F0E9FE0AF077FF012801D100F0BB
:1023D00004F800F047F910BD7047704700207047BF
:1023E000002101E000BF491C8142FBD3704700007F
:1023F000F3B58BB005461C2248A103A8FDF7D0FE1B
:10240000684602F06BFF09240126E406002D67D020
:102410004420694688764848017A314301724C204D
:102420006946C87520200875B22048775B2008A946
:102430000870424A906A4249030C8B420AD108AFA5
:10244000FB788F273B4008AFFB70FB784007400EBE
:102450000343FB70506A020C8A420AD16B465A7CD5
:10246000CF231A406B465A745A7C8007800E024371
:102470005A7432484038006B020C8A4209D108AACB
:10248000D17889088900D170D1788007800F014305
:10249000D1706946C87DFB2108406946C8754878F7
:1024A000897800010843122808D308A9C8780421B4
:1024B000084308A9C870C878FEF7F0FE03A80121F8
:1024C00080B209044018E060E068C003FCD46946AB
:1024D0004878897800010843122801D307F010FAE0
:1024E0001849088B0028FCD00E8317208881002013
:1024F00008610C98002806D021691020014022694B
:1025000002408A42FBD0002D02D00F4915200870EE
:102510000F490E4808600DB0F0BD0000023F0002F8
:102520003E30023C20023B4C023A400239B20234B7
:102530005B02350B0000000000002040C0070010C7
:1025400055AA0000000010480000C040CCBCECFCC4
:102550001400002000B585B00421012009F0FBF82B
:10256000010003D011A008F0A9F8FEE708F0D0FFA1
:10257000010003D019A008F0A1F802E020A008F0A3
:102580009DF804A903A80191009002AB0822002144
:10259000012008F023FE010004D021A008F08EF8ED
:1025A00005B000BD27A008F089F8F9E74572726F01
:1025B0007220696E206163695F68616C5F73657426
:1025C0005F74785F706F7765725F6C6576656C2895
:1025D0002920307825303478720A00004572726FF5
:1025E0007220696E206163695F676174745F696EF0
:1025F0006974282920307825303478720A00000068
:102600006163695F676174745F696E69742829200A
:102610002D2D3E20535543434553530D0A000000D2
:102620004572726F7220696E206163695F676170C5
:102630005F696E69742829203078253034780D0A56
:10264000000000006163695F6761705F696E6974B3
:102650002829202D2D3E20535543434553530D0A21
:1026600000000000F8B5104E30682030C57D002D08
:1026700019D0002409273F0210E0E9070BD0C01948
:10268000016B5820604308184030417D204603F01C
:1026900001FF002807D06D08641CE4B23068AC214B
:1026A000095CA142E9D8F8BD7C030020F3B581B0F4
:1026B0001322D201012101A804F0EEFC914C042266
:1026C0002060432101A804F0E7FC01252168ED0208
:1026D000491988600422432101A804F0DDFC216827
:1026E00004224919C860FF21843101A804F0D4FCF8
:1026F00021680C224919844D0861A97F01A80B317A
:1027000004F0CAFC09262168360289194865A97FA8
:10271000202201A804F0C0FC216810228919486415
:10272000A97F01A804F0B8FC2168282289198864CF
:10273000052101A804F0B0FC216830228919086540
:10274000052101A804F0A8FC2168FF228919C864AA
:102750000132012101A804F09FFC21685822891947
:10276000C865A97F01A804F097FC21682022891977
:102770000863A97F01A804F08FFC216889194863C8
:10278000AA8B012101A804F087FC0F272168FF0113
:10279000C9190860298B282201A804F07DFC0721B3
:1027A0002268090251188867698B302201A804F059
:1027B00073FC0721226809025118C8670C22012105
:1027C00001A804F069FC21680C228919C862012162
:1027D00001A804F061FC216828228919C96A88606F
:1027E000284620300090417801A804F055FC21686B
:1027F00004228919C96A896888600098417801A80B
:10280000491C04F049FC216810228919C96A8968A9
:102810004860A97F01A804F03FFC21680222C91981
:10282000C867A97F01A804F037FC21680222C919F2
:102830004865A97F01A804F02FFC21680222C9196C
:102840008865A97F01A804F027FC21680222C91924
:10285000C865A97F01A804F01FFC21680122C919DD
:102860000866A97F01A8491C04F016FC2168102203
:10287000C91988670B2101A804F00EFC0721226802
:102880000902511888610422802101A804F004FC87
:10289000216889198863029ADC204243012101A83A
:1028A000443204F0F9FB21688919C863029AD820E0
:1028B0004243012101A82C3204F0EEFB2168F022F2
:1028C00089190864012101A804F0E6FB0F4C7C2261
:1028D0002060A97F01A804F0DFFB21680822C867F7
:1028E000032101A804F0D8FB216828228031086068
:1028F000012101A804F0D0FB2168803148600198D3
:10290000FEBD00007C030020500400208003002056
:10291000704710B5C001000C00F0E8F9002010BDB0
:10292000FEB572B63F4D0823286801464030C27993
:102930001A43C27162B6002001276C46FF02820072
:102940005218D219526952884300401CC0B2E25258
:102950000328F4D372B6C81900210668016062B674
:10296000F00702D000200BF0F1F8B00702D50120EB
:102970000BF0ECF8700702D502200BF0E7F83007F7
:1029800002D503200BF0E2F8002623E00D281AD22E
:10299000211D254A8000125820469047002812D059
:1029A00072B62868F7224030C1791140C17162B611
:1029B00030E03A2807D21C49231D8000E8390A5824
:1029C000194620469047029829684018C019406966
:1029D0002188018071006846415AB00002902A683F
:1029E0008018C01940690288920892001418028861
:1029F00008348A420ED0A27891070BD09107890F34
:102A0000012901D104460834A0788008C006E07886
:102A1000CFD5BBE7761CF6B2032EDBD30AF084FFDA
:102A2000FEBD00007C030020B428051070B50AF03C
:102A300095FF104C01252068ED0240198068402167
:102A40000AF0ACFC216849194861C86840210AF0C5
:102A5000A5FC2168491988610869FF2181310AF0C4
:102A60009DFC216808224B19D8610021184604F00A
:102A70008EFB70BD7C030020FEB506462948144637
:102A80000068294A8518C888032806D023460022F2
:102A900002210420FEF728F842E0896802226846F5
:102AA0000D3104F070FB326990052ED46846018820
:102AB000172903D35C20405B172801D2172002E0BE
:102AC000814200D208467080012040020243022069
:102AD0003261019013483721006849014118378855
:102AE000097B7688012349070FD5D90208304018A1
:102AF00024224069022108F0E5FA002805D08780E9
:102B0000C6800146019808F0C9FAA068032606733A
:102B1000A068294602225C310D3004F034FBE680C7
:102B20000020FEBD7C0300202C070000F7B590B00C
:102B300000206A460D9090826A4A6B4B12680446E8
:102B4000D218CB88022B08D0002218210420129B17
:102B5000FDF7CAFF002013B0F0BD8B6800205E7B3C
:102B60000A900B90888830320192099000270198D2
:102B700008F046FE054620E028680890A9880998D4
:102B8000814219D1A968022207A80D3104F0FBFA8D
:102B9000002F01D16846878B6846808B87420BD116
:102BA0002946019808F079FE002028600A9800283C
:102BB00011D00B9805600B95089D002DDCD1002FDE
:102BC000D4D1129819218068017301211298012E25
:102BD000C18002D081E00A95EDE702A90AA8FDF7BD
:102BE000B0FF002879D069460A891821129BFDF7A9
:102BF0007BFF002671E081680546022202A80D31A4
:102C000004F0C1FA012E66D16846008901F0ECFBA0
:102C1000014668460EAA008902F078FA0E9C1099C7
:102C2000204600F0ABF80D9055E02F68012E3FD103
:102C3000002F06D0B968022205A80D3104F0A3FACE
:102C400002E0002069468882A968022204A80F31A8
:102C500004F099FAE8880D99401F80B20090208C0A
:102C6000A269484369461018098A009A4318092145
:102C7000284604F001FB2220005D012804D16846AB
:102C8000018A00980818E08368460189808A814299
:102C90000ED0208C0D99A269484310180021019094
:102CA00000911098E38B0188A28B022008F0A8FB0A
:102CB0000A9908680A90002008600A99002900D142
:102CC0000B900121284604F073FB69460889898A24
:102CD000884202D13D46002DA7D10A9800288AD10A
:102CE00039E700007C0300202C07000000B50849EC
:102CF0000968084A914209D14006010C06483F2262
:102D0000028181611121018000F030F800BD0000D6
:102D100014000020CCBCECFC000010400349098AE0
:102D2000014201D001207047002070470000104090
:102D300000B5094A1268094B9A420BD1084A3F2351
:102D40001381800890610648403001603320108074
:102D500000F00CF800BD000014000020CCBCECFC1E
:102D60000000104000787047006870470248018AF0
:102D7000C907FCD0704700000000104030B5024683
:102D800023239B5C0020012B1AD112890D4B9A4200
:102D900016D10D4A092312681B02D318A0325B6BAF
:102DA000127B0AE045010C885D5B24052D05240D8E
:102DB0002D0DAC4204D0401CC0B28242F2D800209B
:102DC00030BD0000022900007C030020F7B57848E0
:102DD0000F460068774988B04418F888072804D25D
:102DE0000022062104200A9B2AE0B96802226846D4
:102DF0000D3104F0C8F9B968022201A80F3104F0BE
:102E0000C2F9B968022204A8113104F0BCF9F888AB
:102E1000C01F80B2039068460288808882420CD826
:102E2000002A0AD00898002142880A9804F0F8FB8A
:102E3000002808D045200BB0F0BD062101200A9BD8
:102E4000FDF752FEABE00A98072180680834017351
:102E50000121684601810594008801F0C5FA05004A
:102E60007CD086E06846008A0522D202904202D0D9
:102E7000521C904226D168460088814278D3294668
:102E80000B2208313846039B04F08CFA69466A8DA0
:102E9000098A8A426CD10399022901D0102967D18D
:102EA000002865D12A462846296A283220308142E6
:102EB00002D06B6A1C3300E0134602A90A98FDF7A2
:102EC00026FE55E02E462C6A2036B4424ED14FE005
:102ED0006946A08B0988884247D369468988884219
:102EE00057D82320005D01283FD120460899FFF7DD
:102EF00045FF218CA269414351180B223846039BA0
:102F000004F050FA06900898012200882146000536
:102F1000000DFEF748F801466A462089128A904261
:102F200023D1002921D1E28B03998A421DD1069930
:102F300000291AD108996A4649881289891A0429F0
:102F400027D322461C491C32884208D12068B0424F
:102F500005D00089884202D02468F7E719E02346AB
:102F60001C3302A90A98FDF7D2FD2468B442AFD100
:102F70002D68059885420CD06846298D808881424D
:102F800007D808986A4640881289801A042800D316
:102F900068E768460089012803D90A99C88000209B
:102FA00049E76846028806210A200A9B48E7000094
:102FB0007C0300202C0700000328000010B50D49F9
:102FC00000050B680921090259184A6B0021000D00
:102FD000A0331B7B0AE04C01145B2405240D8442C2
:102FE00002D14801801810BD491CC9B28B42F2D8E9
:102FF000002010BD7C030020FFB589B000240546E9
:103000000794D0881646052804D0002204210846DB
:103010000C9B20E0B168022208A80D3104F0B3F83F
:10302000B168022268460F3104F0ADF86846028CA0
:10303000008882420CD8002A0AD00A9800214288CF
:103040000C9804F0EDFA002808D045200DB0F0BD32
:10305000042101200C9BFDF747FDB9E06846008C78
:1030600001F0C2F9060076D008350495049886422E
:1030700072D06946308D098C884230D36946098800
:1030800088422CD8002C0AD1012107910C980521E7
:103090008068022401730C980799806841730A982C
:1030A0004088001B042857D30798012854D1201DBD
:1030B00081B23346283302220C9804F0CDF9A01DCA
:1030C00081B233462A330222A41C0C9804F0C4F9BE
:1030D0006946A41C308D0988A4B2884274D0374652
:1030E000356A2037BD42C1D060E06946A88B098CA3
:1030F00088425AD369460988884265D8002C36D060
:103100002320415D0798814260D10A984088001BC6
:10311000042802D30799012904D0122856D307980E
:10312000022853D1201D81B22B461C3302220C9859
:1031300004F092F9A41C0798A4B201280DD0201D18
:1031400081B22B46083310220C9804F085F92046F2
:10315000103084B229E03DE036E0201D81B22B46DC
:10316000083302220C9804F077F9A01CF1E7232021
:10317000415D07910C9805218068022201730C982B
:103180000799806841730C98294680681C310E307D
:1031900003F0F9FF079901290CD02B4608331022C0
:1031A00008210C9804F058F914242D68BD429CD1D4
:1031B00036685BE70C982946806802220831103097
:1031C00003F0E1FF0624F0E7002C03D00C98C48044
:1031D00000203BE76846028C04210A200C9B3AE75A
:1031E000064909220968120289188008496B4001C2
:1031F00008180188002900D1002070477C030020B6
:1032000070B50C460B4E81000B4832680D18012337
:103210002032D37721462846FFF78AFD286800210F
:10322000844201D1084600E0FB2032682032D17789
:1032300070BD00007C0300200000041000B542288F
:103240003DD00DDC3038030007F06CFA1225272939
:103250002B2D2F313335371A1A1A1A1A1A1A191A2E
:1032600062282CD00DDC45282FD004DC432828D040
:10327000442805D127E046280BD0612800D10A2038
:1032800000BD63281DD064281DD065281DD0662888
:10329000F6D10F2000BD002000BD012000BD02209E
:1032A00000BD032000BD042000BD052000BD062098
:1032B00000BD072000BD082000BD092000BD0B2077
:1032C00000BD0C2000BD0D2000BD0E2000BD000083
:1032D00038B5184A14682246BA32AE34A378DD07EE
:1032E00001D001290AD05B070CD501290AD0217928
:1032F00049070BD5E17A002905D007E0E078802165
:103300000843E07038BD0121E17250802079410608
:10331000090FF7D0782108406946087000204870EE
:103320006A460221422007F0CDFF2079872108401C
:10333000207138BD7C03002070470000FFB50C46AB
:1033400078A103C995B001910090002108A80173EC
:103350000321C90268464186012108A8734E017401
:1033600035681746AE3502F091F8002808D170494B
:103370003068401801F06EFFA878002802D046207F
:1033800019B0F0BD0BA8159900F0B2FA0028F7D1DA
:10339000072010A90871012C05D0022C0AD0002C9E
:1033A0000ED04220ECE708A8017B1020014308A8BA
:1033B000017305E011A90BA800F0A9FA0028DFD1DC
:1033C00010A8027901230CA9284600F047FF002825
:1033D0007ED102222946189803F0D5FE2988684636
:1033E00081811521490201820784012686734E21BD
:1033F00008A881700024C47006710721417186718C
:1034000003A902A800F0E0FC002861D1022202A971
:103410001E9803F0B8FE082F02D26846478502E0E6
:1034200008206946488569460C850B4628880AAA03
:10343000098901F051FC00286DD13E49684601829E
:103440000227078408A8847103A902A800F0BCFC25
:10345000002860D1022202A91F9803F094FE68465A
:103460000470694644704F850B4628880AAA09896A
:1034700001F032FC00284ED108A8007BC00723D001
:103480002C496846C91C01820821018408A887705C
:10349000047103A902A800F097FC00283BD1FF218A
:1034A0006846C1718171C170817041700170447151
:1034B00004716946082048850B4628880AAA0989AC
:1034C00001F00AFC002826D108A8007B800600E055
:1034D00021E022D52988684681811649A5310182DB
:1034E0000684867308A88770C4700471072141712F
:1034F000847103A902A800F067FC00280BD169467B
:103500000E700C854E850B4628880AAA098901F0A1
:10351000E3FB002801D0472032E708A8007BA87011
:1035200000202DE7626C75656E7267217C030020B8
:10353000EF060000012A0000034800210068AE30B9
:10354000C1708170704700007C03002038B50246CE
:10355000174801240068AE30022A1FD0052A03D084
:10356000072A07D00B2A20D1084609794088FFF79F
:10357000AFFE1AE000790024020600D5012482077C
:1035800003D1C20601D480060FD5084600216A4641
:103590001170694607F060F8044606E08178490733
:1035A00003D50179FB2211400171204638BD00008E
:1035B0007C03002010B509480468AE34E078800729
:1035C0000BD5002002F0A6FC022007F021FEE078D7
:1035D00001210843FD210840E07010BD7C0300205C
:1035E0000FB410B5079C01282DD168468089174972
:1035F000884210D103A80FC800F0AEF900281DD1F1
:1036000005F072F9FA281ED001281CD92078F32180
:103610000840207017E00D49491C884208D0C91E97
:10362000884205D0491C884202D0C91C88420AD170
:1036300003AC0FCC00F090F9002800D0632010BC40
:1036400008BC04B018470020F9E70000022A000077
:10365000FFB5074673480D4604688FB0AE34A178B5
:103660001E46C80602D5E078C0067DD4880607D578
:10367000E0788006800F03D0022F01D0002E73D097
:103680008806800F06D0022F08D0032F06D0002E08
:103690006AD003E0012F01D0002FF8D1880603D4AF
:1036A000002D01D0012D5FD1002E06D13020014028
:1036B000384602F00DFB002856D111990020087001
:1036C000A17889068A0F7DD00CA908A802F094FD84
:1036D00007900DA90AA802F0BBFD069007980028E4
:1036E00002D00698002801D1012E58D1022F04A83B
:1036F00007D001F033FD002E3CD00798002803D0FE
:1037000012E005F09AFEF6E7464F47483B6806226E
:1037100008A9181803F033FD0028386808D0403095
:10372000417E4908490041760698002805D014E0FA
:103730004030417E01221143F5E73A4F3A483B6859
:1037400006220AA9181803F01AFD002838680CD0C0
:103750004030417EFD22114041760798002809D073
:103760000698002806D01AE043E04030417E02224D
:103770001143F1E72B48062203682B4804A91818C7
:1037800003F001FD052069460873002E02D10846AA
:1037900006F0C8FB25480290684606F077FBA07843
:1037A000800611D51198032101702079C10603D537
:1037B000002D01D0022D1CD1800605D5012D03D08E
:1037C000032D00E018E014D1A078C00627D5119988
:1037D000012008702079C10601D5002D09D181068C
:1037E00001D5012D05D1000619D5002D17D0012DC9
:1037F00015D0422013B0F0BD012F01D1002E03D00F
:10380000890F314309D00AE00648062203680648BA
:10381000611D181803F0B7FC0120119908700020F1
:10382000E8E700007C030020EF060000A0BB0D00CD
:103830003EB509F07DFE044609F006FF082C01D1D3
:10384000082813D00A480B49006806224118684628
:1038500003F099FC68464079400601D5022000E05B
:103860000320012302AA0021FFF7F2FE3EBD000063
:103870007C030020EF0600001FB50E480468AE343C
:10388000E078010612D5A178C9070CD0800708D5C9
:10389000042069460873684606F044FB022007F0DE
:1038A000B7FC0020E0704006400EE07000F02EF8FB
:1038B0001FBD00007C030020F0B58DB00C4616A99A
:1038C000E0C90021089109910A910B911599049181
:1038D00005A9E0C112A962C90093019113460146EE
:1038E000039602952246012007F0C4F80DB0F0BD02
:1038F0000A07920F01D0422070478A07FBD0027856
:103900008907890F0A4302700020704770474220E0
:103910007047000010B50446022000F051F80D4831
:1039200000210268092000021018A032436B107BAE
:1039300005E04A019A5A002A04D0491CC9B28842BB
:10394000F7D810BD48011C52C018026904210A436F
:10395000026110BD7C0300201FB582B0002401F07D
:1039600041FC694601F0E2FB009A6846116A008951
:10397000203209E023235B5C012B04D10B898342B5
:1039800001D1641CE4B209689142F3D1204606B02B
:1039900010BD000010B504460146042002F02AF8CC
:1039A000002808D0044805490068401821463C30EA
:1039B00007F056FF432010BD7C0300202C070000B9
:1039C00004490A683B21490151180A7D02430A75DE
:1039D000704700007C03002000B51138C0B2FFF72B
:1039E000FFFB002804D00122016952051143016147
:1039F00000BD0121890788627047012292070029D2
:103A0000D16901D0014300E08143D16170470CC806
:103A1000012189070838012B0B690BD093430B61F7
:103A20008268012A08D0002A0AD04A690068024345
:103A30004A6170471343F2E78A6903681A4302E058
:103A40008A6903689A438A614A6900688243EFE79A
:103A500001218907496A014201D0012070470020F5
:103A60007047000010B5012464022046FFF7F0FF04
:103A700001280AD1204600F0C7F8012805D12046C8
:103A8000FFF7B7FF1EA006F019FE0124A40220468E
:103A9000FFF7DEFF01280AD1204600F0B5F8012823
:103AA00005D12046FFF7A5FF18A006F007FE012468
:103AB00024032046FFF7CCFF01280DD1204600F05B
:103AC000A3F8012808D12046FFF793FF12490120EF
:103AD000087012A006F0F2FD012464032046FFF7EF
:103AE000B7FF01280AD1204600F08EF8012805D141
:103AF0002046FFF77EFF0CA006F0E0FD10BD0000A1
:103B0000494E2049525120310A000000494E2049B7
:103B1000525120320A00000014030020494E20496F
:103B2000525120330A000000494E2049525120349E
:103B30000A000000F0B5027901239B070168002A02
:103B400002D0062A03D006E05C688C4302E05C6881
:103B500000220C435C6000210F240568CD40ED0776
:103B6000ED0F37D0082909D2DE6A8D002746AF4015
:103B7000BE431746AF403E43DE622BE00D46083D94
:103B8000082D0AD28D002646203D1F6BAE40B7435C
:103B90001646AE4037431F631CE00D46103D082D0E
:103BA0000AD28D002646403D5F6BAE40B7431646B5
:103BB000AE4037435F630DE017290BD9114E8D00DE
:103BC0002746603D368BAF40BE431746AF400D4D94
:103BD0003E432E83491CC9B21A29BED3417901291B
:103BE000D968026809D09143D9608179012999681F
:103BF000006804D081439960F0BD1143F4E70143AC
:103C0000F9E700002000004001218907096801420E
:103C100001D0012070470020704700000149086072
:103C2000704700004000004001218907C8637047C9
:103C3000002101600171817141717047012902D039
:103C400003490860704701218907C8637047000075
:103C50004000004003480068AE3080788006800F46
:103C6000704700007C030020F3B597B00D884888AA
:103C70000590081D1DC80DAE1DC68C8ACE8A087E13
:103C80001390C8692031019008780090487804901A
:103C900088780390C87802900F7900F04BFD0028D7
:103CA00017D10120400284425FD8B4425DD8002F72
:103CB00001D1B44259D114A9284601F037FA00289D
:103CC00006D115AA1499059801F020FA002802D00F
:103CD000602019B0F0BD149D11A92846183002F0DB
:103CE0006DFF10A88088002810D0284612A9203027
:103CF00002F064FF10A8838800892A8D1818696A69
:103D000010188A8B904203D16120E2E74820E0E757
:103D100015982C4B02899A4227D12322125C012A42
:103D200023D1006800681690139801281FD16846B7
:103D3000808E29221202801A030006F0F3FC06048A
:103D4000180404070A18022C0FD110E0072C0CD11C
:103D50000DE0042C09D3E00707D1012F07D1A642BB
:103D600003D3042E01D3F00701D04220B1E702981B
:103D70000B90039B049A0A9309920098019A0C975E
:103D800008900696059407920DA81DC8019002A8F8
:103D90001CC013980B4600902A461699179800F0FD
:103DA000B1F9002895D168460649808EFF318842D6
:103DB00005D01798018800200A4601F0FBFB00207F
:103DC00087E7000003280000F3B5A5B008881A9023
:103DD00088780C4611901022091D13A8FCF7E0F911
:103DE000A08A1090A17D68460172E07D0F90207E30
:103DF0002090677EA07E1F9000200646014612900C
:103E000020A801810F20BB4C2390BB49206840189B
:103E1000199000F08FFC00280BD101211098490265
:103E200088425FD821A91A9801F080F9002802D0B1
:103E3000602027B0F0BD2198179001F0D3F91A99AE
:103E400088420CD102A801901698009013AD0ECDB7
:103E50001198FFF7C5FB002801D06320E9E7684609
:103E6000017A8806800F05D0012012902068A030CA
:103E7000007B4600C80703D01298401CB61C129065
:103E8000080603D51298401CB61C129017980DA96D
:103E900018301D9002F092FE6846129C808EA41C81
:103EA000A04237D317980EA92030019002F086FE69
:103EB0006846018F00290DD01798179A6B46406A03
:103EC0009B8E128D5918808B5118081AA04201D26E
:103ED0006120AEE71798846911982568012803D0FE
:103EE000022803D04220A4E7052000E01320E0834D
:103EF0002A4639460F98FEF748F8422899D0199F6C
:103F0000E28B4037788B398B411A10981018801942
:103F1000814201DA48208CE70EA9019802F04EFE9A
:103F20006846008F0028179802D0406A808B00E016
:103F3000008D2599401C0880259801210088A083C8
:103F4000259802220088401CA8836C4820812046C6
:103F500020301790C1700021817081711998398BC0
:103F6000406D40186946A061097A0170A069294630
:103F70001C31401C03F007F911980128A0697DD07D
:103F8000102213A9C01C03F0FEF82846102213A922
:103F9000083003F0F8F8388B133038832E4620367B
:103FA0001198F0701098E8831F98B07010982084D2
:103FB000109828841998398B406D4018A861002109
:103FC000109A03F0E4F8398B109808183883179981
:103FD0000120087117990020487130716846007AF5
:103FE000810701D50121317101070227002902DA79
:103FF000317939433171410703D5317904221143B5
:104000003171400603D530790821084330710F988B
:1040100070712098B07121461D9802F0F8FD21467C
:10402000019802F0D5FD29461D9802F0F0FD2946C1
:10403000019802F0CDFD1298002841D068461A99E7
:104040008181A18BC18107844784012408A8047160
:1040500022A80A9008A88473239941730F993820E5
:10406000014008A801730721C17300250574684643
:10407000007AC00708D02248694600E02BE0088299
:1040800003A924A8FFF7F0FD6846007A8006800F98
:1040900007D01B486946401E088203A924A8FFF7E1
:1040A000E3FD6846007A00060AD529210902684620
:1040B000018208A84473057303A924A8FFF7D4FD5F
:1040C000259801881298401C081882B2002001F03F
:1040D00071FA0020ADE6022213A9C01C03F053F8C8
:1040E0002846022213A9083003F04DF8388B401DF2
:1040F00053E700007C0300202C0700000328000089
:1041000003290000FFB55248524A006887B0821860
:10411000069210AA109B0126169F9288012B04D1AB
:104120004D4B9A4201D1A030067B069D3446403566
:10413000688B2B8B7C43C31A099820300390A342D1
:1041400022DA48200BB0F0BD2320405C012819D1B1
:1041500008896C46208098420CD03F4C641EA042D7
:1041600008D0641CA04205D0641CA04202D0A41C4C
:10417000A04207D1384CFF3CA04201D0904201D16F
:104180006220DFE7096801E029231B0203988142CE
:10419000DAD109981B99846918982246FDF7F5FE33
:1041A0004228CFD01C98012804D11598874201D20B
:1041B0004220C7E71598E083204620301C990590DF
:1041C000817027840A98808B401CA0831098012856
:1041D00014D02046102211A9083002F0D4FF05990E
:1041E0001098C8700698298B406D4018A061298BE3
:1041F000384670430818288300250FE011A80FC81F
:1042000008340FC4183CEAE72846A1697843081827
:10421000159A179902F0B7FF6D1CEDB2B542F3D3B2
:1042200005991898487105991998087105991A986F
:10423000887109982146183002F0E9FC214603985C
:1042400002F0C6FC0798A18B018000207AE70000ED
:104250007C0300202C07000002290000FFB58FB06E
:1042600014460E78102205A8891CFBF799FF4F48C9
:104270004F490068451800F05DFA00281ED1002C57
:1042800057D0012E09D16846808A4A49884204D114
:104290002846A968083081424BD128461030296948
:1042A0000390814209D00AA9284602F087FC68469B
:1042B000018D601E0D90814202D2482013B0F0BDE6
:1042C000284608300CA9049002F078FC6846008E5D
:1042D000002814D0EF680AA93846183002F06EFCA6
:1042E000384620300CA902F069FC6846398D008DF3
:1042F00009186846008E401C081887B200E00127A4
:1043000001200004C01BA04201D26120D6E72C6925
:10431000286801901298012802D0022803D008E0F2
:104320000520C00200E024486085012E03D0022E43
:1043300005D04220C2E720460830022202E0204693
:104340000830102205A902F01EFF20463146203019
:10435000064601730F98214607802785039802F0CF
:1043600056FC2146049802F033FC27461837E761D3
:104370006662A76126620D9884B20BE02846019917
:1043800002F045FC3846019902F022FC2868641EC0
:10439000A4B20190002CF1D10F9801880D98081853
:1043A00082B2002001F006F9002087E77C0300209C
:1043B0002C070000011800000128000002460848F0
:1043C0000849006841188868083103E0038D93426A
:1043D00002D200688842F9D1884200D1002070479B
:1043E0007C0300202C070000034610B50E480F493F
:1043F000006841188868083103E0148D9C4203D896
:10440000104602688A42F8D18A420CD1018D994245
:1044100009D20146026A20318A4203D0416A898B5F
:10442000994200D2002010BD7C0300202C07000020
:10443000024610B50B481205016809200002081851
:10444000436B0020120DA031097B07E044011C5B87
:104450002405240D944203D0401CC0B28142F5D8FB
:1044600010BD00007C030020F7B5054617460198F3
:1044700007F0C6F92E050446360D0CE0A088256825
:10448000B04207D12146019807F007FA3946204685
:1044900002F08EFF2C46002CF0D1FEBDF0B58BB0A3
:1044A00000206349029063480A68141872B61046E7
:1044B0004030C57902231D43C57162B6254640359B
:1044C000287AC0077DD00920000210180026476B0B
:1044D00049E071017A5A002A43D0C9190691096945
:1044E0004A021ED48A0226D502210491069901238C
:1044F00009880905090D0391372149014118097BF4
:1045000089070ED5D90208304018232240690221BC
:1045100006F0D8FD010004D0039A8A80049806F0C2
:10452000BDFD069800880090069800F085F8009878
:1045300004F092FD15E0480713D5069800880005A1
:10454000000D04F01BFD002805D106980088000529
:10455000000DFDF727FD069904200969814306989F
:104560000161761CF6B23248AC210068095CB142A8
:10457000AFD803F015FA20462430064607F086F936
:10458000012802D0012003F00FF92046183007F06F
:104590007DF9012802D0002003F006F93C342046C2
:1045A00007F074F901280FD002A9204607F097F907
:1045B0000420029901F01EFA0028F0D0204602994A
:1045C00000E032E007F039F9287A00062DD53046B0
:1045D00007F05CF9012828D1002002F069FEA98BC0
:1045E00023314909491CC9B2FBF7C4FD00281CD07E
:1045F0000F4D044628680123D9020830401842268E
:1046000038224069314606F05DFD01000DD00022E0
:104610008A80CC80304606F041FD3B212A68490162
:1046200051180A7D802082430A750BB0F0BD00004E
:104630007C0300202C070000F0B504463B483C49B1
:10464000006885B04518218A890419D50221049192
:10465000372149014118897B412627880123C90751
:104660000ED0D9020830401831224069022106F0EC
:1046700029FD010004D08F808E71049806F00EFD94
:104680002946208801221831FFF7EEFE29462088AE
:1046900001223031FFF7E8FE29462088012224312B
:1046A000FFF7E2FE2946208800223C31FFF7DCFEBE
:1046B00020880005000DFFF7BBFE8500294611315B
:1046C0006846017305F02EFC2946123168460173D5
:1046D00005F028FC294613316846017305F022FCD9
:1046E00068461435057305F01DFC208800F03CFA7F
:1046F000208801050D48090D026825208001101849
:10470000028B914201D100210183E069002802D08F
:10471000012102F04DFE202200212046A56802F072
:1047200036FD1720A560608005B0F0BD7C03002039
:104730002C07000010B50B480B49006844184034A2
:10474000207AC00709D0002002F0B2FD217A890743
:1047500001D5002803D0002010BD472010BD6420E3
:1047600010BD00007C0300202C070000F0B55FA006
:1047700099B000685E4915905E4A0868841809225D
:1047800012028218526B2546403514922A7AD207BB
:1047900002D0622019B0F0BDAA8B01235B029A42BD
:1047A00001D9AB8303E0172A01D21722AA83149AF6
:1047B000A0301392067B0DE0761EF6B213987101BD
:1047C0000F18B8680F9038462022002102F0DFFC55
:1047D0000F98B860002EEFD120460830E06064608A
:1047E000A06024600830139060612061FF220021E6
:1047F000083007F01AF82046FF220021243007F085
:1048000014F82046AA7F0021303007F00EF8204629
:10481000FF2200213C3007F008F800222A721046DF
:104820001721334B05E0149E4701BE19401C7180CF
:10483000C0B21E68A036367B8642F4D8002028839A
:104840002F8C688C0026149008E02820E16C7043BF
:104850000918204602F0BCF9761CB6B2BE42F4D369
:10486000002608E03020216D70430918139802F0EB
:10487000AFF9761CB6B214988642F3D30120FFF745
:104880009FF80124684604701B4941802346042296
:1048900069460CA8FFF7E2FC002822D16846018E89
:1048A000818216490183042606858475202108A883
:1048B00081720024C472047307214173847305A9B3
:1048C0000DA8FFF781FA00280BD1684604874687B8
:1048D000818E15AB0EAA008E00F0FEF9002800D1E3
:1048E00058E700202872472054E700000000FFFF2F
:1048F0007C0300202C07000001180000052A00009E
:10490000F8B5044683480E46006883494718482096
:10491000C05DC0076FD0B088FEF750FB0546012C84
:1049200002D0002C68D0F3E0002D04D028694107A4
:1049300003D54520F8BD0121C7E0B268F188147B9A
:104940000029F0D062060AD568888842F3D3D22CB9
:1049500001D0522CEFD138463146183048E0A1063C
:10496000890E1E2949D81E2C20D101071ED50821E9
:10497000884328612988012005F0C8F801213046C4
:1049800002F016FD634801230068D9020830401880
:1049900042242D8839224069214606F093FB01000C
:1049A00003D08D80204606F079FBB1E0E1070BD003
:1049B0001D2C1AD01B2C18D0410533D4012189029B
:1049C0000843EE612861A3E0C00606D52B4602220B
:1049D0000321422006F090FEADE72988002005F073
:1049E00083F8296910200143296138463146243073
:1049F00006F036FF8CE015E016E029882022002022
:104A000002F07AFC05000DD00121304602F0D0FC06
:104A10002B46002221460620FCF766F82846FEF7C2
:104A2000B9FF75E04120F8BDB068047B1D2C3CD077
:104A30001B2C43D00021304602F0BAFC002D67D079
:104A4000032C46D0052C44D0072C42D0092C40D052
:104A50000B2C3ED00D2C3CD00F2C3AD0112C38D042
:104A6000132C36D0172C34D0192C32D0012C30D046
:104A7000022C35D0042C33D0062C31D0082C2FD06A
:104A80000A2C2DD00C2C2BD00E2C29D0102C27D05A
:104A9000122C25D0162C23D0182C21D0522C1FD00C
:104AA000D22C1DD01E2C2FD032E0002D03D029880F
:104AB000012005F019F83146022001E031460120BD
:104AC00004F0D0FE002823D00021304602F070FC14
:104AD0001EE029691020814329612988002015E002
:104AE0002869402188432861010511D5FF21013142
:104AF000084328612988022004F0F6FF0120296973
:104B0000C0028143296103E02988032004F0FEFFED
:104B10000020F8BD7C0300202C07000010B5104ACF
:104B2000104B1268D2184032127AD20706D00228EF
:104B30000AD0052804D00B2810D101E0412010BD77
:104B40004888FEF7E7FE09E04888FEF737FA0028B4
:104B500004D001220169920511430161002010BDBA
:104B60007C0300202C070000F1B5FFB085B0472082
:104B7000019000206946088053485449006847184E
:104B80008498FEF71BFA0290002874D0B9680837A1
:104B90004FE0684600880D4604AC20186B460222A0
:104BA00028310DF0D8FB68460088294620186B464E
:104BB00001222C310DF0CFFB2E462036307B69468A
:104BC0000128098804A809D040186B4610222946FC
:104BD00008310DF0C0FB01902C6A27E040186B46AD
:104BE0000222F4E76946098804A8401821466B466A
:104BF00002221C310DF0AFFB6946098804A8401859
:104C000021466B46012223310DF0A5FB2320005DD8
:104C100069460128098804A830D0401821466B460F
:104C2000102208310DF097FB01902468B442D9D1CD
:104C30002968B942ADD1019800281CD16846008886
:104C400081070AD0224A011D11406A4611800A1AC2
:104C500004A908180B2102F09AFA0298008804F0BF
:104C60008DF9002807D1849869460005000D04AA33
:104C7000098803F05BFE7FB006B0F0BD4018214606
:104C80006B46022208310DF066FB01902089114924
:104C90008842CAD120460299FEF770F84000A16907
:104CA00003906A460918128804A880186B460222ED
:104CB0000DF051FB0190A169039802220818002110
:104CC00002F065FAB1E700007C0300202C07000029
:104CD000FCFF000002290000F0B5074617480E4609
:104CE00000683B2149014018007D85B01D461446EF
:104CF000C00706D003A9384600F018FA00280AD1E8
:104D000002E0472005B0F0BD04AA3046039900F048
:104D1000FDF9002801D06020F4E70499228860881A
:104D20000968002A00D0088C32466E4631C603233B
:104D30003946002000F004F8E4E700007C0300207E
:104D4000FFB5002099B0239A0B901290054614905D
:104D5000064615901C46DB480B460068DA49229F40
:104D600041180391002108910991518806911188F9
:104D70000A913B2149014018007DC00706D00FA9C8
:104D8000184600F0D3F900280AD102E047201DB0F0
:104D9000F0BD10AA0F991B9800F0B8F9002801D0B7
:104DA0006020F4E71998002803D0600701D501209E
:104DB00000E000201390A007800F1C90109817901F
:104DC0002030C078012840D11798C04B0189994202
:104DD000F9D11798069904680A98228C41189142D3
:104DE00033D82046203016908078012816D0E08BEA
:104DF00004901798806900788006800F7ED0039811
:104E000040301890007A800778D51C980028F5D09B
:104E1000AE4F0F99FF372031206814E0BA4214D307
:104E2000B942DDD80497E4E70389A84A934203D145
:104E30002322125C012A08D0BB4203D12322125C38
:104E4000012A03D000688842EED134E105900028A1
:104E5000FBD09C480921026809025118496B0027C0
:104E6000009162E0780100990390085A01055AD038
:104E70001999002901D0884255D105997A008B698A
:104E8000511C595C9A5C0902891889B20D918907F5
:104E900049D002220599FCF786F8002804D0199819
:104EA000002840D0652072E7002008A9C8551C984A
:104EB000C00718D0179880690078C00613D50D98E0
:104EC000C00710D00120C8550543009A03988018E8
:104ED0004088159A904206D91590009A0398105A66
:104EE0000005000D14901C9880071CD51798806948
:104EF0000078800617D50D98800700E083E012D572
:104F00000220CA5D05430243CA5500990398401820
:104F100040881599884206D9159000990398085A37
:104F20000005000D14907F1CFFB266480068A03099
:104F3000037BBB4296D8002D65D01898007A0006F6
:104F40005FD460480168092000020818416B002006
:104F50001BE042018E5A360515D0AE070BD5561808
:104F60003669B7070DD408AF3F5CBF0703D53607D6
:104F700001D546200BE7EE0705D05218127CD20768
:104F800001D0432003E7401CC0B28342E1D815980A
:104F9000C01E86B20498864200D90646A8070FD5DF
:104FA00020220020149902F0A7F9129000287DD049
:104FB000F01C82B20021129802F02BFB002811D1C4
:104FC000E80720D020220020149902F095F90B90D8
:104FD000002807D0F01C82B200210B9802F019FBC8
:104FE000002810D08020FEF7EBFC1298002802D099
:104FF000002102F0DDF90B98002802D0002102F018
:10500000D7F96420C3E6A1690A98069A081824997A
:1050100002F0B9F816988078012801D10498E0834D
:10502000002D46D0274B0920196800020818416B53
:10503000002008AA0CE04301CF5A3F0506D05F18B4
:10504000BC463B69175C3B4367463B61401CC0B2B2
:105050001C4B1B68A0331B7B8342ECD8A8070DD5E3
:1050600012980090F01C82B221461C310220A369E4
:10507000FCF756FF0220129904F0F4FBE80718D061
:105080000B980090F61C2146B2B21C310120A36996
:10509000FCF746FF1398002805D00B988021C07CB0
:1050A00008430B99C87401200B9900E005E004F057
:1050B000D9FB00206BE6422069E68020FEF780FCE9
:1050C0009FE700007C0300202C070000032800005D
:1050D000F0B58468083015E0258D8D4203D1146049
:1050E00018600120F0BD26461C602036256A06E0C7
:1050F000AF8B8F4202D102201560F0BD2D68B54202
:10510000F6D124688442E7D10020F0BD10B50B6AC7
:10511000203106E09C8B844202D10020136010BD38
:105120001B688B42F6D1412010BD000010B5094A22
:10513000094B1268D2189368083206E01C8D84422D
:1051400002D100200B6010BD1B689342F6D14120B4
:1051500010BD00007C0300202C070000F8B5204E95
:1051600004463568AE3500F067F92070000A6070BB
:1051700000F062F9A070000AE07000F05DF9C2B2C0
:105180008004830E2271002163710846275C401C55
:105190007918C0B289B20628F8D30029E3D0207864
:1051A000FF280CD16078FF2809D1A078FF2806D10C
:1051B000E078FF2803D1FF2A01D1FF2BD3D00622AC
:1051C000691D204601F0DBFF0028CCD031680622A3
:1051D0002046783101F0D3FF0028C4D0F8BD00008C
:1051E0007C03002002480068AE3000887047000051
:1051F0007C03002010B50F4C002803D0012809D0F3
:1052000002280FD004F066FA0C21484300198038B8
:10521000406F10BD04F05EFA0C214843001980383D
:10522000806F10BD04F056FA0C21484300198038F5
:10523000C06F10BD5427051010B50449044B096810
:105240000622C91801F09FFF10BD00007C0300205A
:10525000EF06000010B5034906220968B33101F0DA
:1052600092FF10BD7C030020F7B5164600241CE019
:105270000098114900194018810801988900001907
:1052800042780578120215438278C078120400062D
:1052900002430948154340420F1829463846FDF796
:1052A00047FD3868854204D1241DB442E0D3002074
:1052B000FEBDFB20FEBD00000000FCEFF0B50E4679
:1052C0000746002407E03D1900F0B6F82870000AF0
:1052D0006870A41CE4B2B442F5D3F0BD30B5124AF4
:1052E000114C283A114BD1690906090F4170D26956
:1052F0001207120F827022680D4D01244260AA42EB
:1053000008D11A680B4B9A4201D1042200E0022214
:10531000027000E00470002900D144700649898AB7
:10532000491C8900816030BD280090401C0000109D
:1053300041A0000244A000F20000104010B5012876
:1053400018D8072916D80C4A126813462033187744
:1053500059778007C906000E090E01430020074B4C
:10536000A03204E08401E418A172401CC0B2147B96
:105370008442F7D8002010BD7C03002000010020EB
:1053800003207047074A914202DC5242914200DA00
:105390001146FF22993251430A1251180A1451182A
:1053A00008187047FFFF4F0010B50920C0060069BC
:1053B0000002000A04F0E2FD10BD704770B51C4CFD
:1053C0001B2120688901411800260E76194B4E7664
:1053D0000622FF21C01801F0DAFE372520686D0192
:1053E000401906702021417007F066FF01281CD08B
:1053F0001F2021680F4B4919887020680933072244
:105400000021C01801F0C3FE0A4B206810330522AA
:10541000FF21C01801F0BBFEDF232068DB00FF2264
:105420000021C01806F001FA70BD5F20E1E700001E
:105430007C030020DA06000000210B200007026830
:1054400052070DD5026804239A43026002680823BC
:105450001A43026004E0491C052901DD0020704761
:1054600042689207F7D54168C907FCD0806880B2CE
:10547000704710B5FFF7E0FF0446FFF7DDFF0004BB
:10548000201810BDFEE7704770470000F0B5454C8E
:10549000092526682D027019006E0027416B4248CD
:1054A000AE368DB0814242D006216846FFF706FF36
:1054B00069464879C0210843694648712068062238
:1054C0004019006E2430FFF7CFFE0746102105A8D3
:1054D000FFF7F4FE206810224019006E05A9001D98
:1054E000FFF7C2FE0743102109A8FFF7E7FE206877
:1054F00010224019006E09A91430FFF7B5FE0146CD
:10550000394313D1206829494019006E264F4018AD
:10551000800881002648081839460490FDF708FCE9
:1055200004980068B84201D1002700E0FB272268F8
:105530005019006EA63224300190062001460090DA
:10554000002008F0A4FD002802D12068A6300190B8
:10555000701D009A019901F016FE2268102631464E
:105560000020803208F093FD002807D020683246E2
:105570004119096E8030091D01F005FE226831468F
:105580000020903208F083FD002807D020683246C2
:105590004119096E9030143101F0F5FD38460DB017
:1055A000F0BD00007C030020AAAAAAAA3400FCEFE8
:1055B0000000041030B50F4B0F4D1B6804465B19FB
:1055C00040331B7A412085B09B0710D56B469981EB
:1055D000DA81002018820420588203AA04A96D46AB
:1055E00007C502231A4601212046FFF7A9FB05B093
:1055F00030BD00007C0300202C0700000246002084
:105600000146535C002B00D00120491CC9B2062979
:10561000F7D37047024800682030C07F7047000011
:105620007C03002070B50E4605460146202200206E
:1056300001F062FE040023D0284600F06BF805005C
:1056400027D02879B04224D1A87880071FD4A06839
:1056500001210173A06800214673A06802268673A9
:10566000A068C173A0680174A06841740620E0803E
:105670002146052000F0BEF9002803D0412509E0AD
:1056800064250BE0A8783043A870002506E0462585
:1056900000E042250021204601F08AFE284670BD28
:1056A0007CB514460D4600281ED1052D02D00B2DC9
:1056B00007D011E0627921796088A31D03F0C8FD4D
:1056C0000AE021461231881F019100906279217908
:1056D0006088A31D03F0D3FD21462846FFF71EFA7C
:1056E0002146284600F0B4FA7CBD70B505460C464C
:1056F000002000F00FF800280BD02905090D0180CB
:1057000000218170002C01D10821817001210171DB
:10571000C17070BD30B502460A480F230068DB0136
:105720000021C318A030047B07E0D86F0D01401999
:105730000588954204D0491CC9B28C42F5D8002096
:1057400030BD00007C03002030B50A490F230968F2
:105750000246DB010020CB18A031097B07E0DC6F9B
:10576000050164192488944203D0401CC0B28142D0
:10577000F5D830BD7C0300208068017A407A0002B1
:10578000081880B27047000070B50023134A1DE06E
:105790000F25ED0140191901C66F0024C81C3454AF
:1057A00010684019C66F081D345410684019C06F46
:1057B000445210684019C66F0846083034521068C9
:1057C0000C314019C06F5B1C4450DBB21068AC2137
:1057D000095C9942DCD8002070BD00007C030020E9
:1057E00010B5024688680C46817AC07A0002081813
:1057F00081B2E088001FE080042909D005290CD07F
:1058000006290FD00121204601F0D2FD002010BD55
:1058100021461046FFF774F808E02146104600F0D4
:105820003FF903E02146104603F01CFB0028EED0B0
:10583000E188091DE18010BDF3B581B00D46002659
:105840008888FFF767FF070056D0287B3C4608345E
:1058500000900228F86833D0002845D0E888002856
:1058600010D0218840182080284601F01BFD0146F9
:105870006068806801F0DFF90120616801F0D2FC06
:105880000020E8802088042828D36068FFF774FF90
:10589000001D218880B2814226D881421BD16168D7
:1058A000C88061680198FFF79BFF0146002000292E
:1058B0000ED06168A94201D16060208045261FE0BA
:1058C000002801D04526DDE76560E8882080D9E71B
:1058D000606020800BE0452E06D008E0452E06D102
:1058E000384600F0C7F90BE0384600F0C3F9002E47
:1058F00006D10098012803D10121284601F058FD66
:105900003046FEBD024610B50020002A05D0012A0F
:1059100002D11046FFF790FF10BD1046FFF760FF61
:1059200010BD70B50546801E0C46030004F0FAFE5B
:105930000A0C1D1D06170B0B0B0B060B0A462078D5
:105940002946FFF7ADFE70BD2846FFF7E7F86088EF
:1059500003F0CEFB2146284600F07AF970BD4A8953
:105960000888A11C03F0B4FC70BD62880978284641
:1059700003F0DEFB70BD0000F0B585B0FFF7E4FE7C
:105980001B4D04462868A030007BA0422DD920463C
:10599000323069460873684604F0C4FA0F26286856
:1059A000F6018019C26F002124011153286827468F
:1059B0008019C26FE01C115428680C378019C26F1F
:1059C000201D115428688019C06FC05900280CD0C0
:1059D000012101F0EDFC296800208919C96FC85127
:1059E00029688919C96F0834085305B0F0BD000053
:1059F0007C03002010B50C460146042805D005297B
:105A000003D0062901D0502010BDA068A2790272EF
:105A1000E088020AA0684272A0688172A068090A40
:105A2000C172E088001DE080022020732046FBF751
:105A3000B3F90028E8D0E088001FE080412010BDC5
:105A4000F8B5323801060220144D00900F26286860
:105A5000F6010C0D821937214901D26F4118C97A1C
:105A6000175B012349070DD5D902083040181E22C3
:105A70004069022105F026FB010003D08F800098C9
:105A800005F00CFB296800208919CA6F211D5054AC
:105A900029688919C96FE41C0855F8BD7C030020EA
:105AA000F0B50D468DB000210A91A96800280F7B42
:105AB00002D0012822D0C3E0A888FFF745FE624E3D
:105AC00004463068A030007BA04215D9122F08D1BF
:105AD0005E4802902046323069460873684604F0FA
