:020000041004E6
:1000000000600020CD4E04102D4804103D34041033
:10001000AA5555AA45554C420000000000000000BA
:100020000000000000000000000000001157041054
:100030000000000000000000A34C0410C95A041086
:10004000F11F0410CD480410000000000000000063
:10005000195D04101D5604101D1304107D5E04105C
:100060000000000000000000000000000000000090
:1000700000000000E70A0410413404103F3404106B
:100080000000000057440410594404105B4404105D
:100090005D440410ED4E0410E7480410D71404101A
:1000A0000000000000000000000000000000000050
:1000B0000000000000000000000000000000000040
:1000C000EFF31482EFF309811C4880F31488BFF327
:1000D0006F8FF0B543464C4655465E466746F8B4CA
:1000E000174CEFF30883236006B4164C2068164CB7
:1000F0002060164C2068164C2060164C2068164C68
:100100002060164C276800202060BFF34F8F30BF5F
:1001100027600B4C246884F3088882B003BCF8BCC9
:100120009846A146AA46B346BC46F0BC04BC80F340
:10013000098881F31488BFF36F8F10470000000017
:100140000800002004ED00E0D402002024ED00E0CF
:10015000D802002000E200E0DC020020080020407D
:100160000348854600F020FC0048004785A804109D
:100170000060002030B50B460146002020220124FB
:1001800009E00D46D5409D4205D31D469540491BCB
:100190002546954040191546521E002DF1DC30BD14
:1001A00010B5441A0346944209D28318891803E013
:1001B000491E0C785B1E1C70521EF9D210BD0C46F5
:1001C0000443A40703D009E010C9121F10C3042A76
:1001D000FAD203E00C781C70491C5B1C521EF9D249
:1001E00010BDD2B201E00270401C491EFBD2704724
:1001F0000022F6E710B513460A4604461946FFF7F3
:10020000F0FF204610BD10B5002200E0521C835CB8
:100210008C5CA34201D1002BF8D1D8B2E1B2401AD4
:1002200010BD30B504460020034600E05B1C93423D
:1002300003D2E05CCD5C401BF8D030BD0321001D33
:10024000401E037812021A43491EF9D51046704722
:10025000F8B502464A40D40F42004B0052085B08F2
:100260009A4202D20246084611464A0023D0C30DE4
:100270004A00DDB2120EAD1A202D35DA49020126F0
:10028000490AF6058A19002C00D0524220214F1B42
:100290001146B9402A411018C20D9A4221D0002CB3
:1002A00017D0012D08DCDA05801AD20F8019D20789
:1002B000DBB200F0CCFAF8BDDA05801A0123400069
:1002C0001B06C01880185A428018CA0F10434900F4
:1002D00007E04908C2071143DA05801A801940086F
:1002E000801800F0ACFAF8BD61000122511A001B21
:1002F000F7E70122D2075140AAE70122D207504076
:10030000A6E7024670B54A40D30FDB0740002DD068
:100310004A002AD0010E140E000212020919400AE6
:10032000520A8418E50104465443000A120A2E04B6
:100330005043A4194219200CC543AA18120C0125D8
:10034000AD03521C521912047F39240400D0521CF0
:10035000104301D44000491EC2B20C06C009201847
:10036000401C4008802A02D003E0002070BD4008F5
:100370004000002900DA0020184370BDF0B50746A0
:100380000846584087B0C00F049048000E465900F8
:1003900040084908BC1A884105D2384631461E46F5
:1003A00017460B4602465800400810434CD0300D0B
:1003B000039040055900400D490D0590401A0290E8
:1003C000402872DA18030121000B09050843019047
:1003D00004980092002805D00199524200208841DB
:1003E00000920190029840210A1A0199009800F0A9
:1003F00003FA05460C466B4607CB00F00DFAC01910
:100400007141039A0E0D0023D71756401A467A40C1
:10041000164344D0049A002A2DD0029A012A039A46
:1004200015DC1205C01A914101263605001C7141E8
:10043000D20F059ED2070093019202962A462346C8
:1004400000F04BFA07B0F0BD38463146FAE7160522
:10045000224A0F46B218C01AB74101210905001CF3
:100460004F4100187F41114618187941E20F10439F
:100470006D19644113E0E2076D0815436408C20773
:100480001443039A01261205C01A91413605001C37
:100490007141CE07400830434908C01851412A46EF
:1004A000234600F00DFACDE7FFE704980122400053
:1004B000C117121A00238B4104983146C417381A09
:1004C000A141EEE730B40124E407634030BC55E7B6
:1004D00030B40124E407614030BC4FE70000E0FF86
:1004E000F0B51FB488B00B990998002448400999C9
:1004F000C00F490049080991C0070B9900904900B5
:1005000049080B9109990898A64608431CD00B99F5
:100510000A98084318D0099801244000420D480069
:10052000410D099824050003000B204309900B9806
:100530000003000B20430B9050181C494018002268
:1005400001901446104605E0002001460DB0F0BDB4
:10055000032801DA034600E003239C46C11A0AAED1
:100560000AE05F0008ADED5B4F00F75B7D430027BD
:10057000AA187C41491C5B1E6145F2DD410004ABB9
:100580005A522104120C0A43240C401C0828DFDBB9
:10059000019802900099704601910090059B049A81
:1005A0000799069800F099F9D0E700000DFCFFFFCD
:1005B000F0B50C465C4085B0E40FE40703944C00B2
:1005C00000266408590094464908024602962243D0
:1005D00021D062460A431ED06200570D4A000E0326
:1005E0002303550D012402462C492405781B1B0BBF
:1005F000360B401823432643614600901C46501A90
:10060000B44103D30098401C009002E09218009877
:100610005B41002803DA0020014605B0F0BD002050
:10062000012109050746864611E064461D46141B54
:10063000B54106D36546521BB341744607430C438C
:10064000A646CD0740084908284392185B41054655
:100650000D43EAD11046184313D060461946504066
:100660007140084306D06046101AB34106D20122F9
:10067000002306E000220123DB0702E00122D2432F
:100680005310009874460105381C6141029C039D7B
:100690000019694100F014F9BFE70000FD030000F4
:1006A00070B54B005B0803430BD04B005C0D00267C
:1006B00033466542B341D417AD1AA34102DB002093
:1006C000014670BD12053018514170BD0EB5C217FC
:1006D000C10F5040CA0740180021054B02930192F8
:1006E00000910A460B4600F0F8F803B000BD000088
:1006F000330400000EB505490291002100910A461D
:100700000B46019100F0E9F803B000BD330400008E
:10071000410040020122400AD205090E80187F29BB
:1007200001DA00207047962903DC9622511AC8404E
:100730007047963988407047C20FD2074000400882
:100740000BD0C10D0723DB01C91840020905400A7F
:100750001143C2084007114370470020014670470B
:10076000CB0FDB07490010B5490802460A4307D002
:100770000A0D07240903E401090B121B002A01DCFE
:10078000002010BDC900440F0C43C100E018D20581
:10079000801800F054F810BDF0B51FB406460020D4
:1007A00082B005464024019100901BE00199224649
:1007B0000F46304600F00AF9049A059B801A9941C9
:1007C00010D310461946224600F016F8361A8F410B
:1007D0000197224601200021009F00F00DF83818F3
:1007E0004D4100902046641E0028DFDC019B0098EC
:1007F0002946324607B0F0BD10B5202A04DB014679
:10080000203A9140002010BD914020239C1A0346BD
:10081000E3401943904010BD10B5202A06DBCB17EA
:100820000846203A1041C1170B4306E00B4613411E
:10083000D0402024A21A91400843194610BD002937
:1008400004DA401C490001D140084000704770B4F0
:100850000024050C05D11024000402D1002921D068
:100860001124050E01D100020834050F01D1000149
:10087000241D850F01D18000A41C002801DB40004D
:10088000641C002908D020252E1B0D46F540A140F0
:1008900000D001212943084301061B1B000ADB1D70
:1008A00002D5002070BC7047DB051818801800299D
:1008B000F8DA401C4900F5D170BC40084000704790
:1008C00010B5002B08DA0024401C614192185B41EE
:1008D0001A4301D14008400010BDF0B51FB482B0EA
:1008E00005460C0003D0084605F064FC02E005F064
:1008F00061FC20300246009021462846FFF77CFF2D
:10090000049B059A04460F4618431143084314D02C
:10091000184610431BD0009840210A1A1846059922
:1009200000F054F805460E46009A05990498FFF722
:1009300063FF084305D0012004E02046394607B094
:10094000F0BD0020C11705430E432C4337430099E7
:100950000E986305401A7905E40A00220C43FD0A4B
:100960000A3002D500200146E9E701051019694166
:100970000C9C0D9D00196941FFF7A2FFDFE7000005
:1009800010B5002904DB0124E40740428C412146D4
:10099000002B04DB1C460123DB075242A341994292
:1009A00000D1904210BD0000064C0125064E05E026
:1009B000E36807CC2B430C3C98471034B442F7D380
:1009C000FFF7D2FB80CA041020CB041010B5202AF8
:1009D00004DB0846203AD040002110BD0B46D3402E
:1009E000D0402024A21A91400843194610BDFEB5FC
:1009F00000231A461B1A8A4103DB0020014603B07C
:100A0000F0BD4A000D0301212D0B0905520D0D43C8
:100A1000D10702D100186D41521E5110FF31FF3134
:100A20000131002704463E463846009701910246B0
:100A3000012100200905FFF7C9FFC3197141F8180A
:100A4000324684468E464A4161462846611A9041A4
:100A500004D36046241A954176461F46241900980F
:100A60006D41401C00903428E1DDF9193046704199
:100A7000091BA84103D20022D243134601E0002201
:100A8000134601980105381C7141FFF719FFB6E7BD
:100A900070B58C180578401C6B075B0F01D103788B
:100AA000401C2A1106D10278401C03E006780E7023
:100AB000401C491C5B1EF9D12B0705D40023521E94
:100AC0000DD40B70491CFAE70378401CCB1A921C1A
:100AD00003E01D780D70491C5B1C521EF9D5A14224
:100AE000D8D3002070BD70477FB5054698680122B5
:100AF00002739A681C4651739868022202A90E304C
:100B000003F0E9FEA16805200D74E0807FBD0000C0
:100B10000648002102684920400110180172417204
:100B200003218172C1720020704700008003002001
:100B300070B50D4D044601232868D902401890264F
:100B40001A464069314605F041FF010003D03046A6
:100B50004C6005F027FF4920296840010918087AF0
:100B6000401C087270BD00008003002010B50446D0
:100B700000202082A074A168A161616120602046EC
:100B800003F052FA452801D0412010BDA08803216E
:100B900007F09AFE044608F06DFB002813D072B6E9
:100BA0000A48012201680920000209184878A24079
:100BB0001043487062B600200BF078F8002802D08D
:100BC000002006F0E5FB002010BD0000800300209F
:100BD00070B5C17C0E4D4906490EC174044601230F
:100BE0002868D9024018902600224069314605F055
:100BF000EDFE010003D030464C6005F0D3FE4920E5
:100C0000296840010918487A401C487270BD0000EC
:100C100080030020F0B52BA00FC893B006AC0FC422
:100C20002CA00FC80FC42FA00FC80FC4102206A9F4
:100C3000304803F050FE304C062301222D4902209B
:100C4000009405F0F5FF00282FD12A4810220AA9A8
:100C5000103003F040FE10260027A01C0125254A75
:100C6000009603960297019704950590142310327D
:100C70000221208805F0BDFF002816D11D48102252
:100C80000EA9103003F027FE201D05900C20194AF4
:100C900002950396049501970090142310320221C7
:100CA000208805F0A6FF002805D014A005F072FAF0
:100CB000472013B0F0BDA288618819A005F06AFA38
:100CC0000020F6E7669A0C200008969EE2119EB17D
:100CD000E0F273D9669A0C200008969EE2119EB14C
:100CE000E1F273D9669A0C200008969EE2119EB13B
:100CF000E2F273D9D40300202E0300204572726FF4
:100D000072207768696C6520616464696E6720434E
:100D100068617420736572766963652E0A0000004D
:100D20004368617420536572766963652061646409
:100D300065642E0A545820436861722048616E64CD
:100D40006C6520253034582C20525820436861723D
:100D50002048616E646C6520253034580A0000001C
:100D6000F8B516460D460746002404F0CFFA0028D1
:100D700006D032462946384600F05DFB044604E0C2
:100D800020356879002802D00E242046F8BD287945
:100D9000C10701D1012E09D0810701D4022E03D051
:100DA0004007F2D4042EF0D10324EEE70224ECE74E
:100DB000F0B5064687B014460D46084605F022FBFE
:100DC00002908E488088401C864207D1002003E0B4
:100DD0000299225C0A54401CA842F9DB8749002092
:100DE000891D225C0A54401C0328FADB834884A135
:100DF000801DFFF708FA00280DD10026092181483F
:100E0000FFF7F6F903207F4903E0225C8A55401C76
:100E1000761CA842F9DB79487BA1801DFFF7F3F926
:100E200000280DD1002609217848FFF7E1F90320B9
:100E3000764903E0225C8A55401C761CA842F9DB07
:100E40006E4873A1801DFFF7DEF900280DD1002642
:100E500009217048FFF7CCF903206E4903E0225CBA
:100E60008A55401C761CA842F9DB64486AA1801DA3
:100E7000FFF7C9F900280DD1002609216748FFF7BF
:100E8000B7F90320654903E0225C8A55401C761CB3
:100E9000A842F9DB594862A1801DFFF7B4F9002888
:100EA0002FD1002604215F48FFF7A2F903206F46E7
:100EB00003E0215CB955401C761CA842F9DB0022F6
:100EC0001146B85C00F030FE0601B818407800F01A
:100ED0002BFE06435348921C4654491C0429F0DB60
:100EE0000646317805200BF0E5F9717806200BF005
:100EF000E1F9B17807200BF0DDF9F17808200BF06B
:100F0000D9F93E4848A1801DFFF77DF9002870D12E
:100F100000212E2084460F46009103206A4601914D
:100F200003E0235C5354401C491CA842F9DB052014
:100F300003900020135C634500D10646401C052841
:100F4000F8D30398851B002448E0B44221DA2846F0
:100F5000FFF7BCFB02460B460020344909F07AFE3D
:100F6000049005916846005D0007000FFFF7C2FB83
:100F7000059B049AFFF7B4FA049005913846FFF7F1
:100F8000DBFB059B049AFFF7F9F9FFF7E9FB07463E
:100F90006D1EB44221DD2846FFF798FB02460B4642
:100FA0000020224909F056FE049005916846005D34
:100FB0000007000FFFF79EFB059B049AFFF790FACE
:100FC000049005913846FFF7B7FB059B049AFFF79D
:100FD000D5F9FFF7C5FB07466D1E641C03988442D4
:100FE000B3DB384607F08CFA1149087000210AF08B
:100FF000B1FD029805F026F907B0F0BD2E030020E0
:1010000062743100EC02002062743200F5020020AC
:1010100062743300FE020020627434000703002073
:1010200061647200E80200206672710000002440D2
:10103000E00200207EB5044616460D46684602F0E2
:101040002BF96846037823704078287068468078CA
:1010500030707EBD70B500210C4A03E0535C491C22
:101060005918C9B2535C002BF8D1CE1C0224352587
:10107000202E04D2545451184D708870CB700449FE
:101080000C704D708870CB7070BD00009403002010
:101090001C00002010B5837F0122002492024168C9
:1010A000082B03D94224914202D310E0914201D28D
:1010B00042240CE001463422064803F00CFC00F008
:1010C0007FF8002801DA482401E004F0BDFF204643
:1010D00010BD0000F40300203EB5174D15482968E7
:1010E000827F0846A0310A7300246030047644767B
:1010F0008476E122C2768022027702224277302073
:1011000008704C7002AA01A96846FFF793FF684671
:101110000078A22201016846007A891C000201437E
:10112000684600790003014328681152A030047119
:101130003EBD0000F40300208003002070B504F0E1
:101140002BFD02F097FE03F08DFCFFF7E1FC02F0AF
:10115000F7FA184C18492068184D401881100920DA
:101160002A68000210184167616889088167A168D0
:101170008908C16703F0BEFF0F202968C001228BD8
:1011800008188281628BC281A28BC280628C02812C
:1011900022462032127882723B22520100208918A6
:1011A000087500F03DFE02F0E5F806F037FC00F0AF
:1011B00011FC70BDF40300200000FCEF8003002050
:1011C00070B50025ED4307F009FA01282FD0002360
:1011D00018490322888BFF24401E10438A7F513414
:1011E00062438218088B282460431218488B3024ED
:1011F000604312180846203040782C2460431018B1
:101200000D4A181884184869A0420ED11320C00155
:1012100084420AD90D6907F0E1F9C1B2284600F00D
:101220009FFA00F0CFFB401B251A284670BDFF2314
:10123000B533CDE7F403002051190000F8B52C4F69
:101240003C68206E5C34401C002814D000252948DE
:101250000023C07B00283ED00926F6062648002D34
:101260001CD000210A460B464169521C994204D108
:10127000002902D004E00125E9E7204B9A42F2D38D
:101280002160006960603069A1680002090E000AEF
:1012900009060143A16000F033F81DE03169A2683E
:1012A0000902090A150E08D0018BC90712D041693D
:1012B000216000696060E37210E0881A00027D23FB
:1012C00000121B03984205DD100E00060843A060C3
:1012D00000F016F8F8BD6360002DFBD003CC0AF0D7
:1012E0008BFCFA2009F0BEFA39688862F8BD00006C
:1012F0008003002014040020000010488813000020
:101300000449002008610448012100686030C1716F
:1013100070470000000010488003002010B503F063
:10132000C9FC10BD70B5234A002110680446403046
:101330004176017609231B02E01841700F25362003
:10134000055508461468E418E46C21541468E41840
:10135000E56C0446303429551468E418E56C0446FD
:10136000603429551468E418E56C04469034401C38
:10137000C0B229552D28E5D31268D318D86C58620D
:10138000044630341C629030D8610B48144648340F
:1013900001800921417105238371C171037242816A
:1013A00000F00CF8FF2020706070A070E0701F202B
:1013B000207170BD80030020C000002010B50648D9
:1013C00001680648406A002803D0202207F0A8F8E8
:1013D00010BD0020087010BD80030020F403002021
:1013E000F8B5069C1F4615460646002C13D0A0688B
:1013F00002220D3003F06FFAE81E82B23B4607214D
:10140000204603F0B7FBE580A068012E05D01D2122
:1014100001730020F8BD4720F8BD1B21F8E7242305
:10142000184204D0C81F092803D82032D1710020E7
:1014300070474220704770B515460C46064603F0CB
:101440004DFF20346179012D09D00A0702D54207EA
:10145000920F0FD0CA0625D5020709D522E0CA0788
:1014600002D04207920F05D08A0705D5020703D4A0
:10147000082070BD052070BD490707D5C00709D0F9
:10148000E179304603F0D0FE5F2805D02079C0070F
:1014900004D005E00F2070BD0C2070BD022070BD8F
:1014A000002070BD890607D5C007F3D0E17930462A
:1014B00003F0BAFE5F28EFD02079810701D4022D16
:1014C00007D0410701D4042D03D00007E8D4082D2C
:1014D000E6D1032070BD704700207047002101E075
:1014E00000BF491C8142FBD370470000F3B58BB0AD
:1014F00005461C2248A103A8FEF752FE684601F0EB
:10150000CBFE09240126E406002D67D0442069465D
:1015100088764848017A314301724C206946C87583
:1015200020200875B22048775B2008A90870424A3D
:10153000906A4249030C8B420AD108AFFB788F278F
:101540003B4008AFFB70FB784007400E0343FB7045
:10155000506A020C8A420AD16B465A7CCF231A4049
:101560006B465A745A7C8007800E02435A74324884
:101570004038006B020C8A4209D108AAD178890848
:101580008900D170D1788007800F0143D1706946FE
:10159000C87DFB2108406946C875487889780001F4
:1015A0000843122808D308A9C8780421084308A9C9
:1015B000C870C878FFF74EFD03A8012180B2090466
:1015C0004018E060E068C003FCD469464878897838
:1015D00000010843122801D304F0DAF91849088BF6
:1015E0000028FCD00E8317208881002008610C9809
:1015F000002806D0216910200140226902408A4259
:10160000FBD0002D02D00F49152008700F490E485D
:1016100008600DB0F0BD0000023F00023E30023C09
:1016200020023B4C023A400239B202345B02350BD5
:101630000000000000002040C007001055AA000074
:10164000000010480000C040CCBCECFC140000209E
:1016500000B585B00421012005F05EFB010003D038
:1016600011A004F097FDFEE705F007FB010003D091
:1016700019A004F08FFD02E020A004F08BFD04A966
:1016800003A80191009002AB08220021012005F07F
:1016900029FA010004D021A004F07CFD05B000BDB2
:1016A00027A004F077FDF9E74572726F7220696E2A
:1016B000206163695F68616C5F7365745F74785FF4
:1016C000706F7765725F6C6576656C28292030785D
:1016D00025303478720A00004572726F7220696E8C
:1016E000206163695F676174745F696E697428293A
:1016F00020307825303478720A0000006163695F19
:10170000676174745F696E69742829202D2D3E20ED
:10171000535543434553530D0A0000004572726F01
:101720007220696E206163695F6761705F696E69CD
:10173000742829203078253034780D0A0000000004
:101740006163695F6761705F696E69742829202D24
:101750002D3E20535543434553530D0A00000000CE
:10176000F3B581B01322D201012101A803F053F88F
:10177000914C04222060432101A803F04CF801257C
:101780002168ED02491988600422432101A803F071
:1017900042F8216804224919C860FF21843101A858
:1017A00003F039F821680C224919844D0861A97F9A
:1017B00001A80B3103F02FF8092621683602891998
:1017C0004865A97F202201A803F025F8216810228E
:1017D00089194864A97F01A803F01DF8216828220F
:1017E00089198864052101A803F015F821683022C1
:1017F00089190865052101A803F00DF82168FF2269
:101800008919C8640132012101A803F004F8216894
:1018100058228919C865A97F01A802F0FCFF216838
:10182000202289190863A97F01A802F0F4FF21682A
:1018300089194863AA8B012101A802F0ECFF0F2748
:101840002168FF01C9190860298B282201A802F02C
:10185000E2FF07212268090251188867698B30224C
:1018600001A802F0D8FF0721226809025118C867B1
:101870000C22012101A802F0CEFF21680C22891957
:10188000C862012101A802F0C6FF21682822891937
:10189000C96A8860284620300090417801A802F08B
:1018A000BAFF216804228919C96A8968886000988A
:1018B000417801A8491C02F0AEFF21681022891965
:1018C000C96A89684860A97F01A802F0A4FF21685D
:1018D0000222C919C867A97F01A802F09CFF2168EC
:1018E0000222C9194865A97F01A802F094FF216866
:1018F0000222C9198865A97F01A802F08CFF21681E
:101900000222C919C865A97F01A802F084FF2168D5
:101910000122C9190866A97F01A8491C02F07BFFB2
:1019200021681022C91988670B2101A802F073FFF2
:10193000072122680902511888610422802101A828
:1019400002F069FF216889198863029ADC2042430A
:10195000012101A8443202F05EFF21688919C863A1
:10196000029AD8204243012101A82C3202F053FFF1
:101970002168F02289190864012101A802F04BFFB7
:101980000F4C7C222060A97F01A802F044FF21684F
:101990000822C867032101A802F03DFF2168282220
:1019A00080310860012101A802F035FF21688031F3
:1019B00048600198FEBD000080030020F403002071
:1019C00084030020704710B5C001000C00F028F817
:1019D000002010BD70B507F045F9104C01252068B6
:1019E000ED0240198068402106F08AFE21684919FD
:1019F0004861C868402106F083FE21684919886162
:101A00000869FF21813106F07BFE216808224B190D
:101A1000D8610021184602F062FF70BD80030020EB
:101A200000B508490968084A914209D14006010CED
:101A300006483F22028181611121018000F030F8C7
:101A400000BD000014000020CCBCECFC00001040E5
:101A50000349098A014201D00120704700207047E4
:101A60000000104000B5094A1268094B9A420BD198
:101A7000084A3F2313818008906106484030016086
:101A80003320108000F00CF800BD0000140000208E
:101A9000CCBCECFC00001040007870470068704738
:101AA0000248018AC907FCD07047000000001040BE
:101AB00010B50D4900050B680921090259184A6B38
:101AC0000021000DA0331B7B0AE04C01145B2405B0
:101AD000240D844202D14801801810BD491CC9B2AE
:101AE0008B42F2D8002010BD8003002070B50C4658
:101AF0000B4E81000B4832680D1801232032D3773A
:101B000021462846FFF7AEFF28680021844201D114
:101B1000084600E0FB2032682032D17770BD00001B
:101B2000800300200000041000B542283DD00DDCE9
:101B30003038030004F062FB122527292B2D2F31AA
:101B40003335371A1A1A1A1A1A1A191A62282CD087
:101B50000DDC45282FD004DC432828D0442805D1AB
:101B600027E046280BD0612800D10A2000BD632859
:101B70001DD064281DD065281DD06628F6D10F2001
:101B800000BD002000BD012000BD022000BD0320DB
:101B900000BD042000BD052000BD062000BD0720BB
:101BA00000BD082000BD092000BD0B2000BD0C2099
:101BB00000BD0D2000BD0E2000BD000038B5184A44
:101BC00014682246BA32AE34A378DD0701D0012969
:101BD0000AD05B070CD501290AD0217949070BD51A
:101BE000E17A002905D007E0E07880210843E07021
:101BF00038BD0121E172508020794106090FF7D0EC
:101C00007821084069460870002048706A46022121
:101C1000422004F0B3FF207987210840207138BDAD
:101C200080030020FFB50C4678A103C995B001914F
:101C30000090002108A801730321C902684641866B
:101C4000012108A8734E017435681746AE3501F0BE
:101C5000F9FB002808D170493068401801F0D8FA23
:101C6000A878002802D0462019B0F0BD0BA815991D
:101C700000F04CF90028F7D1072010A90871012CB9
:101C800005D0022C0AD0002C0ED04220ECE708A888
:101C9000017B1020014308A8017305E011A90BA8DE
:101CA00000F042F90028DFD110A8027901230CA925
:101CB000284600F06BFD00287ED1022229461898A4
:101CC00002F009FE298868468181152149020182B6
:101CD0000784012686734E2108A881700024C470F1
:101CE000067107214171867103A902A800F004FB67
:101CF000002861D1022202A91E9802F0ECFD082FF3
:101D000002D26846478502E0082069464885694650
:101D10000C850B4628880AAA098901F01DF80028BD
:101D20006DD13E49684601820227078408A8847164
:101D300003A902A800F0E0FA002860D1022202A95B
:101D40001F9802F0C8FD68460470694644704F85CC
:101D50000B4628880AAA098900F0FEFF00284ED108
:101D600008A8007BC00723D02C496846C91C018203
:101D70000821018408A88770047103A902A800F053
:101D8000BBFA00283BD1FF216846C1718171C17047
:101D90008170417001704471047169460820488562
:101DA0000B4628880AAA098900F0D6FF002826D108
:101DB00008A8007B800600E021E022D5298868463B
:101DC00081811649A53101820684867308A887702F
:101DD000C470047107214171847103A902A800F045
:101DE0008BFA00280BD169460E700C854E850B4688
:101DF00028880AAA098900F0AFFF002801D04720EF
:101E000032E708A8007BA87000202DE7626C75659A
:101E10006E72672180030020EF060000012A000097
:101E2000034800210068AE30C17081707047000027
:101E30008003002038B50246174801240068AE3000
:101E4000022A1FD0052A03D0072A07D00B2A20D147
:101E5000084609794088FFF7B1FE1AE000790024AE
:101E6000020600D50124820703D1C20601D48006F0
:101E70000FD5084600216A461170694604F058F9EA
:101E8000044606E08178490703D50179FB22114019
:101E90000171204638BD0000800300200FB410B54A
:101EA000079C01282DD1684680891749884210D1A6
:101EB00003A80FC800F05CF800281DD103F0DAF881
:101EC000FA281ED001281CD92078F3210840207060
:101ED00017E00D49491C884208D0C91E884205D028
:101EE000491C884202D0C91C88420AD103AC0FCCDD
:101EF00000F03EF8002800D0632010BC08BC04B0FD
:101F000018470020F9E70000022A00000A07920F94
:101F100001D0422070478A07FBD002788907890FD9
:101F20000A430270002070474220704710B50446F3
:101F3000022000F051F80D4800210268092000023B
:101F40001018A032436B107B05E04A019A5A002A10
:101F500004D0491CC9B28842F7D810BD48011C52B0
:101F6000C018026904210A43026110BD80030020E9
:101F70001FB582B0002401F013F9694601F0F8F8AA
:101F8000009A6846116A0089203209E023235B5CCD
:101F9000012B04D10B89834201D1641CE4B209688E
:101FA0009142F3D1204606B010BD000010B50446A2
:101FB0000146042001F0FAFC002808D00448054935
:101FC0000068401821463C3004F004FF432010BD57
:101FD000800300202C07000004490A683B214901C6
:101FE00051180A7D02430A757047000080030020E3
:101FF00070470000F0B5027901239B070168002AB1
:1020000002D0062A03D006E05C688C4302E05C68DC
:1020100000220C435C6000210F240568CD40ED07D1
:10202000ED0F37D0082909D2DE6A8D002746AF4070
:10203000BE431746AF403E43DE622BE00D46083DEF
:10204000082D0AD28D002646203D1F6BAE40B743B7
:102050001646AE4037431F631CE00D46103D082D69
:102060000AD28D002646403D5F6BAE40B743164610
:10207000AE4037435F630DE017290BD9114E8D0039
:102080002746603D368BAF40BE431746AF400D4DEF
:102090003E432E83491CC9B21A29BED34179012976
:1020A000D968026809D09143D9608179012999687A
:1020B000006804D081439960F0BD1143F4E7014307
:1020C000F9E700002000004001688A0503D44A05B2
:1020D00001D40A051ED50379124A002B02D0062B23
:1020E00004D007E0137B490A0B4302E0137B490A43
:1020F0008B43137341790129117D03680BD05B0A6F
:102100009943117581790129117E006806D0400A32
:102110008143117670475B0A1943F2E7400A014395
:10212000F7E700000000204001218907096801420B
:1021300001D001207047002070470000014908606D
:10214000704700004000004001218907C8637047C4
:10215000002101600171817141717047012902D034
:1021600003490860704701218907C8637047000070
:1021700040000040820503D4420501D4020506D583
:10218000044A400A0129117C02D08143117470472E
:102190000143FBE700002040F3B597B00D88488865
:1021A0000590081D1DC80DAE1DC68C8ACE8A087EFE
:1021B0001390C86920310190087800904878049005
:1021C00088780390C87802900F7900F0ABFB002864
:1021D00017D10120400284425FD8B4425DD8002F5D
:1021E00001D1B44259D114A9284600F0C1FF0028FA
:1021F00006D115AA1499059800F0AAFF002802D06C
:10220000602019B0F0BD149D11A92846183002F0C5
:10221000E9F810A88088002810D0284612A920309C
:1022200002F0E0F810A8838800892A8D1818696ADE
:1022300010188A8B904203D16120E2E74820E0E742
:1022400015982C4B02899A4227D12322125C012A2D
:1022500023D1006800681690139801281FD16846A2
:10226000808E29221202801A030003F0C7FF0604A1
:10227000180404070A18022C0FD110E0072C0CD107
:102280000DE0042C09D3E00707D1012F07D1A642A6
:1022900003D3042E01D3F00701D04220B1E7029806
:1022A0000B90039B049A0A9309920098019A0C9749
:1022B00008900696059407920DA81DC8019002A8E3
:1022C0001CC013980B4600902A461699179800F0E8
:1022D000B1F9002895D168460649808EFF318842C1
:1022E00005D01798018800200A4601F03FF9002028
:1022F00087E7000003280000F3B5A5B008881A900E
:1023000088780C4611901022091D13A8FDF748FF8C
:10231000A08A1090A17D68460172E07D0F90207E1A
:102320002090677EA07E1F900020064601461290F6
:1023300020A801810F20BB4C2390BB492068401886
:10234000199000F0EFFA00280BD1012110984902F2
:1023500088425FD821A91A9800F00AFF002802D00D
:10236000602027B0F0BD2198179000F019FF1A994E
:1023700088420CD102A801901698009013AD0ECDA2
:102380001198FFF78BFD002801D06320E9E768462C
:10239000017A8806800F05D0012012902068A030B5
:1023A000007B4600C80703D01298401CB61C129050
:1023B000080603D51298401CB61C129017980DA958
:1023C00018301D9002F00EF86846129C808EA41CF6
:1023D000A04237D317980EA92030019002F002F8DE
:1023E0006846018F00290DD01798179A6B46406AEE
:1023F0009B8E128D5918808B5118081AA04201D259
:102400006120AEE71798846911982568012803D0E8
:10241000022803D04220A4E7052000E01320E08337
:102420002A4639460F98FEF7FAFF422899D0199F9D
:10243000E28B4037788B398B411A1098101880192D
:10244000814201DA48208CE70EA9019801F0CAFF09
:102450006846008F0028179802D0406A808B00E001
:10246000008D2599401C0880259801210088A083B3
:10247000259802220088401CA8836C4820812046B1
:1024800020301790C1700021817081711998398BAB
:10249000406D40186946A061097A0170A06929461B
:1024A0001C31401C02F017FA11980128A0697DD058
:1024B000102213A9C01C02F00EFA2846102213A9FC
:1024C000083002F008FA388B133038832E46203655
:1024D0001198F0701098E8831F98B07010982084BD
:1024E000109828841998398B406D4018A8610021F4
:1024F000109A02F0F4F9398B10980818388317995C
:102500000120087117990020487130716846007ADF
:10251000810701D50121317101070227002902DA63
:10252000317939433171410703D53179042211439F
:102530003171400603D530790821084330710F9876
:1025400070712098B07121461D9801F074FF2146EA
:10255000019801F051FF29461D9801F06CFF2946B2
:10256000019801F049FF1298002841D068461A9955
:102570008181A18BC18107844784012408A804714B
:1025800022A80A9008A88473239941730F993820D0
:10259000014008A801730721C1730025057468462E
:1025A000007AC00708D02248694600E02BE0088284
:1025B00003A924A8FFF7F0FD6846007A8006800F83
:1025C00007D01B486946401E088203A924A8FFF7CC
:1025D000E3FD6846007A00060AD52921090268460B
:1025E000018208A84473057303A924A8FFF7D4FD4A
:1025F000259801881298401C081882B2002000F02B
:10260000B5FF0020ADE6022213A9C01C02F063F959
:102610002846022213A9083002F05DF9388B401DCC
:1026200053E70000800300202C070000032800006F
:1026300003290000FFB55248524A006887B082184B
:10264000069210AA109B0126169F9288012B04D196
:102650004D4B9A4201D1A030067B069D3446403551
:10266000688B2B8B7C43C31A099820300390A342BC
:1026700022DA48200BB0F0BD2320405C012819D19C
:1026800008896C46208098420CD03F4C641EA042C2
:1026900008D0641CA04205D0641CA04202D0A41C37
:1026A000A04207D1384CFF3CA04201D0904201D15A
:1026B0006220DFE7096801E029231B0203988142B9
:1026C000DAD109981B99846918982246FEF7A7FE6B
:1026D0004228CFD01C98012804D11598874201D2F6
:1026E0004220C7E71598E083204620301C990590CA
:1026F000817027840A98808B401CA0831098012841
:1027000014D02046102211A9083002F0E4F80599EF
:102710001098C8700698298B406D4018A061298BCD
:10272000384670430818288300250FE011A80FC809
:1027300008340FC4183CEAE72846A1697843081812
:10274000159A179902F0C7F86D1CEDB2B542F3D394
:1027500005991898487105991998087105991A985A
:10276000887109982146183001F065FE21460398CA
:1027700001F042FE0798A18B018000207AE700005B
:10278000800300202C07000002290000FFB58FB055
:1027900014460E78102205A8891CFDF701FD4F484C
:1027A0004F490068451800F0BDF800281ED1002CE4
:1027B00057D0012E09D16846808A4A49884204D1FF
:1027C0002846A968083081424BD128461030296933
:1027D0000390814209D00AA9284601F003FE684609
:1027E000018D601E0D90814202D2482013B0F0BDD1
:1027F000284608300CA9049001F0F4FD6846008ECC
:10280000002814D0EF680AA93846183001F0EAFD14
:10281000384620300CA901F0E5FD6846398D008D61
:1028200009186846008E401C081887B200E001278E
:1028300001200004C01BA04201D26120D6E72C6910
:10284000286801901298012802D0022803D008E0DD
:102850000520C00200E024486085012E03D0022E2E
:1028600005D04220C2E720460830022202E020467E
:102870000830102205A902F02EF8204631462030FB
:10288000064601730F98214607802785039801F0BB
:10289000D2FD2146049801F0AFFD27461837E761C5
:1028A0006662A76126620D9884B20BE02846019902
:1028B00001F0C1FD3846019901F09EFD2868641EB3
:1028C000A4B20190002CF1D10F9801880D9808183E
:1028D00082B2002000F04AFE002087E7800300203B
:1028E0002C0700000118000001280000024610B566
:1028F0000B4812050168092000020818436B0020EC
:10290000120DA031097B07E044011C5B2405240D56
:10291000944203D0401CC0B28142F5D810BD0000E3
:102920008003002010B50B480B4900684418403460
:10293000207AC00709D0002002F04EF8217A8907DA
:1029400001D5002803D0002010BD472010BD642011
:1029500010BD0000800300202C070000F0B55FA030
:1029600099B000685E4915905E4A0868841809228B
:1029700012028218526B2546403514922A7AD207E9
:1029800002D0622019B0F0BDAA8B01235B029A42EB
:1029900001D9AB8303E0172A01D21722AA83149A24
:1029A000A0301392067B0DE0761EF6B213987101EB
:1029B0000F18B8680F9038462022002101F08FFFD1
:1029C0000F98B860002EEFD120460830E0606460B8
:1029D000A06024600830139060612061FF22002114
:1029E000083004F0EFF92046FF220021243004F0E3
:1029F000E9F92046AA7F0021303004F0E3F92046AF
:102A0000FF2200213C3004F0DDF900222A7210463A
:102A10001721334B05E0149E4701BE19401C7180FD
:102A2000C0B21E68A036367B8642F4D800202883C8
:102A30002F8C688C0026149008E02820E16C7043ED
:102A40000918204601F0D8FC761CB6B2BE42F4D379
:102A5000002608E03020216D70430918139801F01A
:102A6000CBFC761CB6B214988642F3D30120FFF754
:102A7000B3FA0124684604701B49418023460422AE
:102A800069460CA8FFF782FE002822D16846018E15
:102A9000818216490183042606858475202108A8B1
:102AA00081720024C472047307214173847305A9E1
:102AB0000DA8FFF721FC00280BD168460487468744
:102AC000818E15AB0EAA008E00F046F9002800D1C9
:102AD00058E700202872472054E700000000FFFF5D
:102AE000800300202C07000001180000052A0000C8
:102AF000F8B5044683480E460068834947184820C5
:102B0000C05DC0076FD0B088FEF7D2FF0546012C2C
:102B100002D0002C68D0F3E0002D04D028694107D2
:102B200003D54520F8BD0121C7E0B268F188147BC8
:102B30000029F0D062060AD568888842F3D3D22CE7
:102B400001D0522CEFD138463146183048E0A1066A
:102B5000890E1E2949D81E2C20D101071ED5082117
:102B6000884328612988012002F048FF012130466E
:102B700001F0ACFF634801230068D9020830401817
:102B800042242D8839224069214603F01FFF0100AD
:102B900003D08D80204603F005FFB1E0E1070BD0A4
:102BA0001D2C1AD01B2C18D0410533D401218902C9
:102BB0000843EE612861A3E0C00606D52B46022239
:102BC0000321422004F070F8ADE72988002002F0CC
:102BD00003FF29691020014329613846314624301A
:102BE00004F0F8F88CE015E016E029882022002097
:102BF00001F016FF05000DD00121304601F066FFFF
:102C00002B46002221460620FDF76EFF2846FFF7DF
:102C1000CDF975E04120F8BDB068047B1D2C3CD097
:102C20001B2C43D00021304601F050FF002D67D00F
:102C3000032C46D0052C44D0072C42D0092C40D080
:102C40000B2C3ED00D2C3CD00F2C3AD0112C38D070
:102C5000132C36D0172C34D0192C32D0012C30D074
:102C6000022C35D0042C33D0062C31D0082C2FD098
:102C70000A2C2DD00C2C2BD00E2C29D0102C27D088
:102C8000122C25D0162C23D0182C21D0522C1FD03A
:102C9000D22C1DD01E2C2FD032E0002D03D029883D
:102CA000012002F099FE3146022001E03146012068
:102CB00002F048FE002823D00021304601F006FF34
:102CC0001EE029691020814329612988002015E030
:102CD0002869402188432861010511D5FF21013170
:102CE000084328612988022002F076FE0120296924
:102CF000C0028143296103E02988032002F07EFE9F
:102D00000020F8BD800300202C07000010B5104AF9
:102D1000104B1268D2184032127AD20706D002281D
:102D20000AD0052804D00B2810D101E0412010BDA5
:102D30004888FFF7FBF809E04888FEF7B9FE00284D
:102D400004D001220169920511430161002010BDE8
:102D5000800300202C070000F0B5074617480E46F8
:102D600000683B2149014018007D85B01D4614468E
:102D7000C00706D003A9384600F0FAF900280AD1A6
:102D800002E0472005B0F0BD04AA3046039900F0E8
:102D9000DFF9002801D06020F4E7049922886088D8
:102DA0000968002A00D0088C32466E4631C60323DB
:102DB0003946002000F004F8E4E70000800300201A
:102DC000FFB5002099B0239A0B90129005461490FD
:102DD000064615901C46DB480B460068DA49229FE0
:102DE0004118039100210891099151880691118899
:102DF0000A913B2149014018007DC00706D00FA968
:102E0000184600F0B5F900280AD102E047201DB0AD
:102E1000F0BD10AA0F991B9800F09AF9002801D074
:102E20006020F4E71998002803D0600701D501203D
:102E300000E000201390A007800F1C9010981790BE
:102E40002030C078012840D11798C04B01899942A1
:102E5000F9D11798069904680A98228C4118914272
:102E600033D82046203016908078012816D0E08B89
:102E700004901798806900788006800F7ED00398B0
:102E800040301890007A800778D51C980028F5D03B
:102E9000AE4F0F99FF372031206814E0BA4214D3A7
:102EA000B942DDD80497E4E70389A84A934203D1E5
:102EB0002322125C012A08D0BB4203D12322125CD8
:102EC000012A03D000688842EED134E10590002841
:102ED000FBD09C480921026809025118496B002760
:102EE000009162E0780100990390085A01055AD0D8
:102EF0001999002901D0884255D105997A008B692A
:102F0000511C595C9A5C0902891889B20D91890794
:102F100049D002220599FDF723FF002804D0199813
:102F2000002840D0652072E7002008A9C8551C98E9
:102F3000C00718D0179880690078C00613D50D987F
:102F4000C00710D00120C8550543009A0398801887
:102F50004088159A904206D91590009A0398105A05
:102F60000005000D14901C9880071CD517988069E7
:102F70000078800617D50D98800700E083E012D511
:102F80000220CA5D05430243CA55009903984018C0
:102F900040881599884206D9159000990398085AD7
:102FA0000005000D14907F1CFFB266480068A03039
:102FB000037BBB4296D8002D65D01898007A000696
:102FC0005FD460480168092000020818416B0020A6
:102FD0001BE042018E5A360515D0AE070BD55618A8
:102FE0003669B7070DD408AF3F5CBF0703D5360776
:102FF00001D546200BE7EE0705D05218127CD20708
:1030000001D0432003E7401CC0B28342E1D81598A9
:10301000C01E86B20498864200D90646A8070FD57E
:1030200020220020149901F0FBFC129000287DD092
:10303000F01C82B20021129801F034FE002811D158
:10304000E80720D020220020149901F0E9FC0B9021
:10305000002807D0F01C82B200210B9801F022FE5C
:10306000002810D08020FEF7B7FF1298002802D069
:10307000002101F02BFD0B98002802D0002101F067
:1030800025FD6420C3E6A1690A98069A08182499C8
:1030900001F021FC16988078012801D10498E08382
:1030A000002D46D0274B0920196800020818416BF3
:1030B000002008AA0CE04301CF5A3F0506D05F1854
:1030C000BC463B69175C3B4367463B61401CC0B252
:1030D0001C4B1B68A0331B7B8342ECD8A8070DD583
:1030E00012980090F01C82B221461C310220A36984
:1030F000FEF776F90220129902F024FCE80718D0B6
:103100000B980090F61C2146B2B21C310120A36935
:10311000FEF766F91398002805D00B988021C07C33
:1031200008430B99C87401200B9900E005E002F0F8
:1031300009FC00206BE6422069E68020FEF74CFF88
:103140009FE70000800300202C07000003280000F8
:1031500010B50B6A203106E09C8B844202D100201E
:10316000136010BD1B688B42F6D1412010BD0000DA
:1031700010B5094A094B1268D2189368083206E064
:103180001C8D844202D100200B6010BD1B6893424D
:10319000F6D1412010BD0000800300202C07000064
:1031A00002480068AE3000887047000080030020AD
:1031B00010B50F4C002803D0012809D002280FD0E9
:1031C00002F0F8FA0C21484300198038406F10BD16
:1031D00002F0F0FA0C21484300198038806F10BDCE
:1031E00002F0E8FA0C21484300198038C06F10BD86
:1031F0004CC8041010B50449044B09680622C918CC
:1032000001F069FB10BD000080030020EF06000004
:1032100010B5034906220968B33101F05CFB10BD0B
:1032200080030020F7B5164600241CE000981149E1
:103230000019401881080198890000194278057822
:10324000120215438278C07812040006024309482E
:10325000154340420F1829463846FEF703FC3868EC
:10326000854204D1241DB442E0D30020FEBDFB20E2
:10327000FEBD00000000FCEFF0B50E46074600243E
:1032800007E03D1900F0B4F82870000A6870A41C2B
:10329000E4B2B442F5D3F0BD30B5124A114C283A2D
:1032A000114BD1690906090F4170D2691207120F3B
:1032B000827022680D4D01244260AA4208D11A682A
:1032C0000B4B9A4201D1042200E00222027000E07E
:1032D0000470002900D144700649898A491C89007C
:1032E000816030BD280090401C00001041A0000209
:1032F00044A000F20000104010B5012818D807299A
:1033000016D80C4A1268134620331877597780076D
:10331000C906000E090E01430020074BA03204E04D
:103320008401E418A172401CC0B2147B8442F7D817
:10333000002010BD8003002000010020074A9142B8
:1033400002DC5242914200DA1146FF229932514387
:103350000A1251180A14511808187047FFFF4F003D
:1033600010B50920C00600690002000A02F0A6FCA0
:1033700010BD000070B51C4C1B212068890141184C
:1033800000260E76194B4E760622FF21C01801F05A
:10339000A6FA372520686D0140190670202141707A
:1033A00005F01CF901281CD01F2021680F4B49197A
:1033B00088702068093307220021C01801F08FFAB5
:1033C0000A4B206810330522FF21C01801F087FA4C
:1033D000DF232068DB00FF220021C01803F0F2FC8D
:1033E00070BD5F20E1E7000080030020DA060000E6
:1033F00000210B200007026852070DD50268042344
:103400009A430260026808231A43026004E0491CE0
:10341000052901DD0020704742689207F7D5416811
:10342000C907FCD0806880B2704710B5FFF7E0FF95
:103430000446FFF7DDFF0004201810BDFEE77047CB
:1034400070470000F0B5454C092526682D0270191B
:10345000006E0027416B4248AE368DB0814242D0AB
:1034600006216846FFF708FF69464879C0210843EE
:1034700069464871206806224019006E2430FFF723
:10348000D1FE0746102105A8FFF7F6FE206810229E
:103490004019006E05A9001DFFF7C4FE0743102167
:1034A00009A8FFF7E9FE206810224019006E09A95B
:1034B0001430FFF7B7FE0146394313D1206829497C
:1034C0004019006E264F40188008810026480818D1
:1034D00039460490FEF7C6FA04980068B84201D154
:1034E000002700E0FB2722685019006EA632243026
:1034F0000190062001460090002005F0ACFE002857
:1035000002D12068A6300190701D009A019901F047
:10351000E2F92268102631460020803205F09BFE39
:10352000002807D0206832464119096E8030091DF5
:1035300001F0D1F9226831460020903205F08BFE6F
:10354000002807D0206832464119096E90301431A6
:1035500001F0C1F938460DB0F0BD00008003002035
:10356000AAAAAAAA3400FCEF0000041030B50F4B41
:103570000F4D1B6804465B1940331B7A412085B010
:103580009B0710D56B469981DA81002018820420B0
:10359000588203AA04A96D4607C502231A460121D1
:1035A0002046FFF70DFC05B030BD00008003002071
:1035B0002C070000024600200146535C002B00D07F
:1035C0000120491CC9B20629F7D370470248006898
:1035D0002030C07F704700008003002070B50E4689
:1035E000054601462022002001F01AFA040023D0EB
:1035F000284600F06BF8050027D02879B04224D186
:10360000A87880071FD4A06801210173A068002159
:103610004673A06802268673A068C173A06801740F
:10362000A06841740620E0802146052000F0BEF924
:10363000002803D0412509E064250BE0A878304339
:10364000A870002506E0462500E04225002120461E
:1036500001F03CFA284670BD7CB514460D460028A2
:103660001ED1052D02D00B2D07D011E062792179F2
:103670006088A31D01F020FF0AE021461231881F57
:1036800001910090627921796088A31D01F02BFFE0
:1036900021462846FFF73AFB2146284600F084FAE7
:1036A0007CBD70B505460C46002000F00FF80028E0
:1036B0000BD02905090D018000218170002C01D15A
:1036C0000821817001210171C17070BD30B50246C1
:1036D0000A480F230068DB010021C318A030047BD7
:1036E00007E0D86F0D0140190588954204D0491CA8
:1036F000C9B28C42F5D8002030BD00008003002004
:1037000030B50A490F2309680246DB010020CB18B7
:10371000A031097B07E0DC6F05016419248894421D
:1037200003D0401CC0B28142F5D830BD80030020D8
:103730008068017A407A0002081880B27047000061
:1037400070B50023134A1DE00F25ED014019190142
:10375000C66F0024C81C345410684019C66F081D79
:10376000345410684019C06F445210684019C66F35
:1037700008460830345210680C314019C06F5B1C89
:103780004450DBB21068AC21095C9942DCD80020BF
:1037900070BD00008003002010B5024688680C460A
:1037A000817AC07A0002081881B2E088001FE080A8
:1037B000042909D005290CD006290FD00121204663
:1037C00001F084F9002010BD21461046FFF790F962
:1037D00008E02146104600F00FF903E021461046AC
:1037E00001F0A6FC0028EED0E188091DE18010BDA3
:1037F000F3B581B00D4600268888FFF767FF070004
:1038000056D0287B3C46083400900228F86833D014
:10381000002845D0E888002810D021884018208052
:10382000284601F0D3F801466068806800F017FE72
:103830000120616801F08AF80020E88020880428CF
:1038400028D36068FFF774FF001D218880B2814291
:1038500026D881421BD16168C88061680198FFF752
:103860009BFF0146002000290ED06168A94201D1CA
:103870006060208045261FE0002801D04526DDE756
:103880006560E8882080D9E7606020800BE0452EE5
:1038900006D008E0452E06D1384600F097F90BE037
:1038A000384600F093F9002E06D10098012803D184
:1038B0000121284601F00AF93046FEBD024610B546
:1038C0000020002A05D0012A02D11046FFF790FF00
:1038D00010BD1046FFF760FF10BD70B50546801E95
:1038E0000C46030002F08AFC0A0C1D1D06170B0B88
:1038F0000B0B060B0A4620782946FFF7ADFE70BD7C
:103900002846FFF703FA608801F026FD2146284685
:1039100000F04AF970BD4A890888A11C01F00CFE2C
:1039200070BD62880978284601F036FD70BD000040
:10393000F0B585B0FFF7E4FE1B4D04462868A030C3
:10394000007BA0422DD92046323069460873684674
:1039500002F088F90F262868F6018019C26F00214D
:1039600024011153286827468019C26FE01C1154A6
:1039700028680C378019C26F201D115428688019DF
:10398000C06FC05900280CD0012101F09FF82968B0
:1039900000208919C96FC85129688919C96F08346D
:1039A000085305B0F0BD00008003002010B50C46A0
:1039B0000146042805D0052903D0062901D050204E
:1039C00010BDA068A2790272E088020AA068427263
:1039D000A0688172A068090AC172E088001DE080B9
:1039E000022020732046FDF7C1F80028E8D0E088C7
:1039F000001FE080412010BDF0B50D468DB00021C4
:103A00000A91A96800280F7B02D0012822D0C3E0C8
:103A1000A888FFF775FE624E04463068A030007B30
:103A2000A04215D9122F08D15E48029020463230AC
:103A300069460873684602F0C9F80F203168C00172
:103A40000818C06F210140188178FD221140817053
:103A500000219EE0A888FFF753FE06465048AC229E
:103A60000168525CB24218D90F20C0010818C06F1B
:103A700032018418A278100710D5122F10D15007E8
:103A800010D4A9882A46422003F04CF9A0780421DA
:103A90000843A070A868407B207179E0132F0AD0FA
:103AA000012F41D0A868417BA888FFF797FD0A90B5
:103AB00000286DD070E0A868E778437BBB4267D1EF
:103AC000520765D5027C407C01230002101887B2A2
:103AD00042200490A8880690372040010818C07A38
:103AE00080070FD5D802083108181D2240690499B3
:103AF00002F06CFF010005D0069A8A80CF800498FE
:103B000002F050FFA078FB210840A070E078401C34
:103B10000006000EE07001D10120E07068463236E8
:103B2000067302F09FF833E0100731D4A868E178FB
:103B3000407B88422CD150072AD5FB200240A2703E
:103B4000E078401C0006000EE07001D10120E0701A
:103B500068463236067302F085F811482022006864
:103B60009101083040184224AE8802234069214662
:103B700002F02CFF01000BD0A868437B877BC07B41
:103B80008E80000238188B710881204602F00AFFEF
:103B90000121284600F09AFF0A980DB0F0BD000000
:103BA000800300203075000010B5022809D00528D8
:103BB00001D00B2808D1084609794088FFF771FD2C
:103BC00002E04888FFF7B4FE002010BDF8B50546B6
:103BD000807810210843A870422000901148C90144
:103BE000006801270830401802263B462122406920
:103BF000009902F0EBFE04000AD02771667132468C
:103C00002946A01D00F067FE2146009802F0CAFE7A
:103C1000E868002805D0012100F058FF0020E86086
:103C20002881F8BD8003002000207047F0B5814D49
:103C3000044641212868490185B04018019004F0EC
:103C40001FFE09263602002C7ED008280DD3422004
:103C50000746039078480024029004F079FE009013
:103C6000082004900098082802D30C2005B0F0BD6D
:103C700000F06AFA00F002FA0098704980014218D8
:103C800028688019C16C01988030036BC03159805D
:103C9000016B09800021C94301820021456ACB1DC7
:103CA000EF54856AEF54C56AEF54056AEF54066B0A
:103CB000039DF554039B3F0A1B0A0393466A029D2A
:103CC0000B1DF554866AF554C66AF554066AF55418
:103CD000066BF554029B491C1B0AC9B202930329C7
:103CE000DCD3009911234907090E456A0B43AB72D7
:103CF000856AAB72C56AAB72019B1D7E0223022DE1
:103D00000BD1456AAE7A1E43AE72856AAE7A1E4307
:103D1000AE72C56AAE7A1E43AE72466A0127F7726A
:103D2000866AF772C66AF7721943036B9972036A5F
:103D30009972036B0321D972016ACF7200210B467D
:103D4000535455186B7100E04BE0491CC9B205296A
:103D5000F6D38025957201992031CE7BD672868C60
:103D60001682068E5682364E9661364ED6613E4695
:103D70002027BE54D375019A127E002A04D0012A4E
:103D800004D0062A12D110E018240FE00322836821
:103D900028245202934209D1C368934206D10022DB
:103DA0000492FF225632028200E01024497B00294F
:103DB00004D0012904D0022906D103E0C02102E089
:103DC0002C4301E040210C430499C2680902806839
:103DD00053184218E108C900491C009807F096FCE6
:103DE00044E772B608280AD22A6891190B6B582149
:103DF0004143891C5C5C6407640F012C01D062B6EE
:103E000016E0F024A45C002C04D01126FF24B60197
:103E10009219947500225A541F212A688901511859
:103E20000B790122824093430B7162B608F07AFC51
:103E300000201BE7800300208100B000CC000020A0
:103E4000D6BE898E5555550070B5044608480D46B6
:103E500000684121490146182046316805F008F9FB
:103E600072682271100A6071100C2870002070BDF9
:103E700080030020F8B55D4C4120256840012818DA
:103E8000002201460923027620311B020A73ED1835
:103E90002E6DFB27283686632D6DFF265035456332
:103EA0000835856207258D73416B0A70456B0621C5
:103EB00069702468E1180D6D7835C563096D0825B2
:103EC000A03101640146C0314A720A72CD738D730C
:103ED0001B250D8249364E828F82454FCF82FB27AC
:103EE0000F83434F4F838D83CE83424962652165A3
:103EF0003E4C01462668B518F618376D60351646F3
:103F00002D7E2A36BD552668F618376D1646523670
:103F1000BD552668F618376D16467A36BD552668A3
:103F2000F618376D1646A236BD550D70521CD2B22A
:103F3000491C062ADED300250D70826B06215170C4
:103F4000426B5170024680325561294695611BE0F3
:103F500009252D025B1958254D431F6B2B46264E14
:103F60000A33FE52092327681B02FB181F6B2B46DE
:103F700000262033FE50092327681B02FB18243536
:103F80001B6B491C5E51C9B22368AC25ED5C8D42A8
:103F9000DED8002501219583C902018455640920DA
:103FA000216800020918096C936B891C59802168EB
:103FB0000818006C516B801C48801048818D206867
:103FC00040300186FDF7AEF91F21206889014118B4
:103FD0003F220D71520108218018817200F010F803
:103FE00006F076FD20682030C574F8BD80030020FF
:103FF00048080000862E0000FFFF0000F4030020A8
:1040000010B5084C2F2320685B01F822FF21C0184F
:1040100000F065FC172221680020920189180877BA
:1040200010BD00008003002010B5044680880321E5
:1040300004F04AFC022172B6082815D20D4A136812
:10404000092212029A185823126B5843831CD35C1E
:10405000002B09D0002110182160016A002906D028
:10406000416A0C604521446262B6084610BD046294
:10407000F8E70000800300201F20704730B531486A
:104080004121006849014018416B037E0A781B07F3
:10409000920992011B0F1A430A70C16B037E0A78C2
:1040A0001B07920992011B0F1A430A70816B0A7851
:1040B00092099201121D0A70016C0A78920992010C
:1040C000121D0A700021024620320BE0836A456B04
:1040D0005C5C0B460833EC54846AC56B645C491C19
:1040E000EC5489B2137B8B4201D91F29EED3017E98
:1040F000012907D0D9B2426B891D5170416B08313B
:10410000816230BD0346C26B10330832816882621F
:10411000446B0C22627000221546446B08356155D1
:104120001970090A5B1C032A00D1C168521CD2B263
:10413000062AF1D3406B02785206520EC9010A4397
:10414000027030BD80030020FEB520484121006888
:1041500049014718694601A8FFF776FEBE6B7D6BE3
:10416000FC6B3B6C72B6002001AA811C175C6F547B
:10417000175C7754175C6754175C401C5F54062823
:10418000F3DB694609782A78BF20C9070240490E47
:104190000A432A70694609783278C9070240490EF5
:1041A0000A433270694609782278C9070240490EED
:1041B0000A4322701A78694602400878C007400E08
:1041C00002431A7062B60020FEBD0000800300208A
:1041D00030B41348092203680120C0021818D2061F
:1041E000006F11690F4C411A09022588090A2D0731
:1041F00002D430BC01207047647A9B6AE400E31863
:104200008B4209D20123DB05994205D259000843AC
:10421000506030BC0120704730BC00207047000067
:1042200080030020C0000020FEB50F484121006837
:10423000490144180D4906224118684600F04BFB1D
:10424000A66BE56B636B246C00206A46811C175CCF
:104250005F54175C7754175C6F54175C401C6754AD
:104260000628F3DB0020FEBD80030020EF060000DF
:104270007CB50E4C0E492068062245180D494118A0
:10428000684600F028FB296A06226846891C04F06B
:1042900047F90921206809024018016D0622684685
:1042A000891C04F03DF900207CBD00008003002043
:1042B00004090000EF060000F8B51D461446064646
:1042C000002704F08BF901280CD01F2071780840DA
:1042D000060036D00020E86104F0E6FF002803D095
:1042E000E86907E0FF20F1E769893246012000F024
:1042F00097FBE861002801D0102722E0E07D8021B3
:104300004840E0751049286908421AD06079401E7B
:1043100060716079FF2814D1A079401EA071A07946
:10432000FF280ED1E079401EE071E079FF2808D126
:10433000207A401E2072207AFF2802D1607A401E27
:1043400060723846F8BD000020280000FFB581B03B
:1043500000230093049B012B2BD04B8C204D1C0180
:104360000B8C9C46CB7E6B438D8BAE46CD8B96697A
:10437000A64205D19689664502D1168FAE4201D07C
:104380004026009696790427760876003E4396717B
:1043900094615461644694811587049A012A17D068
:1043A0000B6170464A68400010184860009805B0DC
:1043B000F0BD034640331D461B8E094E1C01AB8DDC
:1043C0009C4660231B5C7343AE8C2D8DB646CEE7B6
:1043D00083657146C26C49005118C164E6E700006C
:1043E000E2040000026800230B80824203D09BB2EB
:1043F00012685B1CF8E77047086042684A604268D0
:10440000116041607047026804E08A4201D10120D6
:10441000704712688242F8D10020704702680A6033
:10442000126802600A68126850600A680020106012
:1044300009684860704700B50B46FFF7E4FF0028A5
:1044400008D003CB083B086003CB41600020083B49
:104450001860586000BD7047704770477047026829
:10446000002A03D010461268002AFBD10160704771
:1044700070B50C461F21521E0A430546521C0020EF
:1044800011044E0D17D0214608316A1A2846002A19
:1044900001DD082A03DB2022FBF782FE04E008226C
:1044A00008C9521E08C0FBD120352046761E24685C
:1044B0003604360CE7D170BDF8B504460D46501EE3
:1044C0001F210843401C00041646470D1ED02046FD
:1044D00008302946421A002A01DD082A03DB20227F
:1044E000FBF75EFE04E0082208C9521E08C0FBD19B
:1044F0002035202E01D2304600E02020A080301A46
:104500007F1E24683F0486B23F0CE0D1F8BD00292D
:1045100059D0F3B58FB00C46A088202813D0002CBA
:1045200014D0029402980068029000282ED0868849
:1045300001463246083106A800F0CDF90027A088D0
:10454000202805D007E02468002CE5D111B0F0BD8B
:1045500024680020A080002EE4D080B22021091A17
:104560008DB2AE4200D235462246083206A98018E6
:10457000C9192A4600F0AFF9701B86B2781987B2C4
:10458000A0884019A080002ED9D1CBE72068002850
:10459000DCD0002121600F9972B60A78002A03D07E
:1045A0004B6892009A581060002383800A78521C4E
:1045B000D2B20A704C689200A05000680028F4D172
:1045C00062B611B0F0BD7047491EC904090E72B63B
:1045D00002788A420CD9511AC9B24A1ED3B203706A
:1045E000426888001058990052580021116000E07C
:1045F000002062B670470021002804D0491C0068E2
:10460000C9B20028FAD1084670470021002804D01A
:10461000491C0068C9B20028FAD14801704770B43B
:10462000417800292DD08668002E2AD000250570FB
:1046300041682A460D60417800291FD9282151433D
:10464000891900230B60002913D072B60378002B60
:1046500003D044689B00E35819608D8003785B1C8D
:10466000DBB2037044689B00E15009680029F4D173
:1046700062B6521C4178D2B29142DFD870BC0020A1
:10468000704770BC47207047F8B51D460E466B4614
:10469000002A09D0002824D08488944204D8121B10
:1046A00012040068120CF5D11A80040019D014E02D
:1046B0006846A1880088091A8FB2AF4200D32F46FE
:1046C00021183A463046083100F005F9F619E81B82
:1046D00085B22468002069460880002D03D0002C94
:1046E000E6D14120F8BD0020F8BD002917D072B6F0
:1046F0000278002A03D0436892009A58116010B4DF
:1047000000238B800278521CD2B20270446892005F
:10471000A15009680029F4D162B610BC70477047F7
:1047200030B400240B1E22D02034A4B294421AD3F9
:104730000A68002A35D072B60378002B03D044688B
:104740009B00E3581A600024948003785B1CDBB262
:10475000037045689B00EA501268002AF4D162B6E3
:10476000002008601DE00B4609680029DCD1111B00
:10477000491EC9040A0E72B6017891420CD9891AF1
:10478000C9B24A1ED2B202704068890092004158F4
:1047900082580020106000E0002162B619600029F4
:1047A00002D030BC0020704730BC47207047FFB5B6
:1047B00004465009000681B01F46000E06D0002CAA
:1047C00023D0401E24680006000EF8D1D606F60E4F
:1047D00017E02020851BBD4200D33D46A0192A4684
:1047E0000830029900F077F8029871194019029088
:1047F000781B87B2A088884201D2A819A0802468BB
:104800000026002F04D0002CE3D1412005B0F0BDDC
:10481000002005B0F0BD10B5034600680324401E1B
:1048200020435143401C4118196010BD70470000DF
:1048300010B5134C207A002820D101208003FDF709
:1048400073FC00281AD101204003FDF76DFC0128FC
:1048500014D107F0E0FD800601D4002010BD202215
:104860000849242007F07CFC07F024FF207A002868
:1048700004D0032000214003FDF770FC207A10BD16
:104880001A030020B40300208307FF22DB0E9A40A6
:104890008907090E994000280BDA0007000F083835
:1048A000830808489B001818C36993430B43C361EE
:1048B0007047830804489B001818036893430B4310
:1048C0000360704700ED00E000E400E0704710B5C1
:1048D000FBF7A7FC10BD10B5FBF762FC10BD10B5CF
:1048E000FBF788FC10BD7047032080070268802119
:1048F0000A43026002688A430260704770B5124A38
:10490000092312681B02D2180123D26A83435B0079
:10491000491E41249B184909491CC9B272B6157930
:104920008D420ED31E785B78AD19EDB25B18AB42A9
:1049300007D84000135C00245B1813541079401A08
:10494000107162B6204670BD80030020F3B50F469B
:1049500012480921006809024018BE68C46A81B083
:104960003046FFF748FE0546F888401E4009401CC7
:10497000C0B2A84211D23146A068FFF7C8FD304648
:10498000FFF739FE281A72B601994900625C121AC3
:10499000625421790818207162B6FEBD80030020A0
:1049A00010B51C4613460A4680682146FFF76CFE88
:1049B00010BD0000044A092312681B02D218D26AF3
:1049C00040008018417070478003002000228168F9
:1049D00008380260084670470D490922096812022A
:1049E0008918C96A72B60122824350004218084BE6
:1049F000095C09201B6800021818C06A5278007907
:104A00008A4202D9511A401AC0B262B670470000F9
:104A10008003002010B58068FFF7EDFD10BD000099
:104A2000F8B50D460E49092309681B02C918CE6A5C
:104A30001F21521E0A431D3297B200243946FFF748
:104A40005DFF00280AD13946B068FFF7BDFD044676
:104A500008340068A0600020E074A5802046F8BDFE
:104A60008003002070B5174809210068090240182A
:104A7000C46A042200212046FFF731FF124D688CE2
:104A800023304009401CC1B20020FFF793FF688C1F
:104A9000A97F23304009801C4843401CC1B201203B
:104AA000FFF788FF28462030A16840784870A0684A
:104AB000FFF7B5FDA06872B6007862B620710020DD
:104AC00070BD000080030020F4030020F8B50E46FE
:104AD0000C49092209681202891808380746CC6A6D
:104AE000FFF789FD05463946A068FFF7FEFD72B65F
:104AF0007100605C401B605420794019207162B6DF
:104B0000F8BD000080030020F7B5074618480921CA
:104B1000006809024018C46A41201646002F11D0CF
:104B20003846FFF772FD0546B0420CD2301A81B20A
:104B30000198FFF7E3FE002804D132463946A06809
:104B4000FFF7EEFDFEBD32463946A068FFF7E8FDEF
:104B50006D1E761E69097209891A72B6019A520091
:104B6000A35C5B1AA35422795118217162B6FEBD71
:104B70008003002010B51C4613460A468068214673
:104B8000FFF715FE10BD000070B52A4D284A2868B1
:104B90000021FF301B30FFF7A2FE2868FF21F22220
:104BA0001154112292018218117651769176224A7F
:104BB000F4210A502F235B01F822FF21C018FFF7D0
:104BC0008EFE1E4B28687822FF21C018FFF787FE53
:104BD0001A4B2868F8337822FF21C018FFF77FFEB0
:104BE0009D232868DB007822FF21C018FFF777FE9D
:104BF000232628687601002481190C722721490197
:104C000041180C712B21490141180C7017218901A1
:104C100040180477FEF7A4FB296801230A46803276
:104C2000906788190471E0314B74D467847170BD4A
:104C30003903000080030020905F01006C04000035
:104C4000F0B4144A2F2312685B01D21894461F2730
:104C5000202200245208A318DBB2BB4214D2DD008C
:104C600065442E686D682D02A94203D8A9420BD174
:104C7000B04209D31C46B04206D1A94204D1FF2B51
:104C800004D0F0BC01207047002AE3D1F0BC002022
:104C90007047000080030020002070471F207047ED
:104CA0007047704710B5121D806892B2FFF72CFF55
:104CB00010BD0000F8B50926F60631687A487B4A2F
:104CC00081601368412252019D18002202704270D7
:104CD0008261C261027142718271754A1288F41454
:104CE0005207520F82701C195827246B5743E7193B
:104CF000704C92011219C7600261BA78C2705707EE
:104D00007F0F8803800F7CD1694A188E50806A48D3
:104D1000654C01409013814204D100F033FFA0683C
:104D20003060F8BDFEF752FC002807D15F480088CC
:104D3000503081B2012000040818F0605B49002067
:104D400009684031C871E168C8735C49B800085807
:104D50008047A068002806DAFEF738FC002802D158
:104D6000A07806F095FC012F04D0022F19D0052F52
:104D700017D03FE0A068C0013CD5FEF727FC002813
:104D800038D1A0684003287E05D4022832D060794B
:104D9000002809D02EE0022806D0A079012803D0EF
:104DA00028E02078012825D1464845490160232183
:104DB00041606421684601706A461078401E107098
:104DC000F068C00302D510780028F5D110783D486E
:104DD00082B2012000041018F06068460170694634
:104DE0000878401E0870F068C00302D508780028D3
:104DF000F5D10878206900902946A369E268E06946
:104E000000E035E005F02EF829462369E268E06904
:104E100005F028FB207801282AD1E068006A0028E4
:104E200026D00068002823D00027C17C0568C90966
:104E30001CD0E268116A814208D10B6813620F60CE
:104E4000E1680A6A002A0ED14F620CE00A688242C9
:104E500003D0114612688242FBD10D60E268536AAA
:104E6000834200D151620021FFF730FE2800DCD1DF
:104E70000D4C2089000401D500F084FEA26812497F
:104E8000D00306D50948022400684018036823436C
:104E90000360900306D505480423006840180168A4
:104EA000194301603260F8BD380300208003002000
:104EB000C0000020CC0000200080FBFF6003002029
:104EC00002230102580300200008000001F03AFA12
:104ED000012805D0044880F3088805F0D3FCFEE7DC
:104EE000FBF73EF9FBE700000060002070477047C9
:104EF0000FB4F0B55E4E092730683F0297B0C01975
:104F0000456F0024694610A80C70023016906C3072
:104F100015901DE06946284606F094FD6846007825
:104F2000FE2809D0FF2818D0002810D0FA2017B08A
:104F3000F0BC08BC04B0184701A9284606F070FD73
:104F4000062216991598FFF7C2FC00281FD01435C9
:104F50002046641CE4B20C28DCD318A8407C00096D
:104F6000E5D00C2C7ED972B606F028FC62B630680B
:104F70006946C019456FFE2008706946284606F04C
:104F800061FD68460078FF286CD01435F5E75022A3
:104F900001A91CA8FFF79BFC0028C8D0284606F0F2
:104FA0002FFD0CE014356946284606F04BFD684697
:104FB0000078FE2803D0002801D0FF28B6D1204673
:104FC000641CE4B20C2803D268460078FF28E9D1BB
:104FD00018A8C17C6846C0798142BED118A8407C1F
:104FE000C0060ED468464079C0060AD5022212A92E
:104FF0002DA8FFF770FC18A9487C1021084318A9B8
:10500000487418A8407C800615D46846407980060C
:1050100011D508A923A8102202310230FFF75BFC4A
:10502000062216991598FFF756FC18A8417C2020F7
:10503000014318A8417418A8407C40068DD46846E6
:105040004079400689D50CA927A8102202310230E8
:10505000FFF741FC18A9487C4021084318A948746F
:105060007BE7FFE701221CA9284606F0F3FC5EE778
:1050700080030020F8B50F48092100680902401894
:105080001426456F00206946087004466946284684
:1050900006F0D8FC68460078FE2805D0FF2807D027
:1050A000002803D0FA20F8BD641CE4B2AD19EDE786
:1050B0002046F8BD800300200D49012289B2120468
:1050C0008A1830B50921C906002804D0CA60C8680A
:1050D000C003FCD430BD064B9C789878FB25284053
:1050E0009870CA60C868C003FCD49C7030BD0000D2
:1050F0001C00002010B50D4CFF220021206801F09B
:1051000061FE206800218176C17601224273072367
:1051100083731023C3730276017501610273817575
:10512000C175084606F0FEFF10BD00008403002094
:10513000F8B507460D460026888800F0E7F8040019
:1051400064D0012F02D0002F09D062E0E888412806
:105150005ED833482946006801F03CFE5DE0A8684F
:10516000007B06280BD0D52107280AD0082819D0A3
:10517000092819D00A281CD00B281ED049E0D220BB
:1051800006E0A07ADD2844D1A07F820702D5D32093
:10519000A0723EE0400701D5A1723AE0204606F039
:1051A00085FE36E0D420F3E7A07ADD2831D1A07F58
:1051B000F0E7A07ADD28F1D02BE0207B8107890F72
:1051C000012926D18843022108432073154837213D
:1051D000006849014118897A4227C9060ED5012184
:1051E000C90208304018162240690023394601F0F0
:1051F000EDFB010002D0384601F0D4FBA07AF12883
:1052000007D1207B04210843207302E0012F00D145
:10521000012631462846FFF759FC0020F8BD000062
:10522000840300208003002010B50C4600F06EF8C7
:10523000002807D0817A002904D0007FA04201D342
:10524000002010BD5F2010BDFFB59C46224B0024FE
:105250001B6820490646A03381B0274620460968CE
:105260001D7B08E07C23CC6F4343E4182389002B8B
:105270000DD0401CC0B28542F4D8854227D0002F03
:1052800025D003202070002A03D0012002E001274E
:10529000F3E70020607006226146A01CFFF71BFBAD
:1052A00026811020A07220466030029901750B996A
:1052B0004175062216300A99FFF70DFB204604229D
:1052C00000210C30FFF70BFB0020C043606105B0EC
:1052D000F0BD0000840300208003002010B50024EE
:1052E00000F014F800280ED00089C10407D501246D
:1052F000810401D5032402E0410400D50524000403
:1053000001D408200443204610BD000070B50028D9
:105310001BD003050F48002100680D4A1B0DA0306B
:105320001268047B0FE008467C267043D56F083076
:10533000285A0005000D984203D17C225143681879
:1053400070BD491CC9B28C42EDD8002070BD000070
:1053500084030020800300201CB5FFF7D7FF040062
:1053600016D0208906F062FE02460A4B0021012079
:1053700000F0FEF820890005000D06F079FE0220FD
:10538000694600940871684606F0CEFEFE20A072C1
:105390001CBD000030750000F8B507460E4600251C
:1053A0001046FFF7B3FF04007DD0002E0BD12089FB
:1053B0000121090308432081E17F02290DD003293F
:1053C0000BD0042909D020890105090D002E0AD02F
:1053D0007420005DC0071DD037E001214903084358
:1053E00001052081090DA07ABC2806D0AD2806D081
:1053F000AE2806D0F12807D037E0BF2002E0AF206A
:1054000000E0F020A07230E0032F2ED100231A46D6
:10541000422028E0A07AF12817D1254837210068DA
:1054200049014118897A422589060ED50121C90210
:1054300008304018172240690023294601F0C6FAB7
:10544000010002D0284601F0ADFA00200125A0722B
:10545000032F0AD10522062E00D104222089002321
:105460000105090D022001F059FB7420005DC00701
:1054700007D0207B810700D001250009000120739F
:1054800007E0A07BC10604D5EF210840A073000609
:1054900001D4002D0AD0208906F0C8FD0246002163
:1054A000044B012000E001E000F062F8F8BD0000CC
:1054B0008003002030750000F0B585B00E46074629
:1054C0001C46154602A804A9FEF7BEFC6946097CE5
:1054D00002A80191009023462A4631463846FFF73C
:1054E000B3FE05B0F0BDFFB585B015460E461C46AF
:1054F000062202A80F9F0E99FFF7EDF902A8FEF70A
:1055000059F8002806D0012069460874A80706D576
:105510003B4605E002A804A9FEF796FCF6E7234601
:105520006946097C02A8019100902A4631460598F7
:10553000FFF78AFE09B0F0BD70B515460E46FFF7BD
:10554000E5FE040013D0607B012108436073A07A5C
:10555000BC280CD0E07A000709D420460822314646
:105560002A30FFF7B8F932342570280A607070BD10
:105570007FB50024002902D0012902D002E00825CD
:1055800000E00025A9186A4611730293012809D08A
:1055900000280AD1104600F065FB684600F016FBB3
:1055A000044602E0104600F05DFB204604B070BDEA
:1055B00000B5044A00E09068042000F025F80128B6
:1055C000F9D000BD00004040084801780222114394
:1055D00001700649803900E0C2680A7BD207FBD01F
:1055E0000178FD22114001707047000080004040AA
:1055F000044902220028486801D0104300E090438B
:1056000048607047000040400349097B014201D0D7
:1056100001207047002070470000404070470000A4
:1056200010B50446406800F031F811484168042282
:1056300091432278D207520F114341600168402202
:105640009143A278D207520E114301600168802273
:105650009143E278D207120E11430160016862782B
:1056600049094901D206D20E1143016010BD000064
:105670000000404001488068704700000000404042
:1056800001498860704700000000404070B541004B
:10569000012502240C48FAF76DFD0C4A411E914287
:1056A00003D906E061060C0E4008FF28FAD8401E18
:1056B000C5B2074804740168FF22120291432A020E
:1056C0001143016070BD00000024F400FFFD0000E4
:1056D000000040400149C86270470000000040409F
:1056E000044A11680323DB0580079943C00901437D
:1056F0001160704700004040012101700721417096
:1057000000218170C17001494160704740420F0023
:105710007047000030B5054685B00121092000F032
:10572000C7F900F047F81F49800040188038C06F63
:10573000039000F03FF81C49800040188038C06F8B
:105740006946087400248C744C7403A8FCF752FC5E
:1057500000F030F81549800040188038C06F039081
:1057600000F028F81249800040188038C06F694660
:10577000087403A8FCF73EFC0320694600950871F5
:1057800048718C71CC714C72087201208872684625
:1057900000F0C4FA002000F05DFB012000F0A0FA48
:1057A00005B030BD3CC8041040C8041044C8041003
:1057B00048C804100148007870470000D00200205B
:1057C0000149012008707047D00200207FB50546CE
:1057D0000121112000F06CF96846FCF7B9FCFFF7D5
:1057E000E9FF3749800040188038C06F0090FFF70C
:1057F000E1FF3449800040188038C06F6946087165
:105800000120887100244C716846FCF7F3FBFFF718
:10581000D1FF2D49800040188038C06F0090FFF7FD
:10582000C9FF2A49800040188038C06F6946087156
:105830006846FCF7DFFBFFF7BDFF254980004018F5
:105840008038C06F0090FFF7B5FF224980004018F4
:105850008038C06F694608716846FCF7CBFBFFF7DC
:10586000A9FF1D4E800080198038C06F009006206F
:10587000694608716846FCF7BDFBFFF79BFF800097
:1058800080198038C06FFCF75FFC02A8FFF734FF77
:1058900069460C72072048728C72CC7202A803957C
:1058A000FFF7BEFEFF20FFF715FFFFF78DFEFFF7A6
:1058B0007FFE0120FFF79CFE002004B070BD0000B9
:1058C0005CC8041060C8041064C8041068C80410E0
:1058D0006CC8041070C8041058C8041010B50446F1
:1058E000202000F00BFA0128FAD0204600F0BEFA82
:1058F00010BD0000F0B5944600220A806346104CAB
:105900001A60092322681B028646D2184120526B76
:1059100000230FE05D01AD182F697646374207D0AE
:105920006F880E88B74203D90F806046056000205B
:105930005B1CDBB22568A0352D7B9D42EAD8F0BD0B
:10594000800300207CB50C4605466A4601A9FFF796
:10595000D1FF002801D041207CBD6846E1888088C5
:10596000814200D9E08000980088A0802046FCF7A2
:105970001DFB0098012D07D0016908221143022266
:105980009143016100207CBD016949084900F8E7A5
:105990000020104903E00A5C401C1018C0B20A5CE9
:1059A000002AF8D1C21C202A12D202220A54212233
:1059B00008184270082181700021C170012180B255
:1059C000090441180920C006C160C168C903FCD49C
:1059D00070470000940300201FB50446064802905B
:1059E0000846FCF783FF80000019694611300873F0
:1059F000684600F0EBF81FBD307500001FB5044687
:105A00000846FCF773FF80000019694611300873DF
:105A1000684600F027F91FBD2248027A2248018912
:105A20000020002A08D0022A37D0042A37D0082ABA
:105A300001D104210843704709228A4300D1202064
:105A400011228A4301D14022104321228A4301D1ED
:105A50008022104341228A4302D1FF2201321043A7
:105A600081228A4302D1012252021043FF220232D4
:105A70008A4302D10122920210430C4A8A4302D186
:105A80000122D202104305228A4301D11022104381
:105A9000C9438907CFD10821CCE70121CAE70221F8
:105AA000C8E700000000904000001048010400001A
:105AB000044A0129116A02D08143116270470143EF
:105AC000FBE70000000090407047000010B52A4935
:105AD000082088800321481FFEF7D6FE0321081FF7
