:020000041005E5
:1018000000600020A98B0510077F0510DD62051020
:10181000AA5555AA45554C420000000000000000A2
:1018200000000000000000000000000091A405106E
:10183000000000000000000095840510A5AA051016
:101840005F490510ED7F051000000000000000005A
:10185000B5AE05109DA305101D2E051019B005107D
:101860000000000000000000000000000000000078
:10187000000000006D1B0510E1620510DF6205101D
:1018800000000000877A0510897A05108B7A051010
:101890008D7A0510C98B05101D8005106D3305105C
:1018A0000000000000000000000000000000000038
:1018B0000000000000000000000000000000000028
:1018C000EFF31482EFF309811C4880F31488BFF30F
:1018D0006F8FF0B543464C4655465E466746F8B4B2
:1018E000174CEFF30883236006B4164C2068164C9F
:1018F0002060164C2068164C2060164C2068164C50
:101900002060164C276800202060BFF34F8F30BF47
:1019100027600B4C246884F3088882B003BCF8BCB1
:101920009846A146AA46B346BC46F0BC04BC80F328
:10193000098881F31488BFF36F8F104700000000FF
:101940000800002004ED00E0DC02002024ED00E0AF
:10195000E002002000E200E0E40200200800204055
:101960000348854600F0B4F8004800479503061088
:101970000060002030B50B460146002020220124E3
:1019800009E00D46D5409D4205D31D469540491BB3
:101990002546954040191546521E002DF1DC30BDFC
:1019A00010B5441A0346944209D28318891803E0FB
:1019B000491E0C785B1E1C70521EF9D210BD0C46DD
:1019C0000443A40703D009E010C9121F10C3042A5E
:1019D000FAD203E00C781C70491C5B1C521EF9D231
:1019E00010BDD2B201E00270401C491EFBD270470C
:1019F0000022F6E710B513460A4604461946FFF7DB
:101A0000F0FF204610BD10B5002200E0521C835CA0
:101A10008C5CA34201D1002BF8D1D8B2E1B2401ABC
:101A200010BD30B504460020034600E05B1C934225
:101A300003D2E05CCD5C401BF8D030BD0321001D1B
:101A4000401E037812021A43491EF9D5104670470A
:101A5000F0B51FB40646002082B00546402401912F
:101A600000901BE0019922460F46304600F042F8F4
:101A7000049A059B801A994110D3104619462246B4
:101A800000F016F8361A8F410197224601200021F6
:101A9000009F00F00DF838184D4100902046641E5C
:101AA0000028DFDC019B00982946324607B0F0BDD4
:101AB00010B5202A04DB0146203A9140002010BDD9
:101AC000914020239C1A0346E3401943904010BDE7
:101AD000064C0125064E05E0E36807CC2B430C3C81
:101AE00098471034B442F7D3FFF73EFFDC2A0610C4
:101AF0007C2B061010B5202A04DB0846203AD04083
:101B0000002110BD0B46D340D0402024A21A9140A2
:101B10000843194610BD70B58C180578401C6B073A
:101B20005B0F01D10378401C2A1106D10278401CBA
:101B300003E006780E70401C491C5B1EF9D12B0790
:101B400005D40023521E0DD40B70491CFAE703780C
:101B5000401CCB1A921C03E01D780D70491C5B1CC5
:101B6000521EF9D5A142D8D3002070BD70477FB571
:101B700005469868012202739A681C46517398685A
:101B8000022202A90E3006F041FAA16805200D7468
:101B9000E0807FBD70B5064608881D460C46001DD6
:101BA00081B213460222304606F098FB21882B466C
:101BB000891C2180091D89B20222304606F08EFB65
:101BC0002088801C208070BDFEB500240E4627466C
:101BD000056845E028680290A968022230460D3168
:101BE00006F014FA3088B84209D087B2384603F0BC
:101BF00011FB014601AA384604F09EF9019CA96830
:101C0000022268460F3106F001FAE888401F81B2CF
:101C10002220005D002806D001280BD0002811D01A
:101C2000012814D01BE0E08B6A461288401E9042C7
:101C300006D307E0208C6A461288401E904206D2E6
:101C40000720FEBD684600880818E18B03E068465F
:101C500000880818218C884201D90D20FEBD029D04
:101C6000002DB7D100203080FEBDFFB5C88800250B
:101C7000401E83B00E4687B2012427E0B0680222DE
:101C8000083001196846091D06F0C0F96846008849
:101C900003F0C0FA01001DD068460A8D0088824218
:101CA00012D001AA04F048F900280DD1019926208C
:101CB000405C400708D506986A00101802221C31C3
:101CC00006F0A4F96D1CADB2A41CA4B2BC42D5D3DD
:101CD0000C98058007B0F0BDFFB5074683B0002023
:101CE00000900D9803F096FA069905460C31019183
:101CF000002826D00837BD4223D0288D0E9988426F
:101D00001FD80D99884213D30E99884210D82946BE
:101D100002222A31019806F079F910220C990698CE
:101D200006F070F9002809D0298D0E98814208D05C
:101D30002E462C6A2036B4423FD140E0059800215F
:101D4000018007B0F0BDA18B0D98814234D30E986D
:101D5000814234D8204620300290C078012808D033
:101D60002046083010220C9906F04CF9002808D0C3
:101D700022E0214602220831019806F047F9069830
:101D8000F0E702988079400716D50098002801D125
:101D9000E08B0090E18B814211D1059802220088EE
:101DA00041000498081821461C3106F02FF90598C7
:101DB00005990088401C08802468B442C3D12D686E
:101DC00099E70000064800210268492040011018E8
:101DD0000172417203218172C172002070470000BC
:101DE0008003002070B50D4D044601232868D902F8
:101DF000401890261A46406931460AF01DF8010045
:101E000003D030464C600AF003F8492029684001AD
:101E10000918087A401C087270BD00008003002079
:101E200010B5044600202082A074A168A161616100
:101E30002060204605F032FA452801D0412010BD2F
:101E4000A08803210CF016FA04460CF08FFF00283E
:101E500013D072B60A48012201680920000209184D
:101E60004878A2401043487062B600200FF006F890
:101E7000002802D000200AF0A9FF002010BD0000B9
:101E80008003002070B5C17C0E4D4906490EC17417
:101E9000044601232868D902401890260022406990
:101EA000314609F0C9FF010003D030464C6009F00B
:101EB000AFFF4920296840010918487A401C487240
:101EC00070BD000080030020F0B52BA00FC893B0B8
:101ED00006AC0FC42CA00FC80FC42FA00FC80FC48E
:101EE000102206A9304806F091F8304C0623012252
:101EF0002D49022000940AF01AF900282FD12A480F
:101F000010220AA9103006F081F810260027A01C24
:101F10000125254A0096039602970197049505909E
:101F200014231032022120880AF0E2F8002816D18A
:101F30001D4810220EA9103006F068F8201D0590EB
:101F40000C20194A029503960495019700901423DA
:101F50001032022120880AF0CBF8002805D014A006
:101F600009F01AFB472013B0F0BDA288618819A0C0
:101F700009F012FB0020F6E7669A0C200008969EF6
:101F8000E2119EB1E0F273D9669A0C200008969E89
:101F9000E2119EB1E1F273D9669A0C200008969E78
:101FA000E2119EB1E2F273D9100400202C0300204C
:101FB0004572726F72207768696C6520616464692C
:101FC0006E67204368617420736572766963652E5D
:101FD0000A00000043686174205365727669636586
:101FE0002061646465642E0A54582043686172203D
:101FF00048616E646C6520253034582C205258207E
:10200000436861722048616E646C652025303458E5
:102010000A00000010B508F03CFA002803D108F0CF
:1020200042FA002801D0002010BD032010BDF8B5F1
:1020300016460D460746002407F076FF002806D016
:1020400032462946384601F033F9044604E020358B
:102050006879002802D00E242046F8BD2879C107EF
:1020600001D1012E09D0810701D4022E03D04007EF
:10207000F2D4042EF0D10324EEE70224ECE70000B2
:10208000F8B5074614460D46084609F039FB0646E2
:102090002D488088401C874206D1002002E0215C48
:1020A0003154401CA842FADB27490020891D225CDC
:1020B0000A54401C0328FADB234824A1801DFFF7A3
:1020C000A2FC002809D100210320214A03E0235C5F
:1020D0005354401C491CA842F9DB1B481DA1801D1C
:1020E000FFF791FC002809D1002103201A4A03E0E0
:1020F000235C5354401C491CA842F9DB124817A129
:10210000801DFFF780FC002809D100210320144A1C
:1021100003E0235C5354401C491CA842F9DB0A48E5
:1021200010A1801DFFF76FFC002809D100210320BA
:102130000D4A03E0235C5354401C491CA842F9DBC0
:10214000304609F053FAF8BD2C03002062743100C8
:10215000F002002062743200F90200206274330041
:1021600002030020627434000B0300207EB5044695
:1021700016460D46684603F0DDFF68460378237077
:10218000407828706846807830707EBD70B5002138
:102190000C4A03E0535C491C5918C9B2535C002B2C
:1021A000F8D1CE1C02243525202E04D254545118C7
:1021B0004D708870CB7004490C704D708870CB7076
:1021C00070BD0000F00300201C00002070B508F076
:1021D0003DFD1D4C01252068ED02411909790029BA
:1021E00009D1A0300079C00727D00CF063FA01F0C4
:1021F000AFF801F05FFB00F0DFFC206801464031E2
:102200000A78C9798A4317D13E21095C002913D184
:102210000E490A8812070FD50922D2061269497A97
:10222000836A4019006FC900801A00025918001211
:10223000814201DA0AF01EFD70BD02F09BFA03F044
:1022400043F807F061FCD2E780030020C0000020C3
:10225000F3B5FFB090B0044601A803F06BFFFE4851
:10226000007A0590FD4880880890FD4800685290EB
:10227000FC4E002081008B191B68401C53AAC0B281
:1022800053500828F6D3F848006A5190F748006A7E
:1022900050900120800701684F9141684E918168FC
:1022A0004D91C1684C9101694B9141694A91816995
:1022B0004991C1690491C16A4891016B4791406B92
:1022C0004590EB48008B4490E948203040684690A8
:1022D000E848C1684391017F4291E64920318988ED
:1022E0004191E4492031097A4091E2492031097B4A
:1022F0003F91006B3E90DF482030007D3D90DD48EF
:102300002030008B3C90DB484030017A3B91017CCF
:102310003A91017D3991017E3891007F3790D548FF
:10232000603000783690D448016835914168349126
:10233000017C3391017D3291CF4920310A7931926C
:102340000A893092C06A2F90088A00222E90CB48CA
:1023500011050818056891007BAB5D5045687DABA1
:102360005D50858B7FAB5D50058C81AB5D50858C5E
:1023700083AB5D50058D85AB5D50C56A87AB5D5005
:102380004C231D5A89AB5D50056D8BAB5D50836D41
:10239000521C8DA8D2B24350022AD8D30B2000077A
:1023A00000682D90B64841682A9181682991018A78
:1023B0002891818A279181692691017F2591B049D1
:1023C0002031098A2491416B2391816B2291C06B4A
:1023D0002190AB4840300168209141681F9180688E
:1023E0001E90A84881881D9101891C91017C1B9138
:1023F000017D1A91018B1991007F1890A248818864
:10240000179101891691017C1591017D1491018B21
:102410001391007F12909D4801692C9140692B9087
:102420009B4801681191007A10909A480068002832
:102430002ED00020009000201421974A4143891893
:102440004D68820063AB9D500D685BAB9D508D68FD
:102450006BAB9D50CB68401C73A9C0B28B50082851
:10246000EAD38120C00541680E91017B0D91418B1B
:102470000B91018B0C91416A0A91816A0991008844
:102480000F900320800780680790032C02D008E09B
:102490008248CFE70920C006416803221207114392
:1024A00041607F49002009687E4D503906917E4F7A
:1024B000296004C98300401CFA50C0B22960142866
:1024C000F7D3654908790978012292071268520A00
:1024D0004A4090437ED16946487989790001084392
:1024E000122804D371490020086007F047FA092038
:1024F000C00641686E480160012008F039FBFFF713
:10250000DFF9002008F034FB6A48007800287DD00D
:1025100069480121018300218181016108460699F2
:10252000296081007A58296804C1401CC0B2296022
:102530001428F6D349490898888049495298086078
:10254000002053AA8100535889190B60401CC0B267
:102550000828F7D3444951980862444950980862C2
:102560008B024F9818604E9858604D9898604C9820
:10257000D860499898614A9858614B9818610498B6
:1025800098620498D8614898D8624798186345982B
:10259000586337494498088335484699203041604C
:1025A00034494398C860429808773248419A2030AD
:1025B0008280409A02723F9A02733E9A0A633D9962
:1025C00001753C9901832B483B99403001723A993F
:1025D000017400E048E1399901753899017637991D
:1025E0000177244936986031087023483599016095
:1025F0003499416033990174329901751E49319AB9
:1026000020310A71309A0A812F9A00E0DBE0C26221
:102610002E98088200227BAD1848110508189100F9
:102620006E5806607DAE765846607FAE765A8683D9
:1026300081AE765A068483AE765A868485AE765A03
:10264000068587AE7658C66289AE765A4C273E52CA
:102650008BAE7658066531E0000020400000104047
:1026600000E100E000E400E000ED00E00000904048
:102670002000004000003040000040400000A0402A
:102680000000F0400000D0400000E04000E000E02A
:1026900000007040000C7040080000A051E5CC1A0A
:1026A00000180510D0020020A00300201400002014
:1026B000180000200C000020000010488DAE71585A
:1026C0008165521CD2B2022AA6D30B2000072D9995
:1026D000016097482B994161002181612C9901612A
:1026E00094482A9941602999816028990182279903
:1026F00081822699816125990177239941632299E5
:1027000081632199C1638B482099403001601F99F2
:1027100041601E998160874924982031088286484B
:102720001D9981801C9901811B9901741A99017569
:10273000824A1999114001831899017780481799A5
:102740008180169901811599017414990175139965
:1027500011400183129901777A481199016010990B
:102760000172794900980860784F002063AD142108
:102770004143C9198200AE584E605BAEB6580E6038
:102780006BAEB6588E6073AEB258CA60401CC0B211
:102790000828ECD38120C0050E9941600D99017382
:1027A0000B9941830C9901830A99416209998162CD
:1027B0000F99018003218907079888606448007A8F
:1027C000002854D07DE0634B1868400637D4196860
:1027D0006148624A0068556A4140614E3668B542B8
:1027E0001AD11B68834203D05E480068084213D1A7
:1027F0005D48012100680907034655680B400D40FC
:10280000AB4209D18910526808400A40904216D064
:1028100047480069800712D50921C9060869534B4A
:102820000209D01C984204D80A6912098242FBD3DB
:1028300005E04F4810180A6912098242FBD1694627
:102840004879897900010843122805D3012007F04F
:1028500095F8494847490160032C05D10920C00675
:10286000426821078A4342607FB012B0F0BD909861
:10287000002826D0414802890921914302D1D96913
:1028800089051BD402891121914302D1D9694905D7
:1028900014D402892121914302D1D96909050DD4AB
:1028A00002894121914302D1D969C90406D4018921
:1028B0008120884305D1D869800402D525480121AB
:1028C0000160032C05D10920C006426821078A4314
:1028D00042602B4905980872032C26D00021002065
:1028E00000F050FD0598C007BED008F083F8694697
:1028F00008800888400514D422480088000710D5B5
:102900000921C9060869204A1268101A000200123B
:1029100000D54042202804DC08692D300A69824233
:10292000FCD91A49152008709EE70121D7E700005D
:1029300000E000E00000F0400000D040BFFF0000D9
:102940000000E04000007040000C7040080000A053
:102950000000904000E200E0E402002000ED00E012
:10296000E002002000E100E0DC020020FFFF0F0099
:102970000400F0FFCCBCECFC140000200000104868
:1029800000002040C0000020180000200000C040CF
:10299000F7B50746EFF3108472B6002018490870A7
:1029A00000F06CF90646384603F016FC054638463A
:1029B000FFF730FBB84200D33846854200D22846A4
:1029C000864200D230460F4A810053585B1C535058
:1029D000002809D001280BD00B49029A0A70019AED
:1029E0000A710199FFF734FC84F310880020FEBDC2
:1029F0000648017A0022027230BF0172F4E700003B
:102A00000C000020900300200000204000007040D7
:102A100010B5837F0122002492024168082B03D95C
:102A20004224914202D310E0914201D242240CE0B0
:102A300001463422064805F0E9FA00F07FF8002844
:102A400001DA482401E008F001FD204610BD000035
:102A5000300400203EB5174D15482968827F08468E
:102A6000A0310A7300246030047644768476E12233
:102A7000C2768022027702224277302008704C70A2
:102A800002AA01A96846FFF771FB68460078A222F6
:102A900001016846007A891C0002014368460079FA
:102AA0000003014328681152A03004713EBD0000AC
:102AB000300400208003002070B508F0ADF804F069
:102AC00013FB05F07DFBFFF77DF903F089FD184C42
:102AD00018492068184D4018811009202A68000202
:102AE00010184167616889088167A1688908C16712
:102AF00006F0ECFF0F202968C001228B08188281A4
:102B0000628BC281A28BC280628C028122462032FB
:102B1000127882723B22520100208918087501F058
:102B200089FC03F077FB0AF097FC00F049FF70BDC9
:102B3000300400200000FCEF8003002070B5002569
:102B4000ED430BF061FA01282FD00023184903222E
:102B5000888BFF24401E10438A7F513462438218C1
:102B6000088B282460431218488B302460431218C5
:102B70000846203040782C24604310180D4A18185D
:102B800084184869A0420ED11320C00184420AD99A
:102B90000D690BF039FAC1B2284600F051FD00F082
:102BA00081FE401B251A284670BDFF23B533CDE7B3
:102BB0003004002051190000F8B52C4F3C68206EFD
:102BC0005C34401C002814D0002529480023C07B19
:102BD00000283ED00926F6062648002D1CD00021EC
:102BE0000A460B464169521C994204D1002902D081
:102BF00004E00125E9E7204B9A42F2D32160006905
:102C000060603069A1680002090E000A09060143EC
:102C1000A16000F08DF81DE03169A2680902090A7F
:102C2000150E08D0018BC90712D0416921600069D7
:102C30006060E37210E0881A00027D2300121B031B
:102C4000984205DD100E00060843A06000F070F801
:102C5000F8BD6360002DFBD003CC0EF0B5F8FA2070
:102C60000DF088FB39688862F8BD00008003002001
:102C7000500400200000104888130000F8B5294DCA
:102C8000002029680A4640321378D279934347D10D
:102C90004A6E120E44D13E22525C002A40D1431E9D
:102CA00021488D6A467A1A460024F600AD19092695
:102CB000F606376900887D1907070120002F06DA1C
:102CC000C302CB181C6F631B1B021B1228D40727DF
:102CD0003F02C919496ACF0103D54A1B12021212D9
:102CE0001ED401252D07002B06DA002A0ADA7560AA
:102CF0000E48856003200AE011200006044374603A
:102D0000002A03DB2943084607F030FD022005496D
:102D1000096840314A78002A02D000204870032018
:102D2000F8BD000080030020C000002040000048E3
:102D30000449002008610448012100686030C17125
:102D400070470000000010488003002010B5304A92
:102D50000020137A2F49002B04D10C890923A343A7
:102D600000D10120137A002B05D10C891123A34334
:102D700001D102231843137A002B05D10C8921239A
:102D8000A34301D104231843137A002B05D10C89E6
:102D90004123A34301D108231843137A002B05D103
:102DA0000C898123A34301D110231843137A002BEC
:102DB00006D10C89FF230233A34301D120231843FA
:102DC000137A002B05D10C89134BA34301D1402367
:102DD0001843137A002B06D10C890523A34302D193
:102DE000FF2301331843137A002B05D10989C94306
:102DF000890701D180210843117A022901D10902F2
:102E00000843117A042901D10902084310BD0000CA
:102E100000009040000010480104000010B505F0CB
:102E2000B7FD10BD70B5234A00211068044640303C
:102E30004176017609231B02E01841700F253620E8
:102E4000055508461468E418E46C21541468E41825
:102E5000E56C0446303429551468E418E56C0446E2
:102E6000603429551468E418E56C04469034401C1D
:102E7000C0B229552D28E5D31268D318D86C5862F2
:102E8000044630341C629030D8610B4814464834F4
:102E900001800921417105238371C171037242814F
:102EA00000F00CF8FF2020706070A070E0701F2010
:102EB000207170BD80030020C000002010B50648BE
:102EC00001680648406A002803D020220BF035F83C
:102ED00010BD0020087010BD8003002030040020C9
:102EE000F8B5069C1F4615460646002C13D0A06870
:102EF00002220D3005F08AF8E81E82B23B46072117
:102F0000204605F0EBF9E580A068012E05D01D21D3
:102F100001730020F8BD4720F8BD1B21F8E770B50C
:102F200015460646FFF783F80446082D0BD1052CFD
:102F300009D1304606F0F8FF002804D0008940048B
:102F4000800F00D00024204670BD2423184204D0F6
:102F5000C81F092803D82032D171002070474220B1
:102F600070470000F1B5FFB001248BB060020590FE
:102F70000027CC4807970168CB48C94D0818039033
:102F80008A980AAA0005000D05A906F0D9FC06904A
:102F9000002872D104260AA805994218203AD27F47
:102FA0000B2A23D00026002004900AA881190222AF
:102FB00001A8029105F02AF86846818809AB08AAA1
:102FC000039802F09BFF012817D002287ED06846A4
:102FD0008088854200D30546844200D920460446B5
:102FE00002988078012872D013363CE1491E761E83
:102FF00036040591360CCFD1D5E708980090002F04
:1030000066D1009902222831029804F0FBFF0028C3
:103010001ED100982030017B02988078814217D120
:10302000012808D10098029902220830C91C04F036
:10303000E9FF002815D002988078022808D100986E
:10304000029910220830C91C04F0DCFF002808D0C7
:103050000098008DA84200D80546A04200D2204624
:10306000044602990AA88978012907D013360599E0
:10307000B6B28E4204D3012707E006E1761DF6E7DB
:103080008119022201A804F0C1FF039900980831B8
:103090008E462FE084466946026A8B8820300DE018
:1030A000918B994203D3012F7ED199427CD9A942B9
:1030B00000D80D46A14200D30C4612688242EFD1DF
:1030C0000498002804D16046006802E015E0BFE0E3
:1030D0008AE070450ED0018D994203D3012F09D1AA
:1030E000994207D98D4200D30D468C4200D80C4638
:1030F000012F59D17045CDD1BAE008980090002F2A
:1031000072D1009902221C31029804F07BFF002842
:103110001ED100982030C17802988078814217D162
:10312000012808D10098029902220830C91C04F035
:1031300069FF00281AD002988078022808D10098E8
:10314000029910220830C91C04F05CFF00280DD041
:103150000098808BA84200D80546A04200D22046A5
:10316000044602988078012826D003E002988078EF
:10317000012805D013360798B6B201281ED021E0E9
:1031800000984A490089884216D18A9800F0DEFEEC
:103190000146009800F0BAFD0099098C4843009957
:1031A00089694018022200E038E00299491D04F0C4
:1031B0002DFF01200790D4E7761DDCE7B61C002028
:1031C000B6B207900598864201D3012705E00AA808
:1031D0008119022201A804F019FF039A009908320C
:1031E00009980968944630E01AE086466A46938852
:1031F00020300DE08A8B9A4203D3012F0ED19A42E0
:103200000CD9AA4200D81546A24200D31446096838
:103210008142EFD1049800282AD102E001200490D5
:1032200026E07046006860450FD0028D016A9A4220
:1032300003D3012F09D19A4207D9954200D31546ED
:10324000944200D81446012FE8D16045CDD10FE05B
:103250000298C078022805D102980079292801D166
:10326000B61CB6B2761D0598B6B2864200D30127C9
:103270000598811B042902D3864200D293E6049864
:103280000028FBD1A54203D906987FB00CB0F0BD51
:10329000224629468A9803F0B9F80690F5E700001F
:1032A000FFFF0000800300202C070000022900001F
:1032B00070B515460C46064606F01EFE20346179B0
:1032C000012D09D00A0702D54207920F0FD0CA0676
:1032D00025D5020709D522E0CA0702D04207920F7E
:1032E00005D08A0705D5020703D4082070BD052044
:1032F00070BD490707D5C00709D0E179304606F00F
:103300006FFD5F2805D02079C00704D005E00F20AD
:1033100070BD0C2070BD022070BD002070BD8906FC
:1033200007D5C007F3D0E179304606F059FD5F2894
:10333000EFD02079810701D4022D07D0410701D4B5
:10334000042D03D00007E8D4082DE6D1032070BD7A
:1033500010B505F09BF804F062FE0AF055FE012856
:1033600001D100F004F800F047F910BD7047704734
:1033700000207047002101E000BF491C8142FBD3BF
:1033800070470000F3B58BB005461C2248A103A886
:10339000FEF706FB684602F0CDFE09240126E4068E
:1033A000002D67D04420694688764848017A314329
:1033B00001724C206946C87520200875B2204877F4
:1033C0005B2008A90870424A906A4249030C8B426C
:1033D0000AD108AFFB788F273B4008AFFB70FB7822
:1033E0004007400E0343FB70506A020C8A420AD128
:1033F0006B465A7CCF231A406B465A745A7C80071E
:10340000800E02435A7432484038006B020C8A42E4
:1034100009D108AAD17889088900D170D1788007AC
:10342000800F0143D1706946C87DFB210840694681
:10343000C8754878897800010843122808D308A97C
:10344000C8780421084308A9C870C878FEF79EFE12
:1034500003A8012180B209044018E060E068C003BD
:10346000FCD469464878897800010843122801D3C2
:1034700007F0A4F91849088B0028FCD00E83172008
:103480008881002008610C98002806D0216910204E
:103490000140226902408A42FBD0002D02D00F4930
:1034A000152008700F490E4808600DB0F0BD0000EF
:1034B000023F00023E30023C20023B4C023A4002F6
:1034C00039B202345B02350B0000000000002040DE
:1034D000C007001055AA0000000010480000C040BE
:1034E000CCBCECFC1400002000B585B00421012008
:1034F00008F0EBFF010003D011A008F04DF8FEE743
:1035000008F0C0FE010003D019A008F045F802E061
:1035100020A008F041F804A903A80191009002AB93
:1035200008220021012008F013FD010004D021A091
:1035300008F032F805B000BD27A008F02DF8F9E733
:103540004572726F7220696E206163695F68616C99
:103550005F7365745F74785F706F7765725F6C65B9
:1035600076656C282920307825303478720A00007E
:103570004572726F7220696E206163695F67617462
:10358000745F696E69742829203078253034787228
:103590000A0000006163695F676174745F696E6946
:1035A000742829202D2D3E20535543434553530D58
:1035B0000A0000004572726F7220696E20616369B3
:1035C0005F6761705F696E697428292030782530E3
:1035D00034780D0A000000006163695F6761705F05
:1035E000696E69742829202D2D3E2053554343458B
:1035F00053530D0A00000000F8B5104E306820301B
:10360000C57D002D19D0002409273F0210E0E907ED
:103610000BD0C019016B5820604308184030417D21
:10362000204603F063FE002807D06D08641CE4B256
:103630003068AC21095CA142E9D8F8BD80030020C4
:10364000F3B581B01322D201012101A804F050FC8E
:10365000914C04222060432101A804F049FC01257B
:103660002168ED02491988600422432101A804F071
:103670003FFC216804224919C860FF21843101A858
:1036800004F036FC21680C224919844D0861A97F99
:1036900001A80B3104F02CFC092621683602891997
:1036A0004865A97F202201A804F022FC216810228D
:1036B00089194864A97F01A804F01AFC216828220E
:1036C00089198864052101A804F012FC21683022C0
:1036D00089190865052101A804F00AFC2168FF2268
:1036E0008919C8640132012101A804F001FC216894
:1036F00058228919C865A97F01A804F0F9FB21683F
:10370000202289190863A97F01A804F0F1FB216830
:1037100089194863AA8B012101A804F0E9FB0F274E
:103720002168FF01C9190860298B282201A804F02B
:10373000DFFB07212268090251188867698B302254
:1037400001A804F0D5FB0721226809025118C867B7
:103750000C22012101A804F0CBFB21680C2289195D
:10376000C862012101A804F0C3FB2168282289193D
:10377000C96A8860284620300090417801A804F08A
:10378000B7FB216804228919C96A89688860009892
:10379000417801A8491C04F0ABFB2168102289196B
:1037A000C96A89684860A97F01A804F0A1FB216863
:1037B0000222C919C867A97F01A804F099FB2168F2
:1037C0000222C9194865A97F01A804F091FB21686C
:1037D0000222C9198865A97F01A804F089FB216824
:1037E0000222C919C865A97F01A804F081FB2168DC
:1037F0000122C9190866A97F01A8491C04F078FBB9
:1038000021681022C91988670B2101A804F070FBF8
:10381000072122680902511888610422802101A829
:1038200004F066FB216889198863029ADC20424310
:10383000012101A8443204F05BFB21688919C863A7
:10384000029AD8204243012101A82C3204F050FBF7
:103850002168F02289190864012101A804F048FBBD
:103860000F4C7C222060A97F01A804F041FB216855
:103870000822C867032101A804F03AFB2168282226
:1038800080310860012101A804F032FB21688031F9
:1038900048600198FEBD0000800300203004002035
:1038A00084030020704710B5C001000C00F0E8F957
:1038B000002010BDFEB572B63F4D082328680146B2
:1038C0004030C2791A43C27162B6002001276C46AB
:1038D000FF0282005218D219526952884300401CDC
:1038E000C0B2E2520328F4D372B6C81900210668A8
:1038F000016062B6F00702D000200AF097FFB0071F
:1039000002D501200AF092FF700702D502200AF0CA
:103910008DFF300702D503200AF088FF002623E040
:103920000D281AD2211D254A8000125820469047A2
:10393000002812D072B62868F7224030C1791140B1
:10394000C17162B630E03A2807D21C49231D8000BD
:10395000E8390A58194620469047029829684018C5
:10396000C01940692188018071006846415AB00041
:1039700002902A688018C019406902889208920053
:103980001418028808348A420ED0A27891070BD00E
:103990009107890F012901D104460834A0788008D5
:1039A000C006E078CFD5BBE7761CF6B2032EDBD39A
:1039B0000AF038FEFEBD0000800300206C2A0610CD
:1039C00070B50AF049FE104C01252068ED0240193F
:1039D000806840210AF08AFB216849194861C8685B
:1039E00040210AF083FB2168491988610869FF2199
:1039F00081310AF07BFB216808224B19D861002134
:103A0000184604F007FB70BD80030020FEB5064693
:103A1000294814460068294A8518C888032806D012
:103A20002346002202210420FEF7A1F842E0896823
:103A3000022268460D3104F0E9FA326990052ED46D
:103A400068460188172903D35C20405B172801D200
:103A5000172002E0814200D2084670800120400217
:103A60000243022032610190134837210068490166
:103A700041183788097B7688012349070FD5D90279
:103A80000830401824224069022108F0D5F90028A6
:103A900005D08780C6800146019808F0B9F9A06872
:103AA00003260673A068294602225C310D3004F01B
:103AB000ADFAE6800020FEBD800300202C07000048
:103AC000F7B590B000206A460D9090826A4A6B4B21
:103AD00012680446D218CB88022B08D00022182185
:103AE0000420129BFEF743F8002013B0F0BD8B6852
:103AF00000205E7B0A900B908888303201920990FA
:103B00000027019808F036FD054620E02868089057
:103B1000A9880998814219D1A968022207A80D3104
:103B200004F074FA002F01D16846878B6846808BB9
:103B300087420BD12946019808F069FD00202860D2
:103B40000A98002811D00B9805600B95089D002D50
:103B5000DCD1002FD4D11298192180680173012182
:103B60001298012EC18002D081E00A95EDE702A9EA
:103B70000AA8FEF729F8002879D069460A89182191
:103B8000129BFDF7F4FF002671E0816805460222D2
:103B900002A80D3104F03AFA012E66D16846008978
:103BA00001F038FB014668460EAA008902F0C4F90C
:103BB0000E9C1099204600F0A9F80D9055E02F6852
:103BC000012E3FD1002F06D0B968022205A80D3181
:103BD00004F01CFA02E0002069468882A9680222EB
:103BE00004A80F3104F012FAE8880D99401F80B242
:103BF0000090208CA269484369461018098A009AEF
:103C000043180921284604F079FA2220005D012892
:103C100004D16846018A00980818E0836846018943
:103C2000808A81420ED0208C0D99A26948431018D9
:103C30000021019000911098E38B0188A28B022053
:103C400008F098FA0A9908680A90002008600A9912
:103C5000002900D10B900121284604F0EBFA6946B7
:103C60000889898A884202D13D46002DA7D10A9849
:103C700000288AD139E70000800300202C070000CB
:103C800000B508490968084A914209D14006010C6B
:103C900006483F22028181611121018000F02EF847
:103CA00000BD000014000020CCBCECFC0000104063
:103CB0000349098A014201D0012070470020704762
:103CC0000000104000B5094A1268094B9A420BD116
:103CD000084A3F2313818008906106484030016004
:103CE0003320108000F00AF800BD0000140000200E
:103CF000CCBCECFC00001040006870470248018A10
:103D0000C907FCD0704700000000104030B50246E3
:103D100023239B5C0020012B1AD112890D4B9A4260
:103D200016D10D4A092312681B02D318A0325B6B0F
:103D3000127B0AE045010C885D5B24052D05240DEE
:103D40002D0DAC4204D0401CC0B28242F2D80020FB
:103D500030BD00000229000080030020F7B578483C
:103D60000F460068774988B04418F888072804D2BD
:103D70000022062104200A9B2AE0B9680222684634
:103D80000D3104F043F9B968022201A80F3104F0A3
:103D90003DF9B968022204A8113104F037F9F88816
:103DA000C01F80B2039068460288808882420CD887
:103DB000002A0AD00898002142880A9804F072FB71
:103DC000002808D045200BB0F0BD062101200A9B39
:103DD000FDF7CDFEABE00A98072180680834017337
:103DE0000121684601810594008801F013FA05005D
:103DF0007CD086E06846008A0522D202904202D03A
:103E0000521C904226D168460088814278D32946C8
:103E10000B2208313846039B04F006FA69466A8D86
:103E2000098A8A426CD10399022901D0102967D1ED
:103E3000002865D12A462846296A28322030814246
:103E400002D06B6A1C3300E0134602A90A98FDF702
:103E5000A1FE55E02E462C6A2036B4424ED14FE0EA
:103E60006946A08B0988884247D369468988884279
:103E700057D82320005D01283FD120460899FFF73D
:103E800045FF218CA269414351180B223846039B00
:103E900004F0CAF90690089801220088214600051E
:103EA000000DFEF7C4F801466A462089128A904246
:103EB00023D1002921D1E28B03998A421DD1069991
:103EC00000291AD108996A4649881289891A042951
:103ED00027D322461C491C32884208D12068B042B0
:103EE00005D00089884202D02468F7E719E023460C
:103EF0001C3302A90A98FDF74DFE2468B442AFD1E5
:103F00002D68059885420CD06846298D80888142AD
:103F100007D808986A4640881289801A042800D376
:103F200068E768460089012803D90A99C8800020FB
:103F300049E76846028806210A200A9B48E70000F4
:103F4000800300202C0700000328000010B50D4955
:103F500000050B680921090259184A6B0021000D60
:103F6000A0331B7B0AE04C01145B2405240D844222
:103F700002D14801801810BD491CC9B28B42F2D849
:103F8000002010BD80030020FFB589B00024054645
:103F90000794D0881646052804D00022042108463C
:103FA0000C9B20E0B168022208A80D3104F02EF825
:103FB000B168022268460F3104F028F86846028C86
:103FC000008882420CD8002A0AD00A980021428830
:103FD0000C9804F067FA002808D045200DB0F0BD19
:103FE000042101200C9BFDF7C2FDB9E06846008C5E
:103FF00001F010F9060076D0083504950498864241
:1040000072D06946308D098C884230D36946098860
:1040100088422CD8002C0AD1012107910C98052147
:104020008068022401730C980799806841730A988C
:104030004088001B042857D30798012854D1201D1D
:1040400081B23346283302220C9804F047F9A01DB0
:1040500081B233462A330222A41C0C9804F03EF9A4
:104060006946A41C308D0988A4B2884274D03746B2
:10407000356A2037BD42C1D060E06946A88B098C03
:1040800088425AD369460988884265D8002C36D0C0
:104090002320415D0798814260D10A984088001B27
:1040A000042802D30799012904D0122856D307986F
:1040B000022853D1201D81B22B461C3302220C98BA
:1040C00004F00CF9A41C0798A4B201280DD0201DFF
:1040D00081B22B46083310220C9804F0FFF82046DA
:1040E000103084B229E03DE036E0201D81B22B463D
:1040F000083302220C9804F0F1F8A01CF1E7232009
:10410000415D07910C9805218068022201730C988B
:104110000799806841730C98294680681C310E30DD
:1041200003F074FF079901290CD02B4608331022A5
:1041300008210C9804F0D2F814242D68BD429CD1BB
:1041400036685BE70C9829468068022208311030F7
:1041500003F05CFF0624F0E7002C03D00C98C48029
:1041600000203BE76846028C04210A200C9B3AE7BA
:10417000064909220968120289188008496B400122
:1041800008180188002900D1002070478003002012
:1041900070B50C460B4E81000B4832680D18012398
:1041A0002032D37721462846FFF78CFD286800216E
:1041B000844201D1084600E0FB2032682032D177EA
:1041C00070BD0000800300200000041038B5184ABC
:1041D00014682246BA32AE34A378DD0701D0012933
:1041E0000AD05B070CD501290AD0217949070BD5E4
:1041F000E17A002905D007E0E07880210843E070EB
:1042000038BD0121E172508020794106090FF7D0B5
:104210007821084069460870002048706A460221EB
:10422000422007F009FF207987210840207138BD1E
:104230008003002070470000FFB50C4678A103C939
:1042400095B001910090002108A801730321C902D3
:1042500068464186012108A8734E017435681746E7
:10426000AE3502F03FF8002808D170493068401898
:1042700001F01CFFA878002802D0462019B0F0BD3C
:104280000BA8159900F0B2FA0028F7D1072010A961
:104290000871012C05D0022C0AD0002C0ED042202F
:1042A000ECE708A8017B1020014308A8017305E092
:1042B00011A90BA800F0A9FA0028DFD110A80279F3
:1042C00001230CA9284600F0DFFE00287ED102223F
:1042D0002946189803F09AFE29886846818115219D
:1042E000490201820784012686734E2108A8817045
:1042F0000024C470067107214171867103A902A8C8
:1043000000F078FC002861D1022202A91E9803F077
:104310007DFE082F02D26846478502E008206946E4
:10432000488569460C850B4628880AAA098901F048
:10433000E9FB00286DD13E496846018202270784C7
:1043400008A8847103A902A800F054FC002860D1D9
:10435000022202A91F9803F059FE684604706946BC
:1043600044704F850B4628880AAA098901F0CAFBC8
:1043700000284ED108A8007BC00723D02C496846EE
:10438000C91C01820821018408A88770047103A94F
:1043900002A800F02FFC00283BD1FF216846C17124
:1043A0008171C170817041700170447104716946FE
:1043B000082048850B4628880AAA098901F0A2FB33
:1043C000002826D108A8007B800600E021E022D545
:1043D0002988684681811649A53101820684867341
:1043E00008A88770C470047107214171847103A902
:1043F00002A800F0FFFB00280BD169460E700C8567
:104400004E850B4628880AAA098901F07BFB002803
:1044100001D0472032E708A8007BA87000202DE7D4
:10442000626C75656E72672180030020EF060000E4
:10443000012A0000034800210068AE30C17081707D
:10444000704700008003002038B502461748012459
:104450000068AE30022A1FD0052A03D0072A07D0F1
:104460000B2A20D1084609794088FFF7AFFE1AE0F1
:1044700000790024020600D50124820703D1C20678
:1044800001D480060FD5084600216A46117069469E
:1044900007F050F8044606E08178490703D5017912
:1044A000FB2211400171204638BD0000800300202E
:1044B00010B509480468AE34E07880070BD50020B9
:1044C00002F054FC022007F05DFDE0780121084372
:1044D000FD210840E07010BD800300200FB410B52E
:1044E000079C01282DD1684680891749884210D140
:1044F00003A80FC800F0AEF900281DD105F036F969
:10450000FA281ED001281CD92078F32108402070F9
:1045100017E00D49491C884208D0C91E884205D0C1
:10452000491C884202D0C91C88420AD103AC0FCC76
:1045300000F090F9002800D0632010BC08BC04B043
:1045400018470020F9E70000022A0000FFB50746DF
:1045500073480D4604688FB0AE34A1781E46C80675
:1045600002D5E078C0067DD4880607D5E0788006BD
:10457000800F03D0022F01D0002E73D08806800F49
:1045800006D0022F08D0032F06D0002E6AD003E0F9
:10459000012F01D0002FF8D1880603D4002D01D0BF
:1045A000012D5FD1002E06D130200140384602F0A7
:1045B000BBFA002856D1119900200870A17889060D
:1045C0008A0F7DD00CA908A802F042FD07900DA922
:1045D0000AA802F069FD06900798002802D0069804
:1045E000002801D1012E58D1022F04A807D001F0D4
:1045F000CBFC002E3CD00798002803D012E005F039
:104600005EFEF6E7464F47483B68062208A91818A1
:1046100003F0F8FC0028386808D04030417E490893
:10462000490041760698002805D014E04030417ECC
:1046300001221143F5E73A4F3A483B6806220AA99E
:10464000181803F0DFFC002838680CD04030417E99
:10465000FD22114041760798002809D006980028CD
:1046600006D01AE043E04030417E02221143F1E7D8
:104670002B48062203682B4804A9181803F0C6FC2F
:10468000052069460873002E02D1084606F0B8FBE3
:1046900025480290684606F067FBA078800611D591
:1046A0001198032101702079C10603D5002D01D096
:1046B000022D1CD1800605D5012D03D0032D00E06D
:1046C00018E014D1A078C00627D5119901200870F0
:1046D0002079C10601D5002D09D1810601D5012D12
:1046E00005D1000619D5002D17D0012D15D0422077
:1046F00013B0F0BD012F01D1002E03D0890F31433B
:1047000009D00AE00648062203680648611D181809
:1047100003F07CFC0120119908700020E8E70000FC
:1047200080030020EF060000A0BB0D003EB509F09D
:104730007DFD044609F006FE082C01D1082813D09F
:104740000A480B49006806224118684603F05EFCDF
:1047500068464079400601D5022000E0032001238D
:1047600002AA0021FFF7F2FE3EBD000080030020F8
:10477000EF0600001FB50E480468AE34E07801066D
:1047800012D5A178C9070CD0800708D50420694646
:104790000873684606F034FB022007F0F3FB0020A4
:1047A000E0704006400EE07000F02EF81FBD0000E3
:1047B00080030020F0B58DB00C4616A9E0C9002199
:1047C000089109910A910B911599049105A9E0C1ED
:1047D00012A962C9009301911346014603960295FE
:1047E0002246012007F000F80DB0F0BD0A07920F35
:1047F00001D0422070478A07FBD002788907890FD1
:104800000A43027000207047704742207047000042
:1048100010B50446022000F051F80D48002102684E
:10482000092000021018A032436B107B05E04A01FA
:104830009A5A002A04D0491CC9B28842F7D810BD40
:1048400048011C52C018026904210A43026110BDCC
:10485000800300201FB582B0002401F0EFFB694601
:1048600001F07AFB009A6846116A0089203209E05B
:1048700023235B5C012B04D10B89834201D1641C8F
:10488000E4B209689142F3D1204606B010BD0000A1
:1048900010B504460146042001F0D8FF002808D0D6
:1048A000044805490068401821463C3007F092FE54
:1048B000432010BD800300202C07000004490A6833
:1048C0003B21490151180A7D02430A7570470000D7
:1048D0008003002000B51138C0B2FFF749FC002862
:1048E00004D00122016952051143016100BD01217B
:1048F000890788627047012292070029D16901D097
:10490000014300E08143D16170470CC80121890750
:104910000838012B0B690BD093430B618268012A85
:1049200008D0002A0AD04A69006802434A617047E9
:104930001343F2E78A6903681A4302E08A6903684D
:104940009A438A614A6900688243EFE70121890737
:10495000496A014201D0012070470020704770472A
:10496000F0B5027901239B070168002A02D0062ACC
:1049700003D006E05C688C4302E05C6800220C43D4
:104980005C6000210F240568CD40ED07ED0F37D0A6
:10499000082909D2DE6A8D002746AF40BE4317467C
:1049A000AF403E43DE622BE00D46083D082D0AD2A3
:1049B0008D002646203D1F6BAE40B7431646AE40E5
:1049C00037431F631CE00D46103D082D0AD28D00B1
:1049D0002646403D5F6BAE40B7431646AE40374378
:1049E0005F630DE017290BD9114E8D002746603DFE
:1049F000368BAF40BE431746AF400D4D3E432E832E
:104A0000491CC9B21A29BED341790129D968026863
:104A100009D09143D960817901299968006804D04F
:104A200081439960F0BD1143F4E70143F9E70000C9
:104A300020000040012189070968014201D00120BE
:104A4000704700207047000001490860704700006F
:104A50004000004001218907C863704700210160C0
:104A60000171817141717047012902D003490860C9
:104A7000704701218907C86370470000400000406B
:104A800003480068AE3080788006800F70470000D1
:104A900080030020F3B597B00D8848880590081D65
:104AA0001DC80DAE1DC68C8ACE8A087E1390C869BB
:104AB000203101900878009048780490887803901D
:104AC000C87802900F7900F04BFD002817D1012023
:104AD000400284425FD8B4425DD8002F01D1B44275
:104AE00059D114A9284601F037FA002806D115AA91
:104AF0001499059801F020FA002802D0602019B01E
:104B0000F0BD149D11A92846183002F083FF10A8AB
:104B10008088002810D0284612A9203002F07AFFA1
:104B200010A8838800892A8D1818696A10188A8B42
:104B3000904203D16120E2E74820E0E715982C4B32
:104B400002899A4227D12322125C012A23D10068CC
:104B500000681690139801281FD16846808E29227C
:104B60001202801A030006F034FD0604180404073C
:104B70000A18022C0FD110E0072C0CD10DE0042CE8
:104B800009D3E00707D1012F07D1A64203D3042E92
:104B900001D3F00701D04220B1E702980B90039BAC
:104BA000049A0A9309920098019A0C970890069625
:104BB000059407920DA81DC8019002A81CC0139867
:104BC0000B4600902A461699179800F0B1F9002874
:104BD00095D168460649808EFF31884205D01798E6
:104BE000018800200A4601F011FC002087E7000040
:104BF00003280000F3B5A5B008881A9088780C4601
:104C000011901022091D13A8FCF7CAFEA08A10906B
:104C1000A17D68460172E07D0F90207E2090677E26
:104C2000A07E1F90002006460146129020A8018118
:104C30000F20BB4C2390BB4920684018199000F00E
:104C40008FFC00280BD101211098490288425FD8BF
:104C500021A91A9801F080F9002802D0602027B01D
:104C6000F0BD2198179001F0E9F91A9988420CD10A
:104C700002A801901698009013AD0ECD1198FFF781
:104C80002DFC002801D06320E9E76846017A8806F8
:104C9000800F05D0012012902068A030007B4600D4
:104CA000C80703D01298401CB61C1290080603D502
:104CB0001298401CB61C129017980DA918301D9020
:104CC00002F0A8FE6846129C808EA41CA04237D336
:104CD00017980EA92030019002F09CFE6846018FC3
:104CE00000290DD01798179A6B46406A9B8E128D3B
:104CF0005918808B5118081AA04201D26120AEE7E2
:104D00001798846911982568012803D0022803D0D8
:104D10004220A4E7052000E01320E0832A4639461C
:104D20000F98FEF712F9422899D0199FE28B40376D
:104D3000788B398B411A109810188019814201DA4A
:104D400048208CE70EA9019802F064FE6846008FA7
:104D50000028179802D0406A808B00E0008D2599CA
:104D6000401C0880259801210088A08325980222F4
:104D70000088401CA8836C48208120462030179072
:104D8000C1700021817081711998398B406D401874
:104D90006946A061097A0170A06929461C31401C4E
:104DA00003F034F911980128A0697DD0102213A9CD
:104DB000C01C03F02BF92846102213A9083003F079
:104DC00025F9388B133038832E4620361198F07031
:104DD0001098E8831F98B070109820841098288449
:104DE0001998398B406D4018A8610021109A03F082
:104DF00011F9398B10980818388317990120087118
:104E000017990020487130716846007A810701D5F2
:104E10000121317101070227002902DA3179394372
:104E20003171410703D531790422114331714006B4
:104E300003D530790821084330710F98707120989C
:104E4000B07121461D9802F00EFE2146019802F035
:104E5000EBFD29461D9802F006FE2946019802F056
:104E6000E3FD1298002841D068461A998181A18BF0
:104E7000C18107844784012408A8047122A80A90EC
:104E800008A88473239941730F993820014008A81A
:104E900001730721C173002505746846007AC007B5
:104EA00008D02248694600E02BE0088203A924A824
:104EB000FFF7F0FD6846007A8006800F07D01B4898
:104EC0006946401E088203A924A8FFF7E3FD68464F
:104ED000007A00060AD5292109026846018208A83D
:104EE0004473057303A924A8FFF7D4FD259801880E
:104EF0001298401C081882B2002001F087FA0020A6
:104F0000ADE6022213A9C01C03F080F82846022255
:104F100013A9083003F07AF8388B401D53E70000DE
:104F2000800300202C070000032800000329000054
:104F3000FFB55248524A006887B08218069210AAFC
:104F4000109B0126169F9288012B04D14D4B9A424B
:104F500001D1A030067B069D34464035688B2B8BF3
:104F60007C43C31A099820300390A34222DA4820D8
:104F70000BB0F0BD2320405C012819D108896C4694
:104F8000208098420CD03F4C641EA04208D0641C84
:104F9000A04205D0641CA04202D0A41CA04207D1AC
:104FA000384CFF3CA04201D0904201D16220DFE7A3
:104FB000096801E029231B0203988142DAD109988C
:104FC0001B99846918982246FDF7BFFF4228CFD06D
:104FD0001C98012804D11598874201D24220C7E7C6
:104FE0001598E083204620301C9905908170278415
:104FF0000A98808B401CA0831098012814D020466A
:10500000102211A9083003F001F805991098C87012
:105010000698298B406D4018A061298B3846704353
:105020000818288300250FE011A80FC808340FC402
:10503000183CEAE72846A16978430818159A179999
:1050400002F0E4FF6D1CEDB2B542F3D30599189858
:10505000487105991998087105991A9888710998E5
:105060002146183002F0FFFC2146039802F0DCFCD8
:105070000798A18B018000207AE7000080030020C0
:105080002C07000002290000FFB58FB014460E78EF
:10509000102205A8891CFCF783FC4F484F49006883
:1050A000451800F05DFA00281ED1002C57D0012EC3
:1050B00009D16846808A4A49884204D12846A968AD
:1050C000083081424BD12846103029690390814233
:1050D00009D00AA9284602F09DFC6846018D601E91
:1050E0000D90814202D2482013B0F0BD284608300E
:1050F0000CA9049002F08EFC6846008E002814D0A3
:10510000EF680AA93846183002F084FC384620308F
:105110000CA902F07FFC6846398D008D091868469D
:10512000008E401C081887B200E00127012000040F
:10513000C01BA04201D26120D6E72C6928680190EB
:105140001298012802D0022803D008E00520C002EE
:1051500000E024486085012E03D0022E05D04220B5
:10516000C2E720460830022202E020460830102222
:1051700005A902F04BFF2046314620300646017358
:105180000F98214607802785039802F06CFC214682
:10519000049802F049FC27461837E7616662A76168
:1051A00026620D9884B20BE02846019902F05BFC60
:1051B0003846019902F038FC2868641EA4B20190B8
:1051C000002CF1D10F9801880D98081882B20020A8
:1051D00001F01CF9002087E7800300202C07000065
:1051E000011800000128000002460848084900682C
:1051F00041188868083103E0038D934202D20068A9
:105200008842F9D1884200D10020704780030020F5
:105210002C070000034610B50E480F4900684118DE
:105220008868083103E0148D9C4203D81046026858
:105230008A42F8D18A420CD1018D994209D20146A5
:10524000026A20318A4203D0416A898B994200D296
:10525000002010BD800300202C070000024610B57E
:105260000B4812050168092000020818436B002052
:10527000120DA031097B07E044011C5B2405240DBD
:10528000944203D0401CC0B28142F5D810BD00004A
:1052900080030020F7B505461746019807F06AF924
:1052A0002E050446360D0CE0A0882568B04207D1D3
:1052B0002146019807F0ABF93946204602F0BAFFC3
:1052C0002C46002CF0D1FEBDF0B58BB00020634918
:1052D000029063480A68141872B610464030C579C7
:1052E00002231D43C57162B625464035287AC007A2
:1052F0007DD00920000210180026476B49E071019B
:105300007A5A002A43D0C919069109694A021ED463
:105310008A0226D5022104910699012309880905EC
:10532000090D0391372149014118097B89070ED5E1
:10533000D9020830401823224069022106F07CFD82
:10534000010004D0039A8A80049806F061FD069853
:1053500000880090069800F085F8009804F0BEFDE3
:1053600015E0480713D5069800880005000D04F0E5
:1053700047FD002805D1069800880005000DFDF7BF
:10538000F1FD069904200969814306980161761CA4
:10539000F6B23248AC210068095CB142AFD803F0E4
:1053A00041FA20462430064607F02AF9012802D0A7
:1053B000012003F03BF92046183007F021F90128BD
:1053C00002D0002003F032F93C34204607F018F9EF
:1053D00001280FD002A9204607F03BF904200299CA
:1053E00001F034FA0028F0D02046029900E032E0C3
:1053F00007F0DDF8287A00062DD5304607F000F9D1
:10540000012828D1002002F095FEA98B23314909FB
:10541000491CC9B2FCF7AEFA00281CD00F4D044657
:1054200028680123D90208304018422638224069F2
:10543000314606F001FD01000DD000228A80CC80AB
:10544000304606F0E5FC3B212A68490151180A7DE7
:10545000802082430A750BB0F0BD0000800300205D
:105460002C070000F0B504463B483C49006885B075
:105470004518218A890419D502210491372149014F
:105480004118897B412627880123C9070ED0D902FC
:105490000830401831224069022106F0CDFC01009D
:1054A00004D08F808E71049806F0B2FC29462088C3
:1054B00001221831FFF7EEFE294620880122303103
:1054C000FFF7E8FE2946208801222431FFF7E2FE9B
:1054D0002946208800223C31FFF7DCFE20880005A9
:1054E000000DFFF7BBFE85002946113168460173A8
:1054F00005F086FC294612316846017305F080FCF0
:10550000294613316846017305F07AFC6846143564
:10551000057305F075FC208800F03CFA2088010531
:105520000D48090D0268252080011018028B914258
:1055300001D100210183E069002802D0012102F09D
:1055400079FE202200212046A56802F063FD172085
:10555000A560608005B0F0BD800300202C0700002E
:1055600010B50B480B49006844184034207AC00736
:1055700009D0002002F0DEFD217A890701D500283C
:1055800003D0002010BD472010BD642010BD0000D6
:10559000800300202C070000F0B55FA099B00068E0
:1055A0005E4915905E4A0868841809221202821822
:1055B000526B2546403514922A7AD20702D06220D7
:1055C00019B0F0BDAA8B01235B029A4201D9AB83CB
:1055D00003E0172A01D21722AA83149AA03013924B
:1055E000067B0DE0761EF6B2139871010F18B868AD
:1055F0000F9038462022002102F00CFD0F98B86071
:10560000002EEFD120460830E0606460A060246086
:105610000830139060612061FF220021083006F0FD
:10562000BEFF2046FF220021243006F0B8FF2046AE
:10563000AA7F0021303006F0B2FF2046FF22002171
:105640003C3006F0ACFF00222A7210461721334B83
:1056500005E0149E4701BE19401C7180C0B21E684F
:10566000A036367B8642F4D8002028832F8C688CA5
:105670000026149008E02820E16C704309182046A9
:1056800002F0D2F9761CB6B2BE42F4D3002608E08E
:105690003020216D70430918139802F0C5F9761C6B
:1056A000B6B214988642F3D30120FFF707F901241C
:1056B000684604701B4941802346042269460CA8B1
:1056C000FFF7E2FC002822D16846018E818216494C
:1056D0000183042606858475202108A88172002490
:1056E000C472047307214173847305A90DA8FFF7E1
:1056F00081FA00280BD1684604874687818E15AB56
:105700000EAA008E00F0FEF9002800D158E7002014
:105710002872472054E700000000FFFF80030020AC
:105720002C07000001180000052A0000F8B5044607
:1057300083480E460068834947184820C05DC0076B
:105740006FD0B088FEF702FC0546012C02D0002C79
:1057500068D0F3E0002D04D02869410703D5452027
:10576000F8BD0121C7E0B268F188147B0029F0D0B0
:1057700062060AD568888842F3D3D22C01D0522C15
:10578000EFD138463146183048E0A106890E1E296F
:1057900049D81E2C20D101071ED508218843286135
:1057A0002988012005F010F90121304602F042FD60
:1057B000634801230068D9020830401842242D882C
:1057C00039224069214606F037FB010003D08D8065
:1057D000204606F01DFBB1E0E1070BD01D2C1AD0CE
:1057E0001B2C18D0410533D4012189020843EE61F6
:1057F0002861A3E0C00606D52B46022203214220E1
:1058000006F034FEADE72988002005F0CBF82969C1
:1058100010200143296138463146243006F0DAFE73
:105820008CE015E016E029882022002002F0A6FC7A
:1058300005000DD00121304602F0FCFC2B46002271
:1058400021460620FCF793F92846FFF721F875E07A
:105850004120F8BDB068047B1D2C3CD01B2C43D0EC
:105860000021304602F0E6FC002D67D0032C46D024
:10587000052C44D0072C42D0092C40D00B2C3ED014
:105880000D2C3CD00F2C3AD0112C38D0132C36D004
:10589000172C34D0192C32D0012C30D0022C35D01A
:1058A000042C33D0062C31D0082C2FD00A2C2DD02C
:1058B0000C2C2BD00E2C29D0102C27D0122C25D01C
:1058C000162C23D0182C21D0522C1FD0D22C1DD016
:1058D0001E2C2FD032E0002D03D02988012005F0A6
:1058E00061F83146022001E03146012004F018FF42
:1058F000002823D00021304602F09CFC1EE02969DC
:105900001020814329612988002015E02869402161
:1059100088432861010511D5FF2101310843286121
:105920002988022005F03EF801202969C002814340
:10593000296103E02988032005F046F80020F8BD1E
:10594000800300202C07000010B5104A104B12688D
:10595000D2184032127AD20706D002280AD005287F
:1059600004D00B2810D101E0412010BD4888FEF77B
:105970004FFF09E04888FEF7E9FA002804D0012229
:105980000169920511430161002010BD80030020D0
:105990002C070000F1B5FFB085B047200190002032
:1059A0006946088053485449006847188498FEF7B0
:1059B000CDFA0290002874D0B96808374FE06846E5
:1059C00000880D4604AC20186B46022228310CF0EA
:1059D0009AFD68460088294620186B4601222C3122
:1059E0000CF091FD2E462036307B6946012809884F
:1059F00004A809D040186B461022294608310CF043
:105A000082FD01902C6A27E040186B460222F4E7E1
:105A10006946098804A8401821466B4602221C31B9
:105A20000CF071FD6946098804A8401821466B46B0
:105A3000012223310CF067FD2320005D6946012817
:105A4000098804A830D0401821466B46102208313E
:105A50000CF059FD01902468B442D9D12968B942AB
:105A6000ADD1019800281CD16846008881070AD072
:105A7000224A011D11406A4611800A1A04A9081819
:105A80000B2102F0C7FA0298008804F0B9F9002847
:105A900007D1849869460005000D04AA098803F01F
:105AA00087FE7FB006B0F0BD401821466B4602224B
:105AB00008310CF028FD0190208911498842CAD193
:105AC00020460299FEF722F94000A16903906A4638
:105AD0000918128804A880186B4602220CF013FDE6
:105AE0000190A169039802220818002102F092FA9D
:105AF000B1E70000800300202C070000FCFF00003D
:105B000002290000F0B5074617480E4600683B2101
:105B100049014018007D85B01D461446C00706D0D7
:105B200003A9384600F018FA00280AD102E04720FD
:105B300005B0F0BD04AA3046039900F0FDF9002835
:105B400001D06020F4E70499228860880968002A5F
:105B500000D0088C32466E4631C6032339460020F9
:105B600000F004F8E4E7000080030020FFB5002007
:105B700099B0239A0B901290054614900646159002
:105B80001C46DB480B460068DA49229F4118039106
:105B90000021089109915188069111880A913B21B1
:105BA00049014018007DC00706D00FA9184600F033
:105BB000D3F900280AD102E047201DB0F0BD10AA99
:105BC0000F991B9800F0B8F9002801D06020F4E785
:105BD0001998002803D0600701D5012000E00020BB
:105BE0001390A007800F1C90109817902030C07859
:105BF000012840D11798C04B01899942F9D11798D3
:105C0000069904680A98228C4118914233D820469C
:105C1000203016908078012816D0E08B04901798D9
:105C2000806900788006800F7ED0039840301890FD
:105C3000007A800778D51C980028F5D0AE4F0F99D0
:105C4000FF372031206814E0BA4214D3B942DDD8BE
:105C50000497E4E70389A84A934203D12322125C04
:105C6000012A08D0BB4203D12322125C012A03D0AF
:105C700000688842EED134E105900028FBD09C48B2
:105C80000921026809025118496B0027009162E05E
:105C9000780100990390085A01055AD019990029F2
:105CA00001D0884255D105997A008B69511C595C05
:105CB0009A5C0902891889B20D91890749D002229C
:105CC0000599FCF7B4F9002804D01998002840D0B1
:105CD000652072E7002008A9C8551C98C00718D095
:105CE000179880690078C00613D50D98C00710D0AA
:105CF0000120C8550543009A039880184088159ADA
:105D0000904206D91590009A0398105A0005000D8C
:105D100014901C9880071CD517988069007880061D
:105D200017D50D98800700E083E012D50220CA5DE8
:105D300005430243CA5500990398401840881599B5
:105D4000884206D9159000990398085A0005000D5D
:105D500014907F1CFFB266480068A030037BBB42F2
:105D600096D8002D65D01898007A00065FD4604858
:105D70000168092000020818416B00201BE0420165
:105D80008E5A360515D0AE070BD556183669B707AB
:105D90000DD408AF3F5CBF0703D5360701D54620B9
:105DA0000BE7EE0705D05218127CD20701D0432032
:105DB00003E7401CC0B28342E1D81598C01E86B2EA
:105DC0000498864200D90646A8070FD52022002055
:105DD000149902F0D3F9129000287DD0F01C82B201
:105DE0000021129802F057FB002811D1E80720D0BB
:105DF00020220020149902F0C1F90B90002807D04E
:105E0000F01C82B200210B9802F045FB002810D054
:105E10008020FEF753FD1298002802D0002102F0E6
:105E200009FA0B98002802D0002102F003FA64203E
:105E3000C3E6A1690A98069A0818249902F0E6F8C0
:105E400016988078012801D10498E083002D46D06F
:105E5000274B0920196800020818416B002008AA86
:105E60000CE04301CF5A3F0506D05F18BC463B69A2
:105E7000175C3B4367463B61401CC0B21C4B1B6830
:105E8000A0331B7B8342ECD8A8070DD51298009055
:105E9000F01C82B221461C310220A369FDF720F8D4
:105EA0000220129904F03CFCE80718D00B980090EF
:105EB000F61C2146B2B21C310120A369FDF710F88F
:105EC0001398002805D00B988021C07C08430B99BB
:105ED000C87401200B9900E005E004F021FC0020CB
:105EE0006BE6422069E68020FEF7E8FC9FE70000B1
:105EF000800300202C07000003280000F0B5846810
:105F0000083015E0258D8D4203D114601860012002
:105F1000F0BD26461C602036256A06E0AF8B8F4216
:105F200002D102201560F0BD2D68B542F6D124687B
:105F30008442E7D10020F0BD10B50B6A203106E0A5
:105F40009C8B844202D10020136010BD1B688B42E1
:105F5000F6D1412010BD000010B5094A094B126866
:105F6000D2189368083206E01C8D844202D10020CA
:105F70000B6010BD1B689342F6D1412010BD00009C
:105F8000800300202C070000F8B5204E0446356839
:105F9000AE3500F07DF92070000A607000F078F9ED
:105FA000A070000AE07000F073F9C2B28004830EA2
:105FB0002271002163710846275C401C7918C0B229
:105FC00089B20628F8D30029E3D02078FF280CD125
:105FD0006078FF2809D1A078FF2806D1E078FF2853
:105FE00003D1FF2A01D1FF2BD3D00622691D204601
:105FF00002F008F80028CCD031680622204678311B
:1060000002F000F80028C4D0F8BD00008003002092
:1060100010B5094C002801D0012806D004F09CFAE4
:10602000C00000198038806F10BD04F095FAC000E0
:1060300000198038C06F10BDF428061002480068AF
:10604000AE300088704700008003002010B50F4C70
:10605000002803D0012809D002280FD004F07CFAD0
:106060000C21484300198038406F10BD04F074FAC9
:106070000C21484300198038806F10BD04F06CFA81
:106080000C21484300198038C06F10BD0C29061040
:1060900010B50449044B09680622C91801F0B6FF7F
:1060A00010BD000080030020EF06000010B503497A
:1060B00006220968B33101F0A9FF10BD800300205A
:1060C000F7B5164600241CE0009811490019401845
:1060D0008108019889000019427805781202154359
:1060E0008278C078120400060243094815434042F2
:1060F0000F1829463846FDF7E5FD3868854204D17A
:10610000241DB442E0D30020FEBDFB20FEBD0000F4
:106110000000FCEFF0B50E460746002407E03D19ED
:1061200000F0B6F82870000A6870A41CE4B2B4420B
:10613000F5D3F0BD30B5124A114C283A114BD16954
:106140000906090F4170D2691207120F8270226886
:106150000D4D01244260AA4208D11A680B4B9A42A5
:1061600001D1042200E00222027000E00470002944
:1061700000D144700649898A491C8900816030BD7C
:10618000280090401C00001041A0000244A000F232
:106190000000104010B5012818D8072916D80C4A5D
:1061A000126813462033187759778007C906000E06
:1061B000090E01430020074BA03204E08401E418DB
:1061C000A172401CC0B2147B8442F7D8002010BDDD
:1061D000800300200001002003207047074A9142FD
:1061E00002DC5242914200DA1146FF2299325143B9
:1061F0000A1251180A14511808187047FFFF4F006F
:1062000010B50920C00600690002000A04F024FE4F
:1062100010BD704770B51C4C1B21206889014118C6
:1062200000260E76194B4E760622FF21C01801F08B
:10623000F1FE372520686D0140190670202141705C
:1062400007F0E2FE01281CD01F2021680F4B4919DE
:1062500088702068093307220021C01801F0DAFE97
:106260000A4B206810330522FF21C01801F0D2FE2E
:10627000DF232068DB00FF220021C01806F08FF921
:1062800070BD5F20E1E7000080030020DA06000017
:1062900000210B200007026852070DD50268042375
:1062A0009A430260026808231A43026004E0491C12
:1062B000052901DD0020704742689207F7D5416843
:1062C000C907FCD0806880B2704710B5FFF7E0FFC7
:1062D0000446FFF7DDFF0004201810BDFEE77047FD
:1062E00070470000F0B5454C092526682D0270194D
:1062F000006E0027416B4248AE368DB0814242D0DD
:1063000006216846FFF706FF69464879C021084321
:1063100069464871206806224019006E2430FFF754
:10632000CFFE0746102105A8FFF7F4FE20681022D3
:106330004019006E05A9001DFFF7C2FE074310219A
:1063400009A8FFF7E7FE206810224019006E09A98E
:106350001430FFF7B5FE0146394313D120682949AF
:106360004019006E264F4018800881002648081802
:1063700039460490FDF7A6FC04980068B84201D1A4
:10638000002700E0FB2722685019006EA632243057
:106390000190062001460090002008F0D8FC00285B
:1063A00002D12068A6300190701D009A019901F079
:1063B0002DFE2268102631460020803208F0C7FCEE
:1063C000002807D0206832464119096E8030091D27
:1063D00001F01CFE226831460020903208F0B7FC24
:1063E000002807D0206832464119096E90301431D8
:1063F00001F00CFE38460DB0F0BD00008003002017
:10640000AAAAAAAA3400FCEF0000041030B50F4B72
:106410000F4D1B6804465B1940331B7A412085B041
:106420009B0710D56B469981DA81002018820420E1
:10643000588203AA04A96D4607C502231A46012102
:106440002046FFF793FB05B030BD0000800300201D
:106450002C070000024600200146535C002B00D0B0
:106460000120491CC9B20629F7D3704702480068C9
:106470002030C07F704700008003002070B50E46BA
:10648000054601462022002001F078FE040023D0BA
:10649000284600F06BF8050027D02879B04224D1B7
:1064A000A87880071FD4A06801210173A06800218B
:1064B0004673A06802268673A068C173A068017441
:1064C000A06841740620E0802146052000F0BEF956
:1064D000002803D0412509E064250BE0A87830436B
:1064E000A870002506E0462500E042250021204650
:1064F00001F0A0FE284670BD7CB514460D4600286C
:106500001ED1052D02D00B2D07D011E06279217923
:106510006088A31D03F0DEFD0AE021461231881FCA
:1065200001910090627921796088A31D03F0E9FD53
:1065300021462846FFF708FA2146284600F0B4FA1B
:106540007CBD70B505460C46002000F00FF8002811
:106550000BD02905090D018000218170002C01D18B
:106560000821817001210171C17070BD30B50246F2
:106570000A480F230068DB010021C318A030047B08
:1065800007E0D86F0D0140190588954204D0491CD9
:10659000C9B28C42F5D8002030BD00008003002035
:1065A00030B50A490F2309680246DB010020CB18E9
:1065B000A031097B07E0DC6F05016419248894424F
:1065C00003D0401CC0B28142F5D830BD800300200A
:1065D0008068017A407A0002081880B27047000093
:1065E00070B50023134A1DE00F25ED014019190174
:1065F000C66F0024C81C345410684019C66F081DAB
:10660000345410684019C06F445210684019C66F66
:1066100008460830345210680C314019C06F5B1CBA
:106620004450DBB21068AC21095C9942DCD80020F0
:1066300070BD00008003002010B5024688680C463B
:10664000817AC07A0002081881B2E088001FE080D9
:10665000042909D005290CD006290FD00121204694
:1066600001F0E8FD002010BD21461046FFF75EF85E
:1066700008E02146104600F03FF903E021461046AD
:1066800003F032FB0028EED0E188091DE18010BD47
:10669000F3B581B00D4600268888FFF767FF070035
:1066A00056D0287B3C46083400900228F86833D046
:1066B000002845D0E888002810D021884018208084
:1066C000284601F031FD01466068806801F0DFF97D
:1066D0000120616801F0E8FC0020E880208804289F
:1066E00028D36068FFF774FF001D218880B28142C3
:1066F00026D881421BD16168C88061680198FFF784
:106700009BFF0146002000290ED06168A94201D1FB
:106710006060208045261FE0002801D04526DDE787
:106720006560E8882080D9E7606020800BE0452E16
:1067300006D008E0452E06D1384600F0C7F90BE038
:10674000384600F0C3F9002E06D10098012803D185
:106750000121284601F06EFD3046FEBD024610B50F
:106760000020002A05D0012A02D11046FFF790FF31
:1067700010BD1046FFF760FF10BD70B50546801EC6
:106780000C46030004F025FF0A0C1D1D06170B0B19
:106790000B0B060B0A4620782946FFF7ADFE70BDAD
:1067A0002846FFF7D1F8608803F0E4FB214628462D
:1067B00000F07AF970BD4A890888A11C03F0CAFC70
:1067C00070BD62880978284603F0F4FB70BD0000B4
:1067D000F0B585B0FFF7E4FE1B4D04462868A030F5
:1067E000007BA0422DD920463230694608736846A6
:1067F00004F006FB0F262868F6018019C26F0021FD
:1068000024011153286827468019C26FE01C1154D7
:1068100028680C378019C26F201D11542868801910
:10682000C06FC05900280CD0012101F003FD296878
:1068300000208919C96FC85129688919C96F08349E
:10684000085305B0F0BD00008003002010B50C46D1
:106850000146042805D0052903D0062901D050207F
:1068600010BDA068A2790272E088020AA068427294
:10687000A0688172A068090AC172E088001DE080EA
:10688000022020732046FBF7CBFA0028E8D0E088EE
:10689000001FE080412010BDF8B53238010602200B
:1068A000144D00900F262868F6010C0D821937212F
:1068B0004901D26F4118C97A175B012349070DD5E9
:1068C000D902083040181E224069022105F0B4FAAE
:1068D000010003D08F80009805F09AFA2968002003
:1068E0008919CA6F211D505429688919C96FE41C80
:1068F0000855F8BD80030020F0B50D468DB000218D
:106900000A91A96800280F7B02D0012822D0C3E099
:10691000A888FFF745FE624E04463068A030007B31
:10692000A04215D9122F08D15E480290204632307D
:1069300069460873684604F017FA0F203168C001F1
:106940000818C06F210140188178FD221140817024
:1069500000219EE0A888FFF723FE06465048AC229F
:106960000168525CB24218D90F20C0010818C06FEC
:1069700032018418A278100710D5122F10D15007B9
:1069800010D4A9882A46422005F0A6FDA07804214B
:106990000843A070A868407B207179E0132F0AD0CB
:1069A000012F41D0A868417BA888FFF767FD0A90B6
:1069B00000286DD070E0A868E778437BBB4267D1C0
:1069C000520765D5027C407C01230002101887B273
:1069D00042200490A8880690372040010818C07A09
:1069E00080070FD5D802083108181D224069049984
:1069F00005F022FA010005D0069A8A80CF8004981B
:106A000005F006FAA078FB210840A070E078401C51
:106A10000006000EE07001D10120E07068463236B9
:106A2000067304F0EDF933E0100731D4A868E1787B
:106A3000407B88422CD150072AD5FB200240A2700F
:106A4000E078401C0006000EE07001D10120E070EB
:106A500068463236067304F0D3F9114820220068E4
:106A60009101083040184224AE8802234069214633
:106A700005F0E2F901000BD0A868437B877BC07B5F
:106A80008E80000238188B710881204605F0C0F90D
:106A90000121284601F0CEFB0A980DB0F0BD0000A0
:106AA000800300203075000010B5022809D00528A9
:106AB00001D00B2808D1084609794088FFF741FD2D
:106AC00002E04888FFF784FE002010BDF8B50546B7
:106AD000807810210843A870422000901148C90115
:106AE000006801270830401802263B4621224069F1
:106AF000009905F0A1F904000AD0277166713246A9
:106B00002946A01D01F082FA2146009805F080F97F
:106B1000E868002805D0012101F08CFB0020E86026
:106B20002881F8BD80030020FEB50F4606460024EC
:106B300007F008FC054607F079FB082D01D308286B
:106B400011D202A9684600F06DFA002F684606D0FF
:106B50004079400601D5022102E0032100E0017ADC
:106B6000B14200D041242046FEBD0000FFB50746DB
:106B70008DB000200890079078481E46016841209B
:106B800040010C1823204001081847711546C271B6
:106B9000002B01D0002101710E9800287ED0FFF754
:106BA00059FC00287AD0002E03D020342079012807
:106BB00074D0FF24002E07D0022D02D0032D02D066
:106BC00002E0002500E0012564486549006840189E
:106BD0000B90022F01D0032F6AD168460570062260
:106BE000401C0E9901F012FA6946002001F080FB6A
:106BF000FF2803D00B99C2005118CC7911239B01B7
:106C00005649002E14D00968CA189476232300220E
:106C10005B01C9180A71FF284AD0372044434F4806
:106C2000FF2100682F312018095C002904D015E0ED
:106C30000A68D1188C75EEE70146FF31FF30473105
:106C40001F3001F025FC4548062200682118FF315D
:106C500005A8483101F0DAF9012007903F49FF22E9
:106C600008684E322018125C002A1CD10146FF3100
:106C7000FF304031303001F00BFC3848062200680C
:106C80002118FF3103A8413101F0C0F9012008901B
:106C9000002E08D031480121026800E017E02320CF
:106CA0004001101801710798002801D0002E0AD069
:106CB000324629460E9800F0F9FC0898002806D0C4
:106CC000012103A815E03246012105A8F3E7002FB2
:106CD00006D0012F1AD0022F02D0032F07D115E0C2
:106CE0001E48062201686846783101F08FF90021BC
:106CF000684600F045FD0124A402002F10D0012FAA
:106D000016D0022F0CD0032F24D111E013480622F5
:106D1000016814480918684601F078F90121E7E78D
:106D20000E480068816F041909027B30E1650CE0B0
:106D30000A4805680B482818FAF780FE00022C194B
:106D4000401CE0650748C01C2818FAF777FE0002CF
:106D5000000A2066002011B0F0BD00008003002072
:106D60006C040000EF06000000207047F0B5814D74
:106D7000044641212868490185B04018019007F078
:106D800055FA09263602002C7ED008280DD3422061
:106D90000746039078480024029007F0AFFA00906D
:106DA000082004900098082802D30C2005B0F0BDFC
:106DB00000F038FC00F02AFB00987049800142186E
:106DC00028688019C16C01988030036BC0315980EC
:106DD000016B09800021C94301820021456ACB1D56
:106DE000EF54856AEF54C56AEF54056AEF54066B99
:106DF000039DF554039B3F0A1B0A0393466A029DB9
:106E00000B1DF554866AF554C66AF554066AF554A6
:106E1000066BF554029B491C1B0AC9B20293032955
:106E2000DCD3009911234907090E456A0B43AB7265
:106E3000856AAB72C56AAB72019B1D7E0223022D6F
:106E40000BD1456AAE7A1E43AE72856AAE7A1E4396
:106E5000AE72C56AAE7A1E43AE72466A0127F772F9
:106E6000866AF772C66AF7721943036B9972036AEE
:106E70009972036B0321D972016ACF7200210B460C
:106E8000535455186B7100E04BE0491CC9B20529F9
:106E9000F6D38025957201992031CE7BD672868CEF
:106EA0001682068E5682364E9661364ED6613E4624
:106EB0002027BE54D375019A127E002A04D0012ADD
:106EC00004D0062A12D110E018240FE003228368B0
:106ED00028245202934209D1C368934206D100226A
:106EE0000492FF225632028200E01024497B0029DE
:106EF00004D0012904D0022906D103E0C02102E018
:106F00002C4301E040210C430499C26809028068C7
:106F100053184218E108C900491C009809F0C8FC40
:106F200044E772B608280AD22A6891190B6B5821D7
:106F30004143891C5C5C6407640F012C01D062B67C
:106F400016E0F024A45C002C04D01126FF24B60126
:106F50009219947500225A541F212A6889015118E8
:106F60000B790122824093430B7162B60BF036FC21
:106F700000201BE7800300208100B000CC0000202F
:106F8000D6BE898E55555500FFB50C4691B00146C9
:106F9000102204A801F03AF81022214608A801F0B6
:106FA00035F804A8009008A801900CA802900026CB
:106FB00068460673184841210068490145180927A9
:106FC000FF062C46803472B66846007B002808D045
:106FD00062B610220CA9139801F018F8002015B021
:106FE000F0BD286D3969401A0C4900020988000A71
:106FF00009070BD51499002908D10949FF3888429F
:1070000004D368460673606430BF03E06846666474
:1070100006F0FCFF62B6D6E780030020C000002027
:1070200002FF7F0070B5044608480D460068412104
:10703000490146182046316807F08EFD72682271BA
:10704000100A6071100C2870002070BD80030020B1
:1070500070B50D46044607F0E9F8082801D31F2053
:1070600070BD0A4841210068490140180022416B67
:10707000931CC95CA154521C062AF8DB406B0078B3
:107080004006C00F2870002070BD00008003002063
:1070900010B504460348807A06F058FF207000209F
:1070A00010BD000000010020F8B50C46054607F0B1
:1070B00049F9082801D31F20F8BD0A4E0927306876
:1070C0003F02C019006D06222946801C06F035FFDC
:1070D0003068C019006D00784006C00F2070002095
:1070E000F8BD000080030020F8B55D4C4120256804
:1070F00040012818002201460923027620311B0294
:107100000A73ED182E6DFB27283686632D6DFF263A
:10711000503545630835856207258D73416B0A70CC
:10712000456B062169702468E1180D6D7835C563DB
:10713000096D0825A03101640146C0314A720A7206
:10714000CD738D731B250D8249364E828F82454F3C
:10715000CF82FB270F83434F4F838D83CE834249DA
:10716000626521653E4C01462668B518F618376DF4
:10717000603516462D7E2A36BD552668F618376DC1
:1071800016465236BD552668F618376D16467A36BD
:10719000BD552668F618376D1646A236BD550D70DA
:1071A000521CD2B2491C062ADED300250D70826B18
:1071B00006215170426B517002468032556129465A
:1071C00095611BE009252D025B1958254D431F6B66
:1071D0002B46264E0A33FE52092327681B02FB1852
:1071E0001F6B2B4600262033FE50092327681B0205
:1071F000FB1824351B6B491C5E51C9B22368AC25B2
:10720000ED5C8D42DED8002501219583C902018401
:1072100055640920216800020918096C936B891CC8
:10722000598021680818006C516B801C48801048F8
:10723000818D206840300186FBF7F4FD1F21206816
:10724000890141183F220D71520108218018817275
:1072500000F010F809F00CFA20682030C574F8BD71
:107260008003002048080000862E0000FFFF000079
:107270003004002010B5084C2F2320685B01F82251
:10728000FF21C01800F0C6FE1722216800209201DD
:107290008918087710BD00008003002010B504464F
:1072A0008088032106F0E6FF022172B6082815D275
:1072B0000D4A1368092212029A185823126B584378
:1072C000831CD35C002B09D0002110182160016AB7
:1072D000002906D0416A0C604521446262B6084626
